{
  "contractName": "BrainContract",
  "abi": [
    {
      "inputs": [
        {
          "internalType": "uint256",
          "name": "_initialTime",
          "type": "uint256"
        },
        {
          "internalType": "uint256",
          "name": "_initialPrice",
          "type": "uint256"
        }
      ],
      "stateMutability": "nonpayable",
      "type": "constructor"
    },
    {
      "inputs": [
        {
          "internalType": "address",
          "name": "priceFeedAddress",
          "type": "address"
        }
      ],
      "name": "changePriceFeedAddress",
      "outputs": [
        {
          "internalType": "bool",
          "name": "",
          "type": "bool"
        }
      ],
      "stateMutability": "nonpayable",
      "type": "function"
    },
    {
      "inputs": [
        {
          "internalType": "uint256",
          "name": "_initialTimestamp",
          "type": "uint256"
        }
      ],
      "name": "changeInitialTimestamp",
      "outputs": [
        {
          "internalType": "bool",
          "name": "",
          "type": "bool"
        }
      ],
      "stateMutability": "nonpayable",
      "type": "function"
    },
    {
      "inputs": [
        {
          "internalType": "uint256",
          "name": "_initialPrice",
          "type": "uint256"
        }
      ],
      "name": "changeInitialPeggedPrice",
      "outputs": [
        {
          "internalType": "bool",
          "name": "",
          "type": "bool"
        }
      ],
      "stateMutability": "nonpayable",
      "type": "function"
    },
    {
      "inputs": [],
      "name": "getLatestPrice",
      "outputs": [
        {
          "internalType": "int256",
          "name": "",
          "type": "int256"
        }
      ],
      "stateMutability": "view",
      "type": "function"
    },
    {
      "inputs": [],
      "name": "getPeggedPrice",
      "outputs": [
        {
          "internalType": "uint256",
          "name": "",
          "type": "uint256"
        }
      ],
      "stateMutability": "view",
      "type": "function"
    },
    {
      "inputs": [],
      "name": "getDeviant",
      "outputs": [
        {
          "internalType": "int256",
          "name": "",
          "type": "int256"
        }
      ],
      "stateMutability": "view",
      "type": "function"
    },
    {
      "inputs": [
        {
          "internalType": "int256",
          "name": "deviant",
          "type": "int256"
        }
      ],
      "name": "getTaxPercent",
      "outputs": [
        {
          "internalType": "uint256",
          "name": "",
          "type": "uint256"
        },
        {
          "internalType": "uint256",
          "name": "",
          "type": "uint256"
        }
      ],
      "stateMutability": "view",
      "type": "function"
    },
    {
      "inputs": [
        {
          "internalType": "int256",
          "name": "deviant",
          "type": "int256"
        }
      ],
      "name": "getRewardPercent",
      "outputs": [
        {
          "internalType": "uint256",
          "name": "",
          "type": "uint256"
        },
        {
          "internalType": "uint256",
          "name": "",
          "type": "uint256"
        }
      ],
      "stateMutability": "view",
      "type": "function"
    },
    {
      "inputs": [
        {
          "internalType": "int256",
          "name": "deviant",
          "type": "int256"
        }
      ],
      "name": "getBuyerRewardPercent",
      "outputs": [
        {
          "internalType": "uint256",
          "name": "",
          "type": "uint256"
        },
        {
          "internalType": "uint256",
          "name": "",
          "type": "uint256"
        }
      ],
      "stateMutability": "view",
      "type": "function"
    }
  ],
  "bytecode": "0x6080604052670de0b6b3a7640000600355620151806004556005805534801561002757600080fd5b50604051611143380380611143833981810160405281019061004991906100c7565b73777a68032a88e5a84678a77af2cd65a7b3c0775a6000806101000a81548173ffffffffffffffffffffffffffffffffffffffff021916908373ffffffffffffffffffffffffffffffffffffffff16021790555081600181905550806002819055505050610124565b6000815190506100c18161010d565b92915050565b600080604083850312156100da57600080fd5b60006100e8858286016100b2565b92505060206100f9858286016100b2565b9150509250929050565b6000819050919050565b61011681610103565b811461012157600080fd5b50565b611010806101336000396000f3fe608060405234801561001057600080fd5b50600436106100935760003560e01c8063a3201e2511610066578063a3201e2514610147578063c43a34d614610165578063e648862714610183578063e7e6a2eb146101b4578063e9085fb8146101e457610093565b806319b379e91461009857806331518fa6146100c85780634c90d0ea146100f95780638e15f47314610129575b600080fd5b6100b260048036038101906100ad9190610880565b610215565b6040516100bf919061094d565b60405180910390f35b6100e260048036038101906100dd9190610857565b610227565b6040516100f092919061099e565b60405180910390f35b610113600480360381019061010e9190610880565b610336565b604051610120919061094d565b60405180910390f35b610131610348565b60405161013e9190610968565b60405180910390f35b61014f6103f6565b60405161015c9190610968565b60405180910390f35b61016d610439565b60405161017a9190610983565b60405180910390f35b61019d60048036038101906101989190610857565b6104e5565b6040516101ab92919061099e565b60405180910390f35b6101ce60048036038101906101c9919061082e565b6105f4565b6040516101db919061094d565b60405180910390f35b6101fe60048036038101906101f99190610857565b61063f565b60405161020c92919061099e565b60405180910390f35b60008160028190555060019050919050565b60008060008312156103275760008361023f90610eca565b90506000600554826102519190610a87565b90506000600554826102639190610d40565b8361026e9190610e2e565b9050600080670de0b6b3a76400009050600091505b838210156102c25764174876e800641ff6c5d2b6826102a29190610d40565b6102ac9190610a87565b90506001826102bb91906109c7565b9150610283565b8262016ea36102d19190610b0b565b83620186a06102e09190610b0b565b826102eb9190610d40565b6102f59190610a87565b90506107d0655af3107a40008261030c9190610a87565b61031691906109c7565b612710965096505050505050610331565b6000612710915091505b915091565b60008160018190555060019050919050565b60008060008054906101000a900473ffffffffffffffffffffffffffffffffffffffff1673ffffffffffffffffffffffffffffffffffffffff1663feaf968c6040518163ffffffff1660e01b815260040160a06040518083038186803b1580156103b157600080fd5b505afa1580156103c5573d6000803e3d6000fd5b505050506040513d601f19601f820116820180604052508101906103e991906108a9565b5050509150508091505090565b600080610401610439565b9050600061040d610348565b9050816064838361041e9190610d9a565b6104289190610c29565b6104329190610a1d565b9250505090565b6000804290506001548111610453576002549150506104e2565b600061047a600454600154846104699190610e2e565b6104739190610a87565b600161074c565b905060006127106104a261049060035485610784565b60018561049d91906109c7565b610784565b6104ac9190610a87565b6104c26104bb60035485610784565b606461079a565b6002546104cf91906109c7565b6104d991906109c7565b90508093505050505b90565b60008060008312156105e5576000836104fd90610eca565b905060006005548261050f9190610a87565b90506000600554826105219190610d40565b8361052c9190610e2e565b9050600080670de0b6b3a76400009050600091505b838210156105805764174876e800642047e50d09826105609190610d40565b61056a9190610a87565b905060018261057991906109c7565b9150610541565b8262016dea61058f9190610b0b565b83620186a061059e9190610b0b565b826105a99190610d40565b6105b39190610a87565b9050617530655af3107a4000826105ca9190610a87565b6105d491906109c7565b6127109650965050505050506105ef565b6000612710915091505b915091565b6000816000806101000a81548173ffffffffffffffffffffffffffffffffffffffff021916908373ffffffffffffffffffffffffffffffffffffffff16021790555060019050919050565b600080600083121561073d5760008361065790610eca565b90506000600554826106699190610a87565b905060006005548261067b9190610d40565b836106869190610e2e565b9050600080670de0b6b3a76400009050600091505b838210156106da5764174876e800641e91d38e24826106ba9190610d40565b6106c49190610a87565b90506001826106d391906109c7565b915061069b565b826103b36106e89190610b0b565b836103e86106f69190610b0b565b826107019190610d40565b61070b9190610a87565b90506101f4655af3107a4000826107229190610a87565b61072c91906109c7565b612710965096505050505050610747565b6000612710915091505b915091565b600081826001848661075e91906109c7565b6107689190610e2e565b6107729190610a87565b61077c9190610d40565b905092915050565b600081836107929190610d40565b905092915050565b600081836107a89190610a87565b905092915050565b6000813590506107bf81610f7e565b92915050565b6000813590506107d481610f95565b92915050565b6000815190506107e981610f95565b92915050565b6000813590506107fe81610fac565b92915050565b60008151905061081381610fac565b92915050565b60008151905061082881610fc3565b92915050565b60006020828403121561084057600080fd5b600061084e848285016107b0565b91505092915050565b60006020828403121561086957600080fd5b6000610877848285016107c5565b91505092915050565b60006020828403121561089257600080fd5b60006108a0848285016107ef565b91505092915050565b600080600080600060a086880312156108c157600080fd5b60006108cf88828901610819565b95505060206108e0888289016107da565b94505060406108f188828901610804565b935050606061090288828901610804565b925050608061091388828901610819565b9150509295509295909350565b61092981610e74565b82525050565b61093881610e80565b82525050565b61094781610eaa565b82525050565b60006020820190506109626000830184610920565b92915050565b600060208201905061097d600083018461092f565b92915050565b6000602082019050610998600083018461093e565b92915050565b60006040820190506109b3600083018561093e565b6109c0602083018461093e565b9392505050565b60006109d282610eaa565b91506109dd83610eaa565b9250827fffffffffffffffffffffffffffffffffffffffffffffffffffffffffffffffff03821115610a1257610a11610f13565b5b828201905092915050565b6000610a2882610e80565b9150610a3383610e80565b925082610a4357610a42610f42565b5b600160000383147f800000000000000000000000000000000000000000000000000000000000000083141615610a7c57610a7b610f13565b5b828205905092915050565b6000610a9282610eaa565b9150610a9d83610eaa565b925082610aad57610aac610f42565b5b828204905092915050565b6000808291508390505b6001851115610b0257808604811115610ade57610add610f13565b5b6001851615610aed5780820291505b8081029050610afb85610f71565b9450610ac2565b94509492505050565b6000610b1682610eaa565b9150610b2183610eaa565b9250610b4e7fffffffffffffffffffffffffffffffffffffffffffffffffffffffffffffffff8484610b56565b905092915050565b600082610b665760019050610c22565b81610b745760009050610c22565b8160018114610b8a5760028114610b9457610bc3565b6001915050610c22565b60ff841115610ba657610ba5610f13565b5b8360020a915084821115610bbd57610bbc610f13565b5b50610c22565b5060208310610133831016604e8410600b8410161715610bf85782820a905083811115610bf357610bf2610f13565b5b610c22565b610c058484846001610ab8565b92509050818404811115610c1c57610c1b610f13565b5b81810290505b9392505050565b6000610c3482610e80565b9150610c3f83610e80565b9250827f7fffffffffffffffffffffffffffffffffffffffffffffffffffffffffffffff0482116000841360008413161615610c7e57610c7d610f13565b5b817f80000000000000000000000000000000000000000000000000000000000000000583126000841260008413161615610cbb57610cba610f13565b5b827f80000000000000000000000000000000000000000000000000000000000000000582126000841360008412161615610cf857610cf7610f13565b5b827f7fffffffffffffffffffffffffffffffffffffffffffffffffffffffffffffff0582126000841260008412161615610d3557610d34610f13565b5b828202905092915050565b6000610d4b82610eaa565b9150610d5683610eaa565b9250817fffffffffffffffffffffffffffffffffffffffffffffffffffffffffffffffff0483118215151615610d8f57610d8e610f13565b5b828202905092915050565b6000610da582610e80565b9150610db083610e80565b9250827f800000000000000000000000000000000000000000000000000000000000000001821260008412151615610deb57610dea610f13565b5b827f7fffffffffffffffffffffffffffffffffffffffffffffffffffffffffffffff018213600084121615610e2357610e22610f13565b5b828203905092915050565b6000610e3982610eaa565b9150610e4483610eaa565b925082821015610e5757610e56610f13565b5b828203905092915050565b6000610e6d82610e8a565b9050919050565b60008115159050919050565b6000819050919050565b600073ffffffffffffffffffffffffffffffffffffffff82169050919050565b6000819050919050565b600069ffffffffffffffffffff82169050919050565b6000610ed582610e80565b91507f8000000000000000000000000000000000000000000000000000000000000000821415610f0857610f07610f13565b5b816000039050919050565b7f4e487b7100000000000000000000000000000000000000000000000000000000600052601160045260246000fd5b7f4e487b7100000000000000000000000000000000000000000000000000000000600052601260045260246000fd5b60008160011c9050919050565b610f8781610e62565b8114610f9257600080fd5b50565b610f9e81610e80565b8114610fa957600080fd5b50565b610fb581610eaa565b8114610fc057600080fd5b50565b610fcc81610eb4565b8114610fd757600080fd5b5056fea26469706673582212203d9ebdc86c4800115bbdf7154a2c2973ff92569232d7fe8034385577ab9c35aa64736f6c63430008040033",
  "immutableReferences": {},
  "source": "// SPDX-License-Identifier: MIT\r\npragma solidity ^0.8.0;\r\n\r\nimport \"@chainlink/contracts/src/v0.8/interfaces/AggregatorV3Interface.sol\";\r\n\r\nlibrary SafeMath {\r\n    /**\r\n     * @dev Returns the addition of two unsigned integers, with an overflow flag.\r\n     *\r\n     * _Available since v3.4._\r\n     */\r\n    function tryAdd(uint256 a, uint256 b)\r\n        internal\r\n        pure\r\n        returns (bool, uint256)\r\n    {\r\n        unchecked {\r\n            uint256 c = a + b;\r\n            if (c < a) return (false, 0);\r\n            return (true, c);\r\n        }\r\n    }\r\n\r\n    /**\r\n     * @dev Returns the substraction of two unsigned integers, with an overflow flag.\r\n     *\r\n     * _Available since v3.4._\r\n     */\r\n    function trySub(uint256 a, uint256 b)\r\n        internal\r\n        pure\r\n        returns (bool, uint256)\r\n    {\r\n        unchecked {\r\n            if (b > a) return (false, 0);\r\n            return (true, a - b);\r\n        }\r\n    }\r\n\r\n    /**\r\n     * @dev Returns the multiplication of two unsigned integers, with an overflow flag.\r\n     *\r\n     * _Available since v3.4._\r\n     */\r\n    function tryMul(uint256 a, uint256 b)\r\n        internal\r\n        pure\r\n        returns (bool, uint256)\r\n    {\r\n        unchecked {\r\n            // Gas optimization: this is cheaper than requiring 'a' not being zero, but the\r\n            // benefit is lost if 'b' is also tested.\r\n            // See: https://github.com/OpenZeppelin/openzeppelin-contracts/pull/522\r\n            if (a == 0) return (true, 0);\r\n            uint256 c = a * b;\r\n            if (c / a != b) return (false, 0);\r\n            return (true, c);\r\n        }\r\n    }\r\n\r\n    /**\r\n     * @dev Returns the division of two unsigned integers, with a division by zero flag.\r\n     *\r\n     * _Available since v3.4._\r\n     */\r\n    function tryDiv(uint256 a, uint256 b)\r\n        internal\r\n        pure\r\n        returns (bool, uint256)\r\n    {\r\n        unchecked {\r\n            if (b == 0) return (false, 0);\r\n            return (true, a / b);\r\n        }\r\n    }\r\n\r\n    /**\r\n     * @dev Returns the remainder of dividing two unsigned integers, with a division by zero flag.\r\n     *\r\n     * _Available since v3.4._\r\n     */\r\n    function tryMod(uint256 a, uint256 b)\r\n        internal\r\n        pure\r\n        returns (bool, uint256)\r\n    {\r\n        unchecked {\r\n            if (b == 0) return (false, 0);\r\n            return (true, a % b);\r\n        }\r\n    }\r\n\r\n    /**\r\n     * @dev Returns the addition of two unsigned integers, reverting on\r\n     * overflow.\r\n     *\r\n     * Counterpart to Solidity's `+` operator.\r\n     *\r\n     * Requirements:\r\n     *\r\n     * - Addition cannot overflow.\r\n     */\r\n    function add(uint256 a, uint256 b) internal pure returns (uint256) {\r\n        return a + b;\r\n    }\r\n\r\n    /**\r\n     * @dev Returns the subtraction of two unsigned integers, reverting on\r\n     * overflow (when the result is negative).\r\n     *\r\n     * Counterpart to Solidity's `-` operator.\r\n     *\r\n     * Requirements:\r\n     *\r\n     * - Subtraction cannot overflow.\r\n     */\r\n    function sub(uint256 a, uint256 b) internal pure returns (uint256) {\r\n        return a - b;\r\n    }\r\n\r\n    /**\r\n     * @dev Returns the multiplication of two unsigned integers, reverting on\r\n     * overflow.\r\n     *\r\n     * Counterpart to Solidity's `*` operator.\r\n     *\r\n     * Requirements:\r\n     *\r\n     * - Multiplication cannot overflow.\r\n     */\r\n    function mul(uint256 a, uint256 b) internal pure returns (uint256) {\r\n        return a * b;\r\n    }\r\n\r\n    /**\r\n     * @dev Returns the integer division of two unsigned integers, reverting on\r\n     * division by zero. The result is rounded towards zero.\r\n     *\r\n     * Counterpart to Solidity's `/` operator.\r\n     *\r\n     * Requirements:\r\n     *\r\n     * - The divisor cannot be zero.\r\n     */\r\n    function div(uint256 a, uint256 b) internal pure returns (uint256) {\r\n        return a / b;\r\n    }\r\n\r\n    /**\r\n     * @dev Returns the remainder of dividing two unsigned integers. (unsigned integer modulo),\r\n     * reverting when dividing by zero.\r\n     *\r\n     * Counterpart to Solidity's `%` operator. This function uses a `revert`\r\n     * opcode (which leaves remaining gas untouched) while Solidity uses an\r\n     * invalid opcode to revert (consuming all remaining gas).\r\n     *\r\n     * Requirements:\r\n     *\r\n     * - The divisor cannot be zero.\r\n     */\r\n    function mod(uint256 a, uint256 b) internal pure returns (uint256) {\r\n        return a % b;\r\n    }\r\n\r\n    /**\r\n     * @dev Returns the subtraction of two unsigned integers, reverting with custom message on\r\n     * overflow (when the result is negative).\r\n     *\r\n     * CAUTION: This function is deprecated because it requires allocating memory for the error\r\n     * message unnecessarily. For custom revert reasons use {trySub}.\r\n     *\r\n     * Counterpart to Solidity's `-` operator.\r\n     *\r\n     * Requirements:\r\n     *\r\n     * - Subtraction cannot overflow.\r\n     */\r\n    function sub(\r\n        uint256 a,\r\n        uint256 b,\r\n        string memory errorMessage\r\n    ) internal pure returns (uint256) {\r\n        unchecked {\r\n            require(b <= a, errorMessage);\r\n            return a - b;\r\n        }\r\n    }\r\n\r\n    /**\r\n     * @dev Returns the integer division of two unsigned integers, reverting with custom message on\r\n     * division by zero. The result is rounded towards zero.\r\n     *\r\n     * Counterpart to Solidity's `/` operator. Note: this function uses a\r\n     * `revert` opcode (which leaves remaining gas untouched) while Solidity\r\n     * uses an invalid opcode to revert (consuming all remaining gas).\r\n     *\r\n     * Requirements:\r\n     *\r\n     * - The divisor cannot be zero.\r\n     */\r\n    function div(\r\n        uint256 a,\r\n        uint256 b,\r\n        string memory errorMessage\r\n    ) internal pure returns (uint256) {\r\n        unchecked {\r\n            require(b > 0, errorMessage);\r\n            return a / b;\r\n        }\r\n    }\r\n\r\n    /**\r\n     * @dev Returns the remainder of dividing two unsigned integers. (unsigned integer modulo),\r\n     * reverting with custom message when dividing by zero.\r\n     *\r\n     * CAUTION: This function is deprecated because it requires allocating memory for the error\r\n     * message unnecessarily. For custom revert reasons use {tryMod}.\r\n     *\r\n     * Counterpart to Solidity's `%` operator. This function uses a `revert`\r\n     * opcode (which leaves remaining gas untouched) while Solidity uses an\r\n     * invalid opcode to revert (consuming all remaining gas).\r\n     *\r\n     * Requirements:\r\n     *\r\n     * - The divisor cannot be zero.\r\n     */\r\n    function mod(\r\n        uint256 a,\r\n        uint256 b,\r\n        string memory errorMessage\r\n    ) internal pure returns (uint256) {\r\n        unchecked {\r\n            require(b > 0, errorMessage);\r\n            return a % b;\r\n        }\r\n    }\r\n}\r\n\r\ncontract BrainContract {\r\n    //Price Feed\r\n    AggregatorV3Interface internal priceFeed;\r\n\r\n    uint256 initialTime;\r\n    uint256 initialPrice; // 2$\r\n    uint256 perPrice = 1 * 10**18;\r\n\r\n    //add mappings\r\n\r\n    //add events\r\n\r\n    //pass as constructor argument deployed Token contract\r\n    /**\r\n     * Network: Kovan\r\n     * Aggregator: DAI/USD\r\n     * Address: 0x9326BFA02ADD2366b30bacB125260Af641031331\r\n     */\r\n    constructor(uint256 _initialTime, uint256 _initialPrice) {\r\n        //price feed initialPrice\r\n        priceFeed = AggregatorV3Interface(\r\n            0x777A68032a88E5A84678A77Af2CD65A7b3c0775a\r\n        );\r\n        //assign token deployed contract to variable\r\n        initialTime = _initialTime;\r\n        initialPrice = _initialPrice;\r\n    }\r\n\r\n    function changePriceFeedAddress(address priceFeedAddress)\r\n        public\r\n        returns (bool)\r\n    {\r\n        priceFeed = AggregatorV3Interface(priceFeedAddress);\r\n        return true;\r\n    }\r\n\r\n    function changeInitialTimestamp(uint256 _initialTimestamp) public returns (bool) {\r\n        initialTime = _initialTimestamp;\r\n        return true;\r\n    }\r\n\r\n    function changeInitialPeggedPrice(uint256 _initialPrice) public returns (bool) {\r\n        initialPrice = _initialPrice;\r\n        return true;\r\n    }\r\n\r\n    uint256 SECOND_PER_DAY = 86400; //24 * 60 * 60;\r\n\r\n    /**\r\n     * Returns the latest price\r\n     */\r\n    function getLatestPrice() public view returns (int256) {\r\n        (\r\n            ,\r\n            // uint80 roundID,\r\n            int256 price, // uint256 startedAt, // uint256 timeStamp, // uint80 answeredInRound\r\n            ,\r\n            ,\r\n\r\n        ) = priceFeed.latestRoundData();\r\n        return price;\r\n    }\r\n\r\n    /**\r\n     pegged price increase by day: 0.0002X+0.01 (x is number of day from initialDay)\r\n     ==> pegged_price_n = initial_price + n * (0.01) + (n*(n+1)/2 * 0.0002)\r\n     */\r\n    function getPeggedPrice() public view returns (uint256) {\r\n        uint256 currentTime = block.timestamp;\r\n        if (currentTime <= initialTime) {\r\n            return initialPrice;\r\n        }\r\n        uint256 daysFromBegin = ceil(\r\n            (currentTime - initialTime) / SECOND_PER_DAY,\r\n            1\r\n        );\r\n        uint256 peggedPrice = uint256(\r\n            initialPrice +\r\n                SafeMath.div(SafeMath.mul(perPrice, daysFromBegin), 100) +\r\n                SafeMath.mul(\r\n                    SafeMath.mul(perPrice, daysFromBegin),\r\n                    daysFromBegin + 1\r\n                ) /\r\n                10000\r\n        );\r\n        return (peggedPrice);\r\n    }\r\n\r\n    /**\r\n    return deviant of price - beetween current price and pegged price\r\n     */\r\n    function getDeviant() public view returns (int256) {\r\n        //   return getTimestamp();\r\n        int256 peggedPrice = int256(getPeggedPrice());\r\n        int256 currentPrice = int256(getLatestPrice());\r\n        return ((currentPrice - peggedPrice) * 100) / peggedPrice;\r\n    }\r\n\r\n    uint256 DEVIDE_STEP = 5;\r\n\r\n    function getTaxPercent(int256 deviant)\r\n        public\r\n        view\r\n        returns (uint256, uint256)\r\n    {\r\n        // 0.93859 ^ -5 = 138645146889 / 10 ** 11\r\n        //tax : 0.93674^{x}+3\r\n\r\n        if (deviant < 0) {\r\n            uint256 uDeviant = uint256(-deviant);\r\n            uint256 step = uDeviant / DEVIDE_STEP;\r\n            uint256 resident = uDeviant - step * DEVIDE_STEP;\r\n            uint256 j = 0;\r\n            uint256 percent = 10**18;\r\n            // return 9 ** uDeviant;\r\n            for (j = 0; j < step; j += 1) {\r\n                //for loop example\r\n                percent = (percent * 138645146889) / 10**11;\r\n            }\r\n            percent = (percent * (100000**resident)) / (93674**resident);\r\n            return (percent / (10**14) + 3 * 10000, 10**4);\r\n        } else {\r\n            return (0, 10**4);\r\n        }\r\n    }\r\n\r\n    function getRewardPercent(int256 deviant)\r\n        public\r\n        view\r\n        returns (uint256, uint256)\r\n    {\r\n        //1.0654279291277341544231240477738 = 1/0.93859 ~ 1.0654\r\n        // 0.93859 ^ -10 = 1.8846936700630545738235994788055 ~ 188469367 / 10**8\r\n        // 0.93859 ^ -5 = 137284145846 / 10 ** 11\r\n        // 0.93859 ** x = (1/(0.93859))^ (-x) = (1 + 0.0654279291277341544231240477738) ^ -x ~ = 1 + (-x) *  0.0654279291277341544231240477738\r\n        //reward : 0.93859 ^ -x + 0.2\r\n\r\n        if (deviant < 0) {\r\n            uint256 uDeviant = uint256(-deviant);\r\n            uint256 step = uDeviant / DEVIDE_STEP;\r\n            uint256 resident = uDeviant - step * DEVIDE_STEP;\r\n            uint256 j = 0;\r\n            uint256 percent = 10**18;\r\n            // return 9 ** uDeviant;\r\n            for (j = 0; j < step; j += 1) {\r\n                //for loop example\r\n                percent = (percent * 137284145846) / 10**11;\r\n            }\r\n            percent = (percent * (100000**resident)) / (93859**resident);\r\n            return (percent / (10**14) + 2000, 10**4);\r\n        } else {\r\n            return (0, 10**4);\r\n        }\r\n    }\r\n\r\n    function getBuyerRewardPercent(int256 deviant)\r\n        public\r\n        view\r\n        returns (uint256, uint256)\r\n    {\r\n        // 0.947 ^ -5 = 1.31295579684  / 10 ** 11\r\n        //reward : 0.947^{x}+0.05\r\n\r\n        if (deviant < 0) {\r\n            uint256 uDeviant = uint256(-deviant);\r\n            uint256 step = uDeviant / DEVIDE_STEP;\r\n            uint256 resident = uDeviant - step * DEVIDE_STEP;\r\n            uint256 j = 0;\r\n            uint256 percent = 10**18;\r\n            // return 9 ** uDeviant;\r\n            for (j = 0; j < step; j += 1) {\r\n                //for loop example\r\n                percent = (percent * 131295579684) / 10**11;\r\n            }\r\n            percent = (percent * (1000**resident)) / (947**resident);\r\n            return (percent / (10**14) + 500, 10**4);\r\n        } else {\r\n            return (0, 10**4);\r\n        }\r\n    }\r\n\r\n    // internal function\r\n    function ceil(uint256 a, uint256 m) internal pure returns (uint256) {\r\n        return ((a + m - 1) / m) * m;\r\n    }\r\n}\r\n",
  "sourcePath": "D:/Work/upwork/pegged-contract/contracts/BrainContract.sol",
  "compiler": {
    "name": "solc",
    "version": "0.8.4+commit.c7e474f2.Emscripten.clang"
  },
  "schemaVersion": "3.2.3",
  "updatedAt": "2021-12-28T14:55:34.443Z",
  "devdoc": {
    "kind": "dev",
    "methods": {},
    "version": 1
  },
  "userdoc": {
    "kind": "user",
    "methods": {
      "constructor": {
        "notice": "Network: Kovan Aggregator: DAI/USD Address: 0x9326BFA02ADD2366b30bacB125260Af641031331"
      },
      "getDeviant()": {
        "notice": "return deviant of price - beetween current price and pegged price"
      },
      "getLatestPrice()": {
        "notice": "Returns the latest price"
      },
      "getPeggedPrice()": {
        "notice": "pegged price increase by day: 0.0002X+0.01 (x is number of day from initialDay) ==> pegged_price_n = initial_price + n * (0.01) + (n*(n+1)/2 * 0.0002)"
      }
    },
    "version": 1
  }
}