{
  "contractName": "FleepToken",
  "abi": [
    {
      "inputs": [
        {
          "internalType": "address",
          "name": "_devWallet",
          "type": "address"
        },
        {
          "internalType": "address",
          "name": "_rewardWallet",
          "type": "address"
        },
        {
          "internalType": "uint256",
          "name": "_initialTime",
          "type": "uint256"
        },
        {
          "internalType": "uint256",
          "name": "_initialPrice",
          "type": "uint256"
        }
      ],
      "stateMutability": "payable",
      "type": "constructor",
      "payable": true
    },
    {
      "anonymous": false,
      "inputs": [
        {
          "indexed": true,
          "internalType": "address",
          "name": "owner",
          "type": "address"
        },
        {
          "indexed": true,
          "internalType": "address",
          "name": "spender",
          "type": "address"
        },
        {
          "indexed": false,
          "internalType": "uint256",
          "name": "value",
          "type": "uint256"
        }
      ],
      "name": "Approval",
      "type": "event"
    },
    {
      "anonymous": false,
      "inputs": [
        {
          "indexed": true,
          "internalType": "address",
          "name": "previousOwner",
          "type": "address"
        },
        {
          "indexed": true,
          "internalType": "address",
          "name": "newOwner",
          "type": "address"
        }
      ],
      "name": "OwnershipTransferred",
      "type": "event"
    },
    {
      "anonymous": false,
      "inputs": [
        {
          "indexed": true,
          "internalType": "address",
          "name": "from",
          "type": "address"
        },
        {
          "indexed": true,
          "internalType": "address",
          "name": "to",
          "type": "address"
        },
        {
          "indexed": false,
          "internalType": "uint256",
          "name": "value",
          "type": "uint256"
        }
      ],
      "name": "Transfer",
      "type": "event"
    },
    {
      "inputs": [
        {
          "internalType": "address",
          "name": "owner",
          "type": "address"
        },
        {
          "internalType": "address",
          "name": "spender",
          "type": "address"
        }
      ],
      "name": "allowance",
      "outputs": [
        {
          "internalType": "uint256",
          "name": "",
          "type": "uint256"
        }
      ],
      "stateMutability": "view",
      "type": "function",
      "constant": true
    },
    {
      "inputs": [
        {
          "internalType": "address",
          "name": "spender",
          "type": "address"
        },
        {
          "internalType": "uint256",
          "name": "amount",
          "type": "uint256"
        }
      ],
      "name": "approve",
      "outputs": [
        {
          "internalType": "bool",
          "name": "",
          "type": "bool"
        }
      ],
      "stateMutability": "nonpayable",
      "type": "function"
    },
    {
      "inputs": [
        {
          "internalType": "address",
          "name": "account",
          "type": "address"
        }
      ],
      "name": "balanceOf",
      "outputs": [
        {
          "internalType": "uint256",
          "name": "",
          "type": "uint256"
        }
      ],
      "stateMutability": "view",
      "type": "function",
      "constant": true
    },
    {
      "inputs": [],
      "name": "decimals",
      "outputs": [
        {
          "internalType": "uint8",
          "name": "",
          "type": "uint8"
        }
      ],
      "stateMutability": "view",
      "type": "function",
      "constant": true
    },
    {
      "inputs": [
        {
          "internalType": "address",
          "name": "spender",
          "type": "address"
        },
        {
          "internalType": "uint256",
          "name": "subtractedValue",
          "type": "uint256"
        }
      ],
      "name": "decreaseAllowance",
      "outputs": [
        {
          "internalType": "bool",
          "name": "",
          "type": "bool"
        }
      ],
      "stateMutability": "nonpayable",
      "type": "function"
    },
    {
      "inputs": [],
      "name": "devWallet",
      "outputs": [
        {
          "internalType": "address",
          "name": "",
          "type": "address"
        }
      ],
      "stateMutability": "view",
      "type": "function",
      "constant": true
    },
    {
      "inputs": [
        {
          "internalType": "address",
          "name": "spender",
          "type": "address"
        },
        {
          "internalType": "uint256",
          "name": "addedValue",
          "type": "uint256"
        }
      ],
      "name": "increaseAllowance",
      "outputs": [
        {
          "internalType": "bool",
          "name": "",
          "type": "bool"
        }
      ],
      "stateMutability": "nonpayable",
      "type": "function"
    },
    {
      "inputs": [],
      "name": "isToken0",
      "outputs": [
        {
          "internalType": "bool",
          "name": "",
          "type": "bool"
        }
      ],
      "stateMutability": "view",
      "type": "function",
      "constant": true
    },
    {
      "inputs": [],
      "name": "name",
      "outputs": [
        {
          "internalType": "string",
          "name": "",
          "type": "string"
        }
      ],
      "stateMutability": "view",
      "type": "function",
      "constant": true
    },
    {
      "inputs": [],
      "name": "owner",
      "outputs": [
        {
          "internalType": "address",
          "name": "",
          "type": "address"
        }
      ],
      "stateMutability": "view",
      "type": "function",
      "constant": true
    },
    {
      "inputs": [],
      "name": "pairFeedPrice",
      "outputs": [
        {
          "internalType": "address",
          "name": "",
          "type": "address"
        }
      ],
      "stateMutability": "view",
      "type": "function",
      "constant": true
    },
    {
      "inputs": [],
      "name": "rewardWallet",
      "outputs": [
        {
          "internalType": "address",
          "name": "",
          "type": "address"
        }
      ],
      "stateMutability": "view",
      "type": "function",
      "constant": true
    },
    {
      "inputs": [],
      "name": "state",
      "outputs": [
        {
          "internalType": "enum FleepToken.State",
          "name": "",
          "type": "uint8"
        }
      ],
      "stateMutability": "view",
      "type": "function",
      "constant": true
    },
    {
      "inputs": [],
      "name": "symbol",
      "outputs": [
        {
          "internalType": "string",
          "name": "",
          "type": "string"
        }
      ],
      "stateMutability": "view",
      "type": "function",
      "constant": true
    },
    {
      "inputs": [],
      "name": "totalSupply",
      "outputs": [
        {
          "internalType": "uint256",
          "name": "",
          "type": "uint256"
        }
      ],
      "stateMutability": "view",
      "type": "function",
      "constant": true
    },
    {
      "inputs": [],
      "name": "useFeedPrice",
      "outputs": [
        {
          "internalType": "bool",
          "name": "",
          "type": "bool"
        }
      ],
      "stateMutability": "view",
      "type": "function",
      "constant": true
    },
    {
      "inputs": [],
      "name": "getState",
      "outputs": [
        {
          "internalType": "enum FleepToken.State",
          "name": "",
          "type": "uint8"
        }
      ],
      "stateMutability": "view",
      "type": "function",
      "constant": true
    },
    {
      "inputs": [],
      "name": "enableToken",
      "outputs": [],
      "stateMutability": "nonpayable",
      "type": "function"
    },
    {
      "inputs": [],
      "name": "disableToken",
      "outputs": [],
      "stateMutability": "nonpayable",
      "type": "function"
    },
    {
      "inputs": [
        {
          "internalType": "uint256",
          "name": "_value",
          "type": "uint256"
        }
      ],
      "name": "setState",
      "outputs": [],
      "stateMutability": "nonpayable",
      "type": "function"
    },
    {
      "inputs": [
        {
          "internalType": "address",
          "name": "newOwner",
          "type": "address"
        }
      ],
      "name": "transferOwnership",
      "outputs": [],
      "stateMutability": "nonpayable",
      "type": "function"
    },
    {
      "inputs": [
        {
          "internalType": "address",
          "name": "recipient",
          "type": "address"
        },
        {
          "internalType": "uint256",
          "name": "amount",
          "type": "uint256"
        }
      ],
      "name": "transfer",
      "outputs": [
        {
          "internalType": "bool",
          "name": "",
          "type": "bool"
        }
      ],
      "stateMutability": "nonpayable",
      "type": "function"
    },
    {
      "inputs": [
        {
          "internalType": "address",
          "name": "sender",
          "type": "address"
        },
        {
          "internalType": "address",
          "name": "recipient",
          "type": "address"
        },
        {
          "internalType": "uint256",
          "name": "amount",
          "type": "uint256"
        }
      ],
      "name": "transferFrom",
      "outputs": [
        {
          "internalType": "bool",
          "name": "",
          "type": "bool"
        }
      ],
      "stateMutability": "nonpayable",
      "type": "function"
    },
    {
      "inputs": [
        {
          "internalType": "uint256",
          "name": "_initialTimestamp",
          "type": "uint256"
        }
      ],
      "name": "changeInitialTimestamp",
      "outputs": [
        {
          "internalType": "bool",
          "name": "",
          "type": "bool"
        }
      ],
      "stateMutability": "nonpayable",
      "type": "function"
    },
    {
      "inputs": [
        {
          "internalType": "uint256",
          "name": "_initialPrice",
          "type": "uint256"
        }
      ],
      "name": "changeInitialPeggedPrice",
      "outputs": [
        {
          "internalType": "bool",
          "name": "",
          "type": "bool"
        }
      ],
      "stateMutability": "nonpayable",
      "type": "function"
    },
    {
      "inputs": [
        {
          "internalType": "bool",
          "name": "_useFeedPrice",
          "type": "bool"
        }
      ],
      "name": "setUseFeedPrice",
      "outputs": [],
      "stateMutability": "nonpayable",
      "type": "function"
    },
    {
      "inputs": [
        {
          "internalType": "address",
          "name": "_pairFeedPrice",
          "type": "address"
        },
        {
          "internalType": "bool",
          "name": "_isToken0",
          "type": "bool"
        }
      ],
      "name": "setPairForPrice",
      "outputs": [],
      "stateMutability": "nonpayable",
      "type": "function"
    },
    {
      "inputs": [
        {
          "internalType": "address",
          "name": "_address",
          "type": "address"
        }
      ],
      "name": "addToApplyTaxList",
      "outputs": [],
      "stateMutability": "nonpayable",
      "type": "function"
    },
    {
      "inputs": [
        {
          "internalType": "address",
          "name": "_address",
          "type": "address"
        }
      ],
      "name": "removeApplyTaxList",
      "outputs": [],
      "stateMutability": "nonpayable",
      "type": "function"
    },
    {
      "inputs": [
        {
          "internalType": "address",
          "name": "_address",
          "type": "address"
        }
      ],
      "name": "isApplyTaxList",
      "outputs": [
        {
          "internalType": "bool",
          "name": "",
          "type": "bool"
        }
      ],
      "stateMutability": "view",
      "type": "function",
      "constant": true
    },
    {
      "inputs": [
        {
          "internalType": "address",
          "name": "_address",
          "type": "address"
        }
      ],
      "name": "addToIgnoreTaxList",
      "outputs": [],
      "stateMutability": "nonpayable",
      "type": "function"
    },
    {
      "inputs": [
        {
          "internalType": "address",
          "name": "_address",
          "type": "address"
        }
      ],
      "name": "removeIgnoreTaxList",
      "outputs": [],
      "stateMutability": "nonpayable",
      "type": "function"
    },
    {
      "inputs": [
        {
          "internalType": "address",
          "name": "_address",
          "type": "address"
        }
      ],
      "name": "isIgnoreTaxList",
      "outputs": [
        {
          "internalType": "bool",
          "name": "",
          "type": "bool"
        }
      ],
      "stateMutability": "view",
      "type": "function",
      "constant": true
    },
    {
      "inputs": [],
      "name": "getTokenPrice",
      "outputs": [
        {
          "internalType": "uint256",
          "name": "",
          "type": "uint256"
        }
      ],
      "stateMutability": "view",
      "type": "function",
      "constant": true
    },
    {
      "inputs": [
        {
          "internalType": "address",
          "name": "_pairAddress",
          "type": "address"
        },
        {
          "internalType": "bool",
          "name": "_isToken0",
          "type": "bool"
        },
        {
          "internalType": "uint256",
          "name": "amount",
          "type": "uint256"
        }
      ],
      "name": "getTokenPrice",
      "outputs": [
        {
          "internalType": "uint256",
          "name": "",
          "type": "uint256"
        }
      ],
      "stateMutability": "view",
      "type": "function",
      "constant": true
    },
    {
      "inputs": [],
      "name": "getMaxSellable",
      "outputs": [
        {
          "internalType": "uint256",
          "name": "",
          "type": "uint256"
        }
      ],
      "stateMutability": "view",
      "type": "function",
      "constant": true
    },
    {
      "inputs": [
        {
          "internalType": "uint256",
          "name": "_A",
          "type": "uint256"
        },
        {
          "internalType": "uint256",
          "name": "_perA",
          "type": "uint256"
        },
        {
          "internalType": "uint256",
          "name": "_B",
          "type": "uint256"
        },
        {
          "internalType": "uint256",
          "name": "_perB",
          "type": "uint256"
        }
      ],
      "name": "setRate",
      "outputs": [],
      "stateMutability": "nonpayable",
      "type": "function"
    },
    {
      "inputs": [],
      "name": "getPeggedPrice",
      "outputs": [
        {
          "internalType": "uint256",
          "name": "",
          "type": "uint256"
        }
      ],
      "stateMutability": "view",
      "type": "function",
      "constant": true
    },
    {
      "inputs": [],
      "name": "getDeviant",
      "outputs": [
        {
          "internalType": "int256",
          "name": "",
          "type": "int256"
        }
      ],
      "stateMutability": "view",
      "type": "function",
      "constant": true
    },
    {
      "inputs": [],
      "name": "getTaxPercent",
      "outputs": [
        {
          "internalType": "uint256",
          "name": "",
          "type": "uint256"
        },
        {
          "internalType": "uint256",
          "name": "",
          "type": "uint256"
        }
      ],
      "stateMutability": "view",
      "type": "function",
      "constant": true
    },
    {
      "inputs": [
        {
          "internalType": "int256",
          "name": "deviant",
          "type": "int256"
        }
      ],
      "name": "getTaxPercent",
      "outputs": [
        {
          "internalType": "uint256",
          "name": "",
          "type": "uint256"
        },
        {
          "internalType": "uint256",
          "name": "",
          "type": "uint256"
        }
      ],
      "stateMutability": "view",
      "type": "function",
      "constant": true
    },
    {
      "inputs": [],
      "name": "getRewardPercent",
      "outputs": [
        {
          "internalType": "uint256",
          "name": "",
          "type": "uint256"
        },
        {
          "internalType": "uint256",
          "name": "",
          "type": "uint256"
        }
      ],
      "stateMutability": "view",
      "type": "function",
      "constant": true
    },
    {
      "inputs": [
        {
          "internalType": "int256",
          "name": "deviant",
          "type": "int256"
        }
      ],
      "name": "getRewardPercent",
      "outputs": [
        {
          "internalType": "uint256",
          "name": "",
          "type": "uint256"
        },
        {
          "internalType": "uint256",
          "name": "",
          "type": "uint256"
        }
      ],
      "stateMutability": "view",
      "type": "function",
      "constant": true
    },
    {
      "inputs": [],
      "name": "getBuyerRewardPercent",
      "outputs": [
        {
          "internalType": "uint256",
          "name": "",
          "type": "uint256"
        },
        {
          "internalType": "uint256",
          "name": "",
          "type": "uint256"
        }
      ],
      "stateMutability": "view",
      "type": "function",
      "constant": true
    },
    {
      "inputs": [
        {
          "internalType": "int256",
          "name": "deviant",
          "type": "int256"
        }
      ],
      "name": "getBuyerRewardPercent",
      "outputs": [
        {
          "internalType": "uint256",
          "name": "",
          "type": "uint256"
        },
        {
          "internalType": "uint256",
          "name": "",
          "type": "uint256"
        }
      ],
      "stateMutability": "view",
      "type": "function",
      "constant": true
    }
  ],
  "bytecode": "0x60806040526000600560006101000a81548160ff0219169083600181111562000051577f4e487b7100000000000000000000000000000000000000000000000000000000600052602160045260246000fd5b021790555033600560016101000a81548173ffffffffffffffffffffffffffffffffffffffff021916908373ffffffffffffffffffffffffffffffffffffffff1602179055506000600a60006101000a81548160ff02191690831515021790555062015180600d556000600e556001600f5560006010556001601155600560125560405162005972380380620059728339818101604052810190620000f79190620006ed565b6040518060400160405280600b81526020017f466c65657020546f6b656e0000000000000000000000000000000000000000008152506040518060400160405280600581526020017f464c45455000000000000000000000000000000000000000000000000000000081525081600390805190602001906200017b9291906200060f565b508060049080519060200190620001949291906200060f565b50505083600660006101000a81548173ffffffffffffffffffffffffffffffffffffffff021916908373ffffffffffffffffffffffffffffffffffffffff16021790555082600760006101000a81548173ffffffffffffffffffffffffffffffffffffffff021916908373ffffffffffffffffffffffffffffffffffffffff16021790555062000258336200022e6200048360201b60201c565b600a6200023c919062000899565b620927c06200024c9190620009d6565b6200048c60201b60201c565b620002b9600660009054906101000a900473ffffffffffffffffffffffffffffffffffffffff166200028f6200048360201b60201c565b600a6200029d919062000899565b62030d40620002ad9190620009d6565b6200048c60201b60201c565b6200031a600760009054906101000a900473ffffffffffffffffffffffffffffffffffffffff16620002f06200048360201b60201c565b600a620002fe919062000899565b62030d406200030e9190620009d6565b6200048c60201b60201c565b6000600a60016101000a81548173ffffffffffffffffffffffffffffffffffffffff021916908373ffffffffffffffffffffffffffffffffffffffff1602179055506000600a60156101000a81548160ff02191690831515021790555081600881905550806009819055506001600c6000600660009054906101000a900473ffffffffffffffffffffffffffffffffffffffff1673ffffffffffffffffffffffffffffffffffffffff1673ffffffffffffffffffffffffffffffffffffffff16815260200190815260200160002060006101000a81548160ff0219169083151502179055506001600c6000600760009054906101000a900473ffffffffffffffffffffffffffffffffffffffff1673ffffffffffffffffffffffffffffffffffffffff1673ffffffffffffffffffffffffffffffffffffffff16815260200190815260200160002060006101000a81548160ff0219169083151502179055505050505062000b80565b60006012905090565b600073ffffffffffffffffffffffffffffffffffffffff168273ffffffffffffffffffffffffffffffffffffffff161415620004ff576040517f08c379a0000000000000000000000000000000000000000000000000000000008152600401620004f69062000791565b60405180910390fd5b62000513600083836200060560201b60201c565b8060026000828254620005279190620007e1565b92505081905550806000808473ffffffffffffffffffffffffffffffffffffffff1673ffffffffffffffffffffffffffffffffffffffff16815260200190815260200160002060008282546200057e9190620007e1565b925050819055508173ffffffffffffffffffffffffffffffffffffffff16600073ffffffffffffffffffffffffffffffffffffffff167fddf252ad1be2c89b69c2b068fc378daa952ba7f163c4a11628f55a4df523b3ef83604051620005e59190620007b3565b60405180910390a362000601600083836200060a60201b60201c565b5050565b505050565b505050565b8280546200061d9062000a82565b90600052602060002090601f0160209004810192826200064157600085556200068d565b82601f106200065c57805160ff19168380011785556200068d565b828001600101855582156200068d579182015b828111156200068c5782518255916020019190600101906200066f565b5b5090506200069c9190620006a0565b5090565b5b80821115620006bb576000816000905550600101620006a1565b5090565b600081519050620006d08162000b4c565b92915050565b600081519050620006e78162000b66565b92915050565b600080600080608085870312156200070457600080fd5b60006200071487828801620006bf565b94505060206200072787828801620006bf565b93505060406200073a87828801620006d6565b92505060606200074d87828801620006d6565b91505092959194509250565b600062000768601f83620007d0565b9150620007758262000b23565b602082019050919050565b6200078b8162000a6b565b82525050565b60006020820190508181036000830152620007ac8162000759565b9050919050565b6000602082019050620007ca600083018462000780565b92915050565b600082825260208201905092915050565b6000620007ee8262000a6b565b9150620007fb8362000a6b565b9250827fffffffffffffffffffffffffffffffffffffffffffffffffffffffffffffffff0382111562000833576200083262000ab8565b5b828201905092915050565b6000808291508390505b6001851115620008905780860481111562000868576200086762000ab8565b5b6001851615620008785780820291505b8081029050620008888562000b16565b945062000848565b94509492505050565b6000620008a68262000a6b565b9150620008b38362000a75565b9250620008e27fffffffffffffffffffffffffffffffffffffffffffffffffffffffffffffffff8484620008ea565b905092915050565b600082620008fc5760019050620009cf565b816200090c5760009050620009cf565b8160018114620009255760028114620009305762000966565b6001915050620009cf565b60ff84111562000945576200094462000ab8565b5b8360020a9150848211156200095f576200095e62000ab8565b5b50620009cf565b5060208310610133831016604e8410600b8410161715620009a05782820a9050838111156200099a576200099962000ab8565b5b620009cf565b620009af84848460016200083e565b92509050818404811115620009c957620009c862000ab8565b5b81810290505b9392505050565b6000620009e38262000a6b565b9150620009f08362000a6b565b9250817fffffffffffffffffffffffffffffffffffffffffffffffffffffffffffffffff048311821515161562000a2c5762000a2b62000ab8565b5b828202905092915050565b600062000a448262000a4b565b9050919050565b600073ffffffffffffffffffffffffffffffffffffffff82169050919050565b6000819050919050565b600060ff82169050919050565b6000600282049050600182168062000a9b57607f821691505b6020821081141562000ab25762000ab162000ae7565b5b50919050565b7f4e487b7100000000000000000000000000000000000000000000000000000000600052601160045260246000fd5b7f4e487b7100000000000000000000000000000000000000000000000000000000600052602260045260246000fd5b60008160011c9050919050565b7f45524332303a206d696e7420746f20746865207a65726f206164647265737300600082015250565b62000b578162000a37565b811462000b6357600080fd5b50565b62000b718162000a6b565b811462000b7d57600080fd5b50565b614de28062000b906000396000f3fe608060405234801561001057600080fd5b506004361061027f5760003560e01c80638e3602531161015c578063c19d93fb116100ce578063e648862711610087578063e6488627146107d0578063e9085fb814610801578063f2fde38b14610832578063f30ea6f41461084e578063fb75b2c71461086a578063feac0f55146108885761027f565b8063c19d93fb146106e6578063c43a34d614610704578063dcf93f3214610722578063dd62ed3e14610740578063e0e9f79a14610770578063e13769f4146107a05761027f565b8063a3d7a9e411610120578063a3d7a9e414610612578063a457c2d71461062e578063a51af24b1461065e578063a9059cbb1461067c578063a9e966b7146106ac578063bcbd1128146106c85761027f565b80638e3602531461058f5780638ea5220f1461059957806395d89b41146105b757806398a9cfac146105d5578063a3201e25146105f45761027f565b8063313ce567116101f55780634b94f50e116101b95780634b94f50e146104a45780634c90d0ea146104c257806370a08231146104f25780637cbaea64146105225780638789820d146105415780638da5cb5b146105715761027f565b8063313ce567146103fd57806331518fa61461041b578063395093511461044c5780633e0f966d1461047c5780633f6447fa146104865761027f565b806318160ddd1161024757806318160ddd146103295780631865c57d1461034757806319b379e9146103655780631f40ecfd1461039557806323b872dd146103b1578063267f271a146103e15761027f565b80630317045514610284578063056dc992146102a057806306fdde03146102bc578063095ea7b3146102da5780630e8622d31461030a575b600080fd5b61029e60048036038101906102999190613b50565b6108a4565b005b6102ba60048036038101906102b59190613a73565b610993565b005b6102c4610a7e565b6040516102d19190614033565b60405180910390f35b6102f460048036038101906102ef9190613bdb565b610b10565b6040516103019190613fe2565b60405180910390f35b610312610b2e565b604051610320929190614210565b60405180910390f35b610331610b4f565b60405161033e91906141f5565b60405180910390f35b61034f610b59565b60405161035c9190613ffd565b60405180910390f35b61037f600480360381019061037a9190613cb8565b610b70565b60405161038c9190613fe2565b60405180910390f35b6103af60048036038101906103aa9190613c17565b610c12565b005b6103cb60048036038101906103c69190613b01565b610cbf565b6040516103d89190613fe2565b60405180910390f35b6103fb60048036038101906103f69190613a73565b611249565b005b610405611334565b6040516104129190614239565b60405180910390f35b61043560048036038101906104309190613c40565b61133d565b604051610443929190614210565b60405180910390f35b61046660048036038101906104619190613bdb565b611535565b6040516104739190613fe2565b60405180910390f35b6104846115e1565b005b61048e6116c4565b60405161049b91906141f5565b60405180910390f35b6104ac61173e565b6040516104b991906141f5565b60405180910390f35b6104dc60048036038101906104d79190613cb8565b6117bc565b6040516104e99190613fe2565b60405180910390f35b61050c60048036038101906105079190613a73565b61185e565b60405161051991906141f5565b60405180910390f35b61052a6118a6565b604051610538929190614210565b60405180910390f35b61055b60048036038101906105569190613a73565b6118c7565b6040516105689190613fe2565b60405180910390f35b61057961191d565b6040516105869190613fc7565b60405180910390f35b610597611943565b005b6105a1611a26565b6040516105ae9190613fc7565b60405180910390f35b6105bf611a4c565b6040516105cc9190614033565b60405180910390f35b6105dd611ade565b6040516105eb929190614210565b60405180910390f35b6105fc611aff565b6040516106099190614018565b60405180910390f35b61062c60048036038101906106279190613ce1565b611b77565b005b61064860048036038101906106439190613bdb565b611c3e565b6040516106559190613fe2565b60405180910390f35b610666611d29565b6040516106739190613fc7565b60405180910390f35b61069660048036038101906106919190613bdb565b611d4f565b6040516106a39190613fe2565b60405180910390f35b6106c660048036038101906106c19190613cb8565b6122e2565b005b6106d0612488565b6040516106dd9190613fe2565b60405180910390f35b6106ee61249b565b6040516106fb9190613ffd565b60405180910390f35b61070c6124ae565b60405161071991906141f5565b60405180910390f35b61072a6125ab565b6040516107379190613fe2565b60405180910390f35b61075a60048036038101906107559190613ac5565b6125be565b60405161076791906141f5565b60405180910390f35b61078a60048036038101906107859190613a73565b612645565b6040516107979190613fe2565b60405180910390f35b6107ba60048036038101906107b59190613b8c565b61269b565b6040516107c791906141f5565b60405180910390f35b6107ea60048036038101906107e59190613c40565b6126c8565b6040516107f8929190614210565b60405180910390f35b61081b60048036038101906108169190613c40565b6128c0565b604051610829929190614210565b60405180910390f35b61084c60048036038101906108479190613a73565b612aac565b005b61086860048036038101906108639190613a73565b612c36565b005b610872612d21565b60405161087f9190613fc7565b60405180910390f35b6108a2600480360381019061089d9190613a73565b612d47565b005b600560019054906101000a900473ffffffffffffffffffffffffffffffffffffffff1673ffffffffffffffffffffffffffffffffffffffff163373ffffffffffffffffffffffffffffffffffffffff1614610934576040517f08c379a000000000000000000000000000000000000000000000000000000000815260040161092b90614195565b60405180910390fd5b81600a60016101000a81548173ffffffffffffffffffffffffffffffffffffffff021916908373ffffffffffffffffffffffffffffffffffffffff16021790555080600a60156101000a81548160ff0219169083151502179055505050565b600560019054906101000a900473ffffffffffffffffffffffffffffffffffffffff1673ffffffffffffffffffffffffffffffffffffffff163373ffffffffffffffffffffffffffffffffffffffff1614610a23576040517f08c379a0000000000000000000000000000000000000000000000000000000008152600401610a1a90614195565b60405180910390fd5b6001600b60008373ffffffffffffffffffffffffffffffffffffffff1673ffffffffffffffffffffffffffffffffffffffff16815260200190815260200160002060006101000a81548160ff02191690831515021790555050565b606060038054610a8d90614837565b80601f0160208091040260200160405190810160405280929190818152602001828054610ab990614837565b8015610b065780601f10610adb57610100808354040283529160200191610b06565b820191906000526020600020905b815481529060010190602001808311610ae957829003601f168201915b5050505050905090565b6000610b24610b1d612e32565b8484612e3a565b6001905092915050565b6000806000610b3b611aff565b9050610b468161133d565b92509250509091565b6000600254905090565b6000600560009054906101000a900460ff16905090565b6000600560019054906101000a900473ffffffffffffffffffffffffffffffffffffffff1673ffffffffffffffffffffffffffffffffffffffff163373ffffffffffffffffffffffffffffffffffffffff1614610c02576040517f08c379a0000000000000000000000000000000000000000000000000000000008152600401610bf990614195565b60405180910390fd5b8160098190555060019050919050565b600560019054906101000a900473ffffffffffffffffffffffffffffffffffffffff1673ffffffffffffffffffffffffffffffffffffffff163373ffffffffffffffffffffffffffffffffffffffff1614610ca2576040517f08c379a0000000000000000000000000000000000000000000000000000000008152600401610c9990614195565b60405180910390fd5b80600a60006101000a81548160ff02191690831515021790555050565b600080829050600085905060011515600c60008373ffffffffffffffffffffffffffffffffffffffff1673ffffffffffffffffffffffffffffffffffffffff16815260200190815260200160002060009054906101000a900460ff1615151480610d79575060011515600c60008773ffffffffffffffffffffffffffffffffffffffff1673ffffffffffffffffffffffffffffffffffffffff16815260200190815260200160002060009054906101000a900460ff161515145b15610d8357611173565b60011515600b60008373ffffffffffffffffffffffffffffffffffffffff1673ffffffffffffffffffffffffffffffffffffffff16815260200190815260200160002060009054906101000a900460ff161515148015610e33575060011515600b60008773ffffffffffffffffffffffffffffffffffffffff1673ffffffffffffffffffffffffffffffffffffffff16815260200190815260200160002060009054906101000a900460ff161515145b15610e3d57611172565b60011515600b60008373ffffffffffffffffffffffffffffffffffffffff1673ffffffffffffffffffffffffffffffffffffffff16815260200190815260200160002060009054906101000a900460ff1615151415610f2557600a60009054906101000a900460ff1615610f20576000610eb5611aff565b9050600080610ec3836128c0565b915091506000606482610ed69190614634565b8389610ee29190614634565b610eec9190614330565b9050610f1b600760009054906101000a900473ffffffffffffffffffffffffffffffffffffffff168a83613005565b505050505b611171565b60011515600b60008773ffffffffffffffffffffffffffffffffffffffff1673ffffffffffffffffffffffffffffffffffffffff16815260200190815260200160002060009054906101000a900460ff161515141561116f57600a60009054906101000a900460ff161561116a57610f9b6116c4565b821115610fdd576040517f08c379a0000000000000000000000000000000000000000000000000000000008152600401610fd490614115565b60405180910390fd5b6000610fe7611aff565b9050600080610ff5836126c8565b915091506000806110058561133d565b9150915060006064846110189190614634565b858b6110249190614634565b61102e9190614330565b9050600060648361103f9190614634565b848c61104b9190614634565b6110559190614330565b9050818b6110639190614270565b61106c8e61185e565b10156110ad576040517f08c379a00000000000000000000000000000000000000000000000000000000081526004016110a4906140b5565b60405180910390fd5b8082116110ef576040517f08c379a00000000000000000000000000000000000000000000000000000000081526004016110e6906141d5565b60405180910390fd5b81896110fb9190614722565b985061112a8d600760009054906101000a900473ffffffffffffffffffffffffffffffffffffffff1683613005565b6111628d600660009054906101000a900473ffffffffffffffffffffffffffffffffffffffff16838561115d9190614722565b613005565b505050505050505b611170565b5b5b5b5b60011515600c60008373ffffffffffffffffffffffffffffffffffffffff1673ffffffffffffffffffffffffffffffffffffffff16815260200190815260200160002060009054906101000a900460ff16151514158015611225575060011515600c60008773ffffffffffffffffffffffffffffffffffffffff1673ffffffffffffffffffffffffffffffffffffffff16815260200190815260200160002060009054906101000a900460ff16151514155b1561123357611232613286565b5b61123e868686613349565b925050509392505050565b600560019054906101000a900473ffffffffffffffffffffffffffffffffffffffff1673ffffffffffffffffffffffffffffffffffffffff163373ffffffffffffffffffffffffffffffffffffffff16146112d9576040517f08c379a00000000000000000000000000000000000000000000000000000000081526004016112d090614195565b60405180910390fd5b6001600c60008373ffffffffffffffffffffffffffffffffffffffff1673ffffffffffffffffffffffffffffffffffffffff16815260200190815260200160002060006101000a81548160ff02191690831515021790555050565b60006012905090565b600080600083121561143d5760008361135590614869565b90506000601254826113679190614330565b90506000601254826113799190614634565b836113849190614722565b9050600080670de0b6b3a76400009050600091505b838210156113d85764174876e800641ff6c5d2b6826113b89190614634565b6113c29190614330565b90506001826113d19190614270565b9150611399565b8262016ea36113e791906143b4565b83620186a06113f691906143b4565b826114019190614634565b61140b9190614330565b90506107d0655af3107a4000826114229190614330565b61142c9190614270565b612710965096505050505050611530565b60008390506000601254826114529190614330565b90506000601254826114649190614634565b8361146f9190614722565b9050600080670de0b6b3a76400009050600091505b838210156114cf576a084595161401484a0000006a06067b3acd3efe71637c13826114af9190614634565b6114b99190614330565b90506001826114c89190614270565b9150611484565b82620186a06114de91906143b4565b8362016ea36114ed91906143b4565b826114f89190614634565b6115029190614330565b90506107d0655af3107a4000826115199190614330565b6115239190614270565b6127109650965050505050505b915091565b60006115d7611542612e32565b848460016000611550612e32565b73ffffffffffffffffffffffffffffffffffffffff1673ffffffffffffffffffffffffffffffffffffffff16815260200190815260200160002060008873ffffffffffffffffffffffffffffffffffffffff1673ffffffffffffffffffffffffffffffffffffffff168152602001908152602001600020546115d29190614270565b612e3a565b6001905092915050565b600560019054906101000a900473ffffffffffffffffffffffffffffffffffffffff1673ffffffffffffffffffffffffffffffffffffffff163373ffffffffffffffffffffffffffffffffffffffff1614611671576040517f08c379a000000000000000000000000000000000000000000000000000000000815260040161166890614195565b60405180910390fd5b6000600560006101000a81548160ff021916908360018111156116bd577f4e487b7100000000000000000000000000000000000000000000000000000000600052602160045260246000fd5b0217905550565b6000600a60159054906101000a900460ff161561170d57611706600a60019054906101000a900473ffffffffffffffffffffffffffffffffffffffff16613441565b905061173b565b611738600a60019054906101000a900473ffffffffffffffffffffffffffffffffffffffff166134fd565b90505b90565b6000600a60159054906101000a900460ff161561178957611782600a60019054906101000a900473ffffffffffffffffffffffffffffffffffffffff1660016135b9565b90506117b9565b6117b6600a60019054906101000a900473ffffffffffffffffffffffffffffffffffffffff16600161379e565b90505b90565b6000600560019054906101000a900473ffffffffffffffffffffffffffffffffffffffff1673ffffffffffffffffffffffffffffffffffffffff163373ffffffffffffffffffffffffffffffffffffffff161461184e576040517f08c379a000000000000000000000000000000000000000000000000000000000815260040161184590614195565b60405180910390fd5b8160088190555060019050919050565b60008060008373ffffffffffffffffffffffffffffffffffffffff1673ffffffffffffffffffffffffffffffffffffffff168152602001908152602001600020549050919050565b60008060006118b3611aff565b90506118be816128c0565b92509250509091565b6000600c60008373ffffffffffffffffffffffffffffffffffffffff1673ffffffffffffffffffffffffffffffffffffffff16815260200190815260200160002060009054906101000a900460ff169050919050565b600560019054906101000a900473ffffffffffffffffffffffffffffffffffffffff1681565b600560019054906101000a900473ffffffffffffffffffffffffffffffffffffffff1673ffffffffffffffffffffffffffffffffffffffff163373ffffffffffffffffffffffffffffffffffffffff16146119d3576040517f08c379a00000000000000000000000000000000000000000000000000000000081526004016119ca90614195565b60405180910390fd5b6001600560006101000a81548160ff02191690836001811115611a1f577f4e487b7100000000000000000000000000000000000000000000000000000000600052602160045260246000fd5b0217905550565b600660009054906101000a900473ffffffffffffffffffffffffffffffffffffffff1681565b606060048054611a5b90614837565b80601f0160208091040260200160405190810160405280929190818152602001828054611a8790614837565b8015611ad45780601f10611aa957610100808354040283529160200191611ad4565b820191906000526020600020905b815481529060010190602001808311611ab757829003601f168201915b5050505050905090565b6000806000611aeb611aff565b9050611af6816126c8565b92509250509091565b600080611b0a6124ae565b90506000611b4b600a60019054906101000a900473ffffffffffffffffffffffffffffffffffffffff16600a60159054906101000a900460ff16600161269b565b90508160648383611b5c919061468e565b611b66919061451d565b611b7091906142c6565b9250505090565b600560019054906101000a900473ffffffffffffffffffffffffffffffffffffffff1673ffffffffffffffffffffffffffffffffffffffff163373ffffffffffffffffffffffffffffffffffffffff1614611c07576040517f08c379a0000000000000000000000000000000000000000000000000000000008152600401611bfe90614195565b60405180910390fd5b611c0f6124ae565b6009819055504260088190555083600e8190555082600f81905550816010819055508060118190555050505050565b60008060016000611c4d612e32565b73ffffffffffffffffffffffffffffffffffffffff1673ffffffffffffffffffffffffffffffffffffffff16815260200190815260200160002060008573ffffffffffffffffffffffffffffffffffffffff1673ffffffffffffffffffffffffffffffffffffffff16815260200190815260200160002054905082811015611d0a576040517f08c379a0000000000000000000000000000000000000000000000000000000008152600401611d01906141b5565b60405180910390fd5b611d1e611d15612e32565b85858403612e3a565b600191505092915050565b600a60019054906101000a900473ffffffffffffffffffffffffffffffffffffffff1681565b600080611d5a612e32565b9050600083905060011515600c60008473ffffffffffffffffffffffffffffffffffffffff1673ffffffffffffffffffffffffffffffffffffffff16815260200190815260200160002060009054906101000a900460ff1615151480611e10575060011515600c60008773ffffffffffffffffffffffffffffffffffffffff1673ffffffffffffffffffffffffffffffffffffffff16815260200190815260200160002060009054906101000a900460ff161515145b15611e1a57612204565b60011515600b60008473ffffffffffffffffffffffffffffffffffffffff1673ffffffffffffffffffffffffffffffffffffffff16815260200190815260200160002060009054906101000a900460ff161515148015611eca575060011515600b60008773ffffffffffffffffffffffffffffffffffffffff1673ffffffffffffffffffffffffffffffffffffffff16815260200190815260200160002060009054906101000a900460ff161515145b15611ed457612203565b60011515600b60008473ffffffffffffffffffffffffffffffffffffffff1673ffffffffffffffffffffffffffffffffffffffff16815260200190815260200160002060009054906101000a900460ff1615151415611fbc57600a60009054906101000a900460ff1615611fb7576000611f4c611aff565b9050600080611f5a836128c0565b915091506000606482611f6d9190614634565b8389611f799190614634565b611f839190614330565b9050611fb2600760009054906101000a900473ffffffffffffffffffffffffffffffffffffffff168a83613005565b505050505b612202565b60011515600b60008773ffffffffffffffffffffffffffffffffffffffff1673ffffffffffffffffffffffffffffffffffffffff16815260200190815260200160002060009054906101000a900460ff161515141561220057600a60009054906101000a900460ff16156121fb576120326116c4565b811115612074576040517f08c379a000000000000000000000000000000000000000000000000000000000815260040161206b90614115565b60405180910390fd5b600061207e611aff565b905060008061208c836126c8565b9150915060008061209c8561133d565b9150915060006064846120af9190614634565b858b6120bb9190614634565b6120c59190614330565b905060006064836120d69190614634565b848c6120e29190614634565b6120ec9190614330565b9050818811612130576040517f08c379a0000000000000000000000000000000000000000000000000000000008152600401612127906140d5565b60405180910390fd5b808211612172576040517f08c379a0000000000000000000000000000000000000000000000000000000008152600401612169906141d5565b60405180910390fd5b818861217e9190614722565b97506121b461218b612e32565b600760009054906101000a900473ffffffffffffffffffffffffffffffffffffffff1683613005565b6121f36121bf612e32565b600660009054906101000a900473ffffffffffffffffffffffffffffffffffffffff1683856121ee9190614722565b613005565b505050505050505b612201565b5b5b5b5b60011515600c60008473ffffffffffffffffffffffffffffffffffffffff1673ffffffffffffffffffffffffffffffffffffffff16815260200190815260200160002060009054906101000a900460ff161515141580156122b6575060011515600c60008773ffffffffffffffffffffffffffffffffffffffff1673ffffffffffffffffffffffffffffffffffffffff16815260200190815260200160002060009054906101000a900460ff16151514155b156122c4576122c3613286565b5b6122d66122cf612e32565b8683613005565b60019250505092915050565b600560019054906101000a900473ffffffffffffffffffffffffffffffffffffffff1673ffffffffffffffffffffffffffffffffffffffff163373ffffffffffffffffffffffffffffffffffffffff1614612372576040517f08c379a000000000000000000000000000000000000000000000000000000000815260040161236990614195565b60405180910390fd5b806001808111156123ac577f4e487b7100000000000000000000000000000000000000000000000000000000600052602160045260246000fd5b10156123b757600080fd5b80600060018111156123f2577f4e487b7100000000000000000000000000000000000000000000000000000000600052602160045260246000fd5b11156123fd57600080fd5b806001811115612436577f4e487b7100000000000000000000000000000000000000000000000000000000600052602160045260246000fd5b600560006101000a81548160ff02191690836001811115612480577f4e487b7100000000000000000000000000000000000000000000000000000000600052602160045260246000fd5b021790555050565b600a60009054906101000a900460ff1681565b600560009054906101000a900460ff1681565b60008042905060085481116124c8576009549150506125a8565b60006124ef600d54600854846124de9190614722565b6124e89190614330565b6001613989565b905060006002600f546125029190614634565b600e546001846125129190614270565b8461251b611334565b600a61252791906143ff565b6125319190614634565b61253b9190614634565b6125459190614634565b61254f9190614330565b6011546010548461255e611334565b600a61256a91906143ff565b6125749190614634565b61257e9190614634565b6125889190614330565b6009546125959190614270565b61259f9190614270565b90508093505050505b90565b600a60159054906101000a900460ff1681565b6000600160008473ffffffffffffffffffffffffffffffffffffffff1673ffffffffffffffffffffffffffffffffffffffff16815260200190815260200160002060008373ffffffffffffffffffffffffffffffffffffffff1673ffffffffffffffffffffffffffffffffffffffff16815260200190815260200160002054905092915050565b6000600b60008373ffffffffffffffffffffffffffffffffffffffff1673ffffffffffffffffffffffffffffffffffffffff16815260200190815260200160002060009054906101000a900460ff169050919050565b600082156126b4576126ad84836135b9565b90506126c1565b6126be848361379e565b90505b9392505050565b60008060008312156127c8576000836126e090614869565b90506000601254826126f29190614330565b90506000601254826127049190614634565b8361270f9190614722565b9050600080670de0b6b3a76400009050600091505b838210156127635764174876e800642047e50d09826127439190614634565b61274d9190614330565b905060018261275c9190614270565b9150612724565b8262016dea61277291906143b4565b83620186a061278191906143b4565b8261278c9190614634565b6127969190614330565b9050617530655af3107a4000826127ad9190614330565b6127b79190614270565b6127109650965050505050506128bb565b60008390506000601254826127dd9190614330565b90506000601254826127ef9190614634565b836127fa9190614722565b9050600080670de0b6b3a76400009050600091505b8382101561285a576a084595161401484a0000006a05f756f676dda68135bca08261283a9190614634565b6128449190614330565b90506001826128539190614270565b915061280f565b82620186a061286991906143b4565b8362016dea61287891906143b4565b826128839190614634565b61288d9190614330565b9050617530655af3107a4000826128a49190614330565b6128ae9190614270565b6127109650965050505050505b915091565b60008060008312156129be576000836128d890614869565b90506000601254826128ea9190614330565b90506000601254826128fc9190614634565b836129079190614722565b9050600080670de0b6b3a76400009050600091505b8382101561295b5764174876e800641e91d38e248261293b9190614634565b6129459190614330565b90506001826129549190614270565b915061291c565b826103b361296991906143b4565b836103e861297791906143b4565b826129829190614634565b61298c9190614330565b90506101f4655af3107a4000826129a39190614330565b6129ad9190614270565b612710965096505050505050612aa7565b60008390506000601254826129d39190614330565b90506000601254826129e59190614634565b836129f09190614722565b9050600080670de0b6b3a76400009050600091505b83821015612a485766038d7ea4c680006602b4b53165146382612a289190614634565b612a329190614330565b9050600182612a419190614270565b9150612a05565b826103e8612a5691906143b4565b836103b3612a6491906143b4565b82612a6f9190614634565b612a799190614330565b90506101f4655af3107a400082612a909190614330565b612a9a9190614270565b6127109650965050505050505b915091565b600560019054906101000a900473ffffffffffffffffffffffffffffffffffffffff1673ffffffffffffffffffffffffffffffffffffffff163373ffffffffffffffffffffffffffffffffffffffff1614612b3c576040517f08c379a0000000000000000000000000000000000000000000000000000000008152600401612b3390614195565b60405180910390fd5b600073ffffffffffffffffffffffffffffffffffffffff168173ffffffffffffffffffffffffffffffffffffffff161415612b7657600080fd5b8073ffffffffffffffffffffffffffffffffffffffff16600560019054906101000a900473ffffffffffffffffffffffffffffffffffffffff1673ffffffffffffffffffffffffffffffffffffffff167f8be0079c531659141344cd1fd0a4f28419497f9722a3daafe3b4186f6b6457e060405160405180910390a380600560016101000a81548173ffffffffffffffffffffffffffffffffffffffff021916908373ffffffffffffffffffffffffffffffffffffffff16021790555050565b600560019054906101000a900473ffffffffffffffffffffffffffffffffffffffff1673ffffffffffffffffffffffffffffffffffffffff163373ffffffffffffffffffffffffffffffffffffffff1614612cc6576040517f08c379a0000000000000000000000000000000000000000000000000000000008152600401612cbd90614195565b60405180910390fd5b6000600b60008373ffffffffffffffffffffffffffffffffffffffff1673ffffffffffffffffffffffffffffffffffffffff16815260200190815260200160002060006101000a81548160ff02191690831515021790555050565b600760009054906101000a900473ffffffffffffffffffffffffffffffffffffffff1681565b600560019054906101000a900473ffffffffffffffffffffffffffffffffffffffff1673ffffffffffffffffffffffffffffffffffffffff163373ffffffffffffffffffffffffffffffffffffffff1614612dd7576040517f08c379a0000000000000000000000000000000000000000000000000000000008152600401612dce90614195565b60405180910390fd5b6000600c60008373ffffffffffffffffffffffffffffffffffffffff1673ffffffffffffffffffffffffffffffffffffffff16815260200190815260200160002060006101000a81548160ff02191690831515021790555050565b600033905090565b600073ffffffffffffffffffffffffffffffffffffffff168373ffffffffffffffffffffffffffffffffffffffff161415612eaa576040517f08c379a0000000000000000000000000000000000000000000000000000000008152600401612ea190614155565b60405180910390fd5b600073ffffffffffffffffffffffffffffffffffffffff168273ffffffffffffffffffffffffffffffffffffffff161415612f1a576040517f08c379a0000000000000000000000000000000000000000000000000000000008152600401612f1190614075565b60405180910390fd5b80600160008573ffffffffffffffffffffffffffffffffffffffff1673ffffffffffffffffffffffffffffffffffffffff16815260200190815260200160002060008473ffffffffffffffffffffffffffffffffffffffff1673ffffffffffffffffffffffffffffffffffffffff168152602001908152602001600020819055508173ffffffffffffffffffffffffffffffffffffffff168373ffffffffffffffffffffffffffffffffffffffff167f8c5be1e5ebec7d5bd14f71427d1e84f3dd0314c0f7b2291e5b200ac8c7c3b92583604051612ff891906141f5565b60405180910390a3505050565b600073ffffffffffffffffffffffffffffffffffffffff168373ffffffffffffffffffffffffffffffffffffffff161415613075576040517f08c379a000000000000000000000000000000000000000000000000000000000815260040161306c90614135565b60405180910390fd5b600073ffffffffffffffffffffffffffffffffffffffff168273ffffffffffffffffffffffffffffffffffffffff1614156130e5576040517f08c379a00000000000000000000000000000000000000000000000000000000081526004016130dc90614055565b60405180910390fd5b6130f08383836139c1565b60008060008573ffffffffffffffffffffffffffffffffffffffff1673ffffffffffffffffffffffffffffffffffffffff16815260200190815260200160002054905081811015613176576040517f08c379a000000000000000000000000000000000000000000000000000000000815260040161316d90614095565b60405180910390fd5b8181036000808673ffffffffffffffffffffffffffffffffffffffff1673ffffffffffffffffffffffffffffffffffffffff16815260200190815260200160002081905550816000808573ffffffffffffffffffffffffffffffffffffffff1673ffffffffffffffffffffffffffffffffffffffff16815260200190815260200160002060008282546132099190614270565b925050819055508273ffffffffffffffffffffffffffffffffffffffff168473ffffffffffffffffffffffffffffffffffffffff167fddf252ad1be2c89b69c2b068fc378daa952ba7f163c4a11628f55a4df523b3ef8460405161326d91906141f5565b60405180910390a36132808484846139c6565b50505050565b6001808111156132bf577f4e487b7100000000000000000000000000000000000000000000000000000000600052602160045260246000fd5b600560009054906101000a900460ff166001811115613307577f4e487b7100000000000000000000000000000000000000000000000000000000600052602160045260246000fd5b14613347576040517f08c379a000000000000000000000000000000000000000000000000000000000815260040161333e90614175565b60405180910390fd5b565b6000613356848484613005565b6000600160008673ffffffffffffffffffffffffffffffffffffffff1673ffffffffffffffffffffffffffffffffffffffff16815260200190815260200160002060006133a1612e32565b73ffffffffffffffffffffffffffffffffffffffff1673ffffffffffffffffffffffffffffffffffffffff16815260200190815260200160002054905082811015613421576040517f08c379a0000000000000000000000000000000000000000000000000000000008152600401613418906140f5565b60405180910390fd5b6134358561342d612e32565b858403612e3a565b60019150509392505050565b60008082905060008173ffffffffffffffffffffffffffffffffffffffff16630902f1ac6040518163ffffffff1660e01b815260040160606040518083038186803b15801561348f57600080fd5b505afa1580156134a3573d6000803e3d6000fd5b505050506040513d601f19601f820116820180604052508101906134c79190613c69565b50506dffffffffffffffffffffffffffff1690506064600a826134ea9190614634565b6134f49190614330565b92505050919050565b60008082905060008173ffffffffffffffffffffffffffffffffffffffff16630902f1ac6040518163ffffffff1660e01b815260040160606040518083038186803b15801561354b57600080fd5b505afa15801561355f573d6000803e3d6000fd5b505050506040513d601f19601f820116820180604052508101906135839190613c69565b506dffffffffffffffffffffffffffff169150506064600a826135a69190614634565b6135b09190614330565b92505050919050565b60008083905060008173ffffffffffffffffffffffffffffffffffffffff16630dfe16816040518163ffffffff1660e01b815260040160206040518083038186803b15801561360757600080fd5b505afa15801561361b573d6000803e3d6000fd5b505050506040513d601f19601f8201168201806040525081019061363f9190613a9c565b90506000808373ffffffffffffffffffffffffffffffffffffffff16630902f1ac6040518163ffffffff1660e01b815260040160606040518083038186803b15801561368a57600080fd5b505afa15801561369e573d6000803e3d6000fd5b505050506040513d601f19601f820116820180604052508101906136c29190613c69565b506dffffffffffffffffffffffffffff1691506dffffffffffffffffffffffffffff169150818373ffffffffffffffffffffffffffffffffffffffff1663313ce5676040518163ffffffff1660e01b815260040160206040518083038186803b15801561372e57600080fd5b505afa158015613742573d6000803e3d6000fd5b505050506040513d601f19601f820116820180604052508101906137669190613d44565b600a61377291906143ff565b828861377e9190614634565b6137889190614634565b6137929190614330565b94505050505092915050565b60008083905060008173ffffffffffffffffffffffffffffffffffffffff1663d21220a76040518163ffffffff1660e01b815260040160206040518083038186803b1580156137ec57600080fd5b505afa158015613800573d6000803e3d6000fd5b505050506040513d601f19601f820116820180604052508101906138249190613a9c565b90506000808373ffffffffffffffffffffffffffffffffffffffff16630902f1ac6040518163ffffffff1660e01b815260040160606040518083038186803b15801561386f57600080fd5b505afa158015613883573d6000803e3d6000fd5b505050506040513d601f19601f820116820180604052508101906138a79190613c69565b506dffffffffffffffffffffffffffff1691506dffffffffffffffffffffffffffff16915060008373ffffffffffffffffffffffffffffffffffffffff1663313ce5676040518163ffffffff1660e01b815260040160206040518083038186803b15801561391457600080fd5b505afa158015613928573d6000803e3d6000fd5b505050506040513d601f19601f8201168201806040525081019061394c9190613d44565b600a61395891906143ff565b836139639190614634565b90508181886139729190614634565b61397c9190614330565b9550505050505092915050565b600081826001848661399b9190614270565b6139a59190614722565b6139af9190614330565b6139b99190614634565b905092915050565b505050565b505050565b6000813590506139da81614d0b565b92915050565b6000815190506139ef81614d0b565b92915050565b600081359050613a0481614d22565b92915050565b600081359050613a1981614d39565b92915050565b600081519050613a2e81614d50565b92915050565b600081359050613a4381614d67565b92915050565b600081519050613a5881614d7e565b92915050565b600081519050613a6d81614d95565b92915050565b600060208284031215613a8557600080fd5b6000613a93848285016139cb565b91505092915050565b600060208284031215613aae57600080fd5b6000613abc848285016139e0565b91505092915050565b60008060408385031215613ad857600080fd5b6000613ae6858286016139cb565b9250506020613af7858286016139cb565b9150509250929050565b600080600060608486031215613b1657600080fd5b6000613b24868287016139cb565b9350506020613b35868287016139cb565b9250506040613b4686828701613a34565b9150509250925092565b60008060408385031215613b6357600080fd5b6000613b71858286016139cb565b9250506020613b82858286016139f5565b9150509250929050565b600080600060608486031215613ba157600080fd5b6000613baf868287016139cb565b9350506020613bc0868287016139f5565b9250506040613bd186828701613a34565b9150509250925092565b60008060408385031215613bee57600080fd5b6000613bfc858286016139cb565b9250506020613c0d85828601613a34565b9150509250929050565b600060208284031215613c2957600080fd5b6000613c37848285016139f5565b91505092915050565b600060208284031215613c5257600080fd5b6000613c6084828501613a0a565b91505092915050565b600080600060608486031215613c7e57600080fd5b6000613c8c86828701613a1f565b9350506020613c9d86828701613a1f565b9250506040613cae86828701613a49565b9150509250925092565b600060208284031215613cca57600080fd5b6000613cd884828501613a34565b91505092915050565b60008060008060808587031215613cf757600080fd5b6000613d0587828801613a34565b9450506020613d1687828801613a34565b9350506040613d2787828801613a34565b9250506060613d3887828801613a34565b91505092959194509250565b600060208284031215613d5657600080fd5b6000613d6484828501613a5e565b91505092915050565b613d7681614756565b82525050565b613d8581614768565b82525050565b613d94816147f2565b82525050565b613da381614787565b82525050565b6000613db482614254565b613dbe818561425f565b9350613dce818560208601614804565b613dd78161496e565b840191505092915050565b6000613def60238361425f565b9150613dfa8261498c565b604082019050919050565b6000613e1260228361425f565b9150613e1d826149db565b604082019050919050565b6000613e3560268361425f565b9150613e4082614a2a565b604082019050919050565b6000613e58601d8361425f565b9150613e6382614a79565b602082019050919050565b6000613e7b601c8361425f565b9150613e8682614aa2565b602082019050919050565b6000613e9e60288361425f565b9150613ea982614acb565b604082019050919050565b6000613ec160258361425f565b9150613ecc82614b1a565b604082019050919050565b6000613ee460258361425f565b9150613eef82614b69565b604082019050919050565b6000613f0760248361425f565b9150613f1282614bb8565b604082019050919050565b6000613f2a601c8361425f565b9150613f3582614c07565b602082019050919050565b6000613f4d60338361425f565b9150613f5882614c30565b604082019050919050565b6000613f7060258361425f565b9150613f7b82614c7f565b604082019050919050565b6000613f9360208361425f565b9150613f9e82614cce565b602082019050919050565b613fb2816147cb565b82525050565b613fc1816147e5565b82525050565b6000602082019050613fdc6000830184613d6d565b92915050565b6000602082019050613ff76000830184613d7c565b92915050565b60006020820190506140126000830184613d8b565b92915050565b600060208201905061402d6000830184613d9a565b92915050565b6000602082019050818103600083015261404d8184613da9565b905092915050565b6000602082019050818103600083015261406e81613de2565b9050919050565b6000602082019050818103600083015261408e81613e05565b9050919050565b600060208201905081810360008301526140ae81613e28565b9050919050565b600060208201905081810360008301526140ce81613e4b565b9050919050565b600060208201905081810360008301526140ee81613e6e565b9050919050565b6000602082019050818103600083015261410e81613e91565b9050919050565b6000602082019050818103600083015261412e81613eb4565b9050919050565b6000602082019050818103600083015261414e81613ed7565b9050919050565b6000602082019050818103600083015261416e81613efa565b9050919050565b6000602082019050818103600083015261418e81613f1d565b9050919050565b600060208201905081810360008301526141ae81613f40565b9050919050565b600060208201905081810360008301526141ce81613f63565b9050919050565b600060208201905081810360008301526141ee81613f86565b9050919050565b600060208201905061420a6000830184613fa9565b92915050565b60006040820190506142256000830185613fa9565b6142326020830184613fa9565b9392505050565b600060208201905061424e6000830184613fb8565b92915050565b600081519050919050565b600082825260208201905092915050565b600061427b826147cb565b9150614286836147cb565b9250827fffffffffffffffffffffffffffffffffffffffffffffffffffffffffffffffff038211156142bb576142ba6148b2565b5b828201905092915050565b60006142d182614787565b91506142dc83614787565b9250826142ec576142eb6148e1565b5b600160000383147f800000000000000000000000000000000000000000000000000000000000000083141615614325576143246148b2565b5b828205905092915050565b600061433b826147cb565b9150614346836147cb565b925082614356576143556148e1565b5b828204905092915050565b6000808291508390505b60018511156143ab57808604811115614387576143866148b2565b5b60018516156143965780820291505b80810290506143a48561497f565b945061436b565b94509492505050565b60006143bf826147cb565b91506143ca836147cb565b92506143f77fffffffffffffffffffffffffffffffffffffffffffffffffffffffffffffffff848461444a565b905092915050565b600061440a826147cb565b9150614415836147e5565b92506144427fffffffffffffffffffffffffffffffffffffffffffffffffffffffffffffffff848461444a565b905092915050565b60008261445a5760019050614516565b816144685760009050614516565b816001811461447e5760028114614488576144b7565b6001915050614516565b60ff84111561449a576144996148b2565b5b8360020a9150848211156144b1576144b06148b2565b5b50614516565b5060208310610133831016604e8410600b84101617156144ec5782820a9050838111156144e7576144e66148b2565b5b614516565b6144f98484846001614361565b925090508184048111156145105761450f6148b2565b5b81810290505b9392505050565b600061452882614787565b915061453383614787565b9250827f7fffffffffffffffffffffffffffffffffffffffffffffffffffffffffffffff0482116000841360008413161615614572576145716148b2565b5b817f800000000000000000000000000000000000000000000000000000000000000005831260008412600084131616156145af576145ae6148b2565b5b827f800000000000000000000000000000000000000000000000000000000000000005821260008413600084121616156145ec576145eb6148b2565b5b827f7fffffffffffffffffffffffffffffffffffffffffffffffffffffffffffffff0582126000841260008412161615614629576146286148b2565b5b828202905092915050565b600061463f826147cb565b915061464a836147cb565b9250817fffffffffffffffffffffffffffffffffffffffffffffffffffffffffffffffff0483118215151615614683576146826148b2565b5b828202905092915050565b600061469982614787565b91506146a483614787565b9250827f8000000000000000000000000000000000000000000000000000000000000000018212600084121516156146df576146de6148b2565b5b827f7fffffffffffffffffffffffffffffffffffffffffffffffffffffffffffffff018213600084121615614717576147166148b2565b5b828203905092915050565b600061472d826147cb565b9150614738836147cb565b92508282101561474b5761474a6148b2565b5b828203905092915050565b6000614761826147ab565b9050919050565b60008115159050919050565b600081905061478282614cf7565b919050565b6000819050919050565b60006dffffffffffffffffffffffffffff82169050919050565b600073ffffffffffffffffffffffffffffffffffffffff82169050919050565b6000819050919050565b600063ffffffff82169050919050565b600060ff82169050919050565b60006147fd82614774565b9050919050565b60005b83811015614822578082015181840152602081019050614807565b83811115614831576000848401525b50505050565b6000600282049050600182168061484f57607f821691505b602082108114156148635761486261493f565b5b50919050565b600061487482614787565b91507f80000000000000000000000000000000000000000000000000000000000000008214156148a7576148a66148b2565b5b816000039050919050565b7f4e487b7100000000000000000000000000000000000000000000000000000000600052601160045260246000fd5b7f4e487b7100000000000000000000000000000000000000000000000000000000600052601260045260246000fd5b7f4e487b7100000000000000000000000000000000000000000000000000000000600052602160045260246000fd5b7f4e487b7100000000000000000000000000000000000000000000000000000000600052602260045260246000fd5b6000601f19601f8301169050919050565b60008160011c9050919050565b7f45524332303a207472616e7366657220746f20746865207a65726f206164647260008201527f6573730000000000000000000000000000000000000000000000000000000000602082015250565b7f45524332303a20617070726f766520746f20746865207a65726f20616464726560008201527f7373000000000000000000000000000000000000000000000000000000000000602082015250565b7f45524332303a207472616e7366657220616d6f756e742065786365656473206260008201527f616c616e63650000000000000000000000000000000000000000000000000000602082015250565b7f4f7574206f6620746f6b656e2062656361736520746178206170706c79000000600082015250565b7f746178206e65656420736d616c6c6572207468616e20616d6f756e7400000000600082015250565b7f45524332303a207472616e7366657220616d6f756e742065786365656473206160008201527f6c6c6f77616e6365000000000000000000000000000000000000000000000000602082015250565b7f46696e616c20616d6f756e74206f766572206d61782073656c6c61626c65206160008201527f6d6f756e74000000000000000000000000000000000000000000000000000000602082015250565b7f45524332303a207472616e736665722066726f6d20746865207a65726f20616460008201527f6472657373000000000000000000000000000000000000000000000000000000602082015250565b7f45524332303a20617070726f76652066726f6d20746865207a65726f2061646460008201527f7265737300000000000000000000000000000000000000000000000000000000602082015250565b7f5265717569726520746f6b656e20656e61626c652074726164696e6700000000600082015250565b7f546869732066756e6374696f6e206973207265737472696374656420746f207460008201527f686520636f6e74726163742773206f776e657200000000000000000000000000602082015250565b7f45524332303a2064656372656173656420616c6c6f77616e63652062656c6f7760008201527f207a65726f000000000000000000000000000000000000000000000000000000602082015250565b7f746178206e65656420626967676572207468616e20746178546f526577617264600082015250565b60028110614d0857614d07614910565b5b50565b614d1481614756565b8114614d1f57600080fd5b50565b614d2b81614768565b8114614d3657600080fd5b50565b614d4281614787565b8114614d4d57600080fd5b50565b614d5981614791565b8114614d6457600080fd5b50565b614d70816147cb565b8114614d7b57600080fd5b50565b614d87816147d5565b8114614d9257600080fd5b50565b614d9e816147e5565b8114614da957600080fd5b5056fea2646970667358221220ba87d2c145f490eda1885637afb195b87e62dddcee3a78ad4edc492c126acfc764736f6c63430008040033",
  "immutableReferences": {},
  "source": "// SPDX-License-Identifier: MIT\r\npragma solidity ^0.8.0;\r\n\r\nimport \"@openzeppelin/contracts/token/ERC20/ERC20.sol\";\r\nimport \"@uniswap/v2-core/contracts/interfaces/IUniswapV2Pair.sol\";\r\n\r\n// import {IERC20 as UNIERC20} from \"@uniswap/v2-core/contracts/interfaces/IERC20.sol\";\r\n\r\ncontract FleepToken is ERC20 {\r\n\r\n    //state of token\r\n    enum State {\r\n        INITIAL,\r\n        ACTIVE\r\n    }\r\n\r\n    State public state = State.INITIAL;\r\n\r\n    function getState() public view returns (State) {\r\n        return state;\r\n    }\r\n\r\n    function enableToken() public onlyOwner {\r\n        state = State.ACTIVE;\r\n    }\r\n\r\n    function disableToken() public onlyOwner {\r\n        state = State.INITIAL;\r\n    }\r\n\r\n    function setState(uint256 _value) public onlyOwner {\r\n        require(uint256(State.ACTIVE) >= _value);\r\n        require(uint256(State.INITIAL) <= _value);\r\n        state = State(_value);\r\n    }\r\n\r\n    function requireActiveState() view internal {\r\n        require(state == State.ACTIVE, 'Require token enable trading');\r\n    }\r\n\r\n    address public owner = msg.sender;\r\n    address public devWallet;\r\n    address public rewardWallet;\r\n    uint256 initialTime;\r\n    uint256 initialPrice; // 1.5$ * 10 ** 18\r\n    //price feed uniswap\r\n    //if useFeedPrice == false, don't apply tax for token\r\n    bool public useFeedPrice = false;\r\n    address public pairFeedPrice;\r\n    bool public isToken0;\r\n    // tax control list\r\n    mapping(address => bool) applyTaxList;\r\n    mapping(address => bool) ignoreTaxList;\r\n\r\n    //define event\r\n    event OwnershipTransferred(address indexed previousOwner, address indexed newOwner);\r\n    // modifier control\r\n    modifier onlyOwner() {\r\n        require(\r\n            msg.sender == owner,\r\n            \"This function is restricted to the contract's owner\"\r\n        );\r\n        _;\r\n    }\r\n\r\n    /**\r\n     * @dev Allows the current owner to transfer control of the contract to a newOwner.\r\n     * @param newOwner The address to transfer ownership to.\r\n     */\r\n    function transferOwnership(address newOwner) public onlyOwner {\r\n        require(newOwner != address(0));\r\n        emit OwnershipTransferred(owner, newOwner);\r\n        owner = newOwner;\r\n    }\r\n\r\n    constructor(\r\n        address _devWallet,\r\n        address _rewardWallet,\r\n        // bool _isToken0,\r\n        uint256 _initialTime,\r\n        uint256 _initialPrice\r\n    ) payable ERC20(\"Fleep Token\", \"FLEEP\") {\r\n        //initital total supply is 1000.000 tokens\r\n        devWallet = _devWallet;\r\n        rewardWallet = _rewardWallet;\r\n        _mint(msg.sender, 600000 * 10**decimals());\r\n        _mint(devWallet, 200000 * 10**decimals());\r\n        _mint(rewardWallet, 200000 * 10**decimals());\r\n        //-- data feed\r\n        pairFeedPrice = address(0);\r\n        isToken0 = false;\r\n        //-- end datafeed\r\n        initialTime = _initialTime;\r\n        // explore\r\n        initialPrice = _initialPrice;\r\n        ignoreTaxList[devWallet] = true;\r\n        ignoreTaxList[rewardWallet] = true;\r\n    }\r\n\r\n    // modify transfer function to check tax effect\r\n    function transfer(address recipient, uint256 amount)\r\n        public\r\n        virtual\r\n        override\r\n        returns (bool)\r\n    {\r\n        //tax here\r\n        address from = _msgSender();\r\n        uint256 finalAmount = amount;\r\n        if (\r\n            ignoreTaxList[from] == true || ignoreTaxList[recipient] == true\r\n        ) {} else if (\r\n            applyTaxList[from] == true && applyTaxList[recipient] == true\r\n        ) {\r\n            // not apply tax\r\n            // do nothings\r\n        } else if (applyTaxList[from] == true) {\r\n            if (useFeedPrice) {\r\n                int256 deviant = getDeviant();\r\n                // if from Effect => user buy token from LP\r\n                // [to] buy token, so [to] will receive reward\r\n                (uint256 pct, uint256 base) = getBuyerRewardPercent(deviant);\r\n                uint256 rewardForBuyer = (amount * pct) / (base * 100);\r\n                // finalAmount = finalAmount - rewardForBuyer;\r\n                _transfer(rewardWallet, recipient, rewardForBuyer);\r\n            }\r\n        } else if (applyTaxList[recipient] == true) {\r\n            if (useFeedPrice) {\r\n                //check max sell token\r\n                require(finalAmount <= getMaxSellable(), \"Final amount over max sellable amount\");\r\n                int256 deviant = getDeviant();\r\n                // if [to] effect (example: [to] is LP Pool) => [from] sell token\r\n                (uint256 pct, uint256 base) = getTaxPercent(deviant);\r\n                (uint256 pctReward, uint256 baseReward) = getRewardPercent(\r\n                    deviant\r\n                );\r\n                uint256 tax = (amount * pct) / (base * 100);\r\n                uint256 taxToReward = (amount * pctReward) / (baseReward * 100);\r\n                require(finalAmount > tax, \"tax need smaller than amount\");\r\n                require(tax > taxToReward, \"tax need bigger than taxToReward\");\r\n                finalAmount = finalAmount - tax;\r\n                _transfer(_msgSender(), rewardWallet, taxToReward);\r\n                _transfer(_msgSender(), devWallet, tax - taxToReward);\r\n            }\r\n        } else {\r\n            // do nothings\r\n        }\r\n        //end\r\n        //validate state\r\n        if (ignoreTaxList[from] != true && ignoreTaxList[recipient] != true) {\r\n            requireActiveState();\r\n        }\r\n        //end\r\n        _transfer(_msgSender(), recipient, finalAmount);\r\n        return true;\r\n    }\r\n\r\n    function transferFrom(\r\n        address sender,\r\n        address recipient,\r\n        uint256 amount\r\n    ) public override returns (bool) {\r\n        uint256 finalAmount = amount;\r\n        address from = sender;\r\n        if (\r\n            ignoreTaxList[from] == true || ignoreTaxList[recipient] == true\r\n        ) {} else if (\r\n            applyTaxList[from] == true && applyTaxList[recipient] == true\r\n        ) {\r\n            // not apply tax\r\n            // do nothings\r\n        } else if (applyTaxList[from] == true) {\r\n            if (useFeedPrice) {\r\n                int256 deviant = getDeviant();\r\n                // if from Effect => user buy token from LP\r\n                // [to] buy token, so [to] will receive reward\r\n                (uint256 pct, uint256 base) = getBuyerRewardPercent(deviant);\r\n                uint256 rewardForBuyer = (amount * pct) / (base * 100);\r\n                // finalAmount = finalAmount - rewardForBuyer;\r\n                _transfer(rewardWallet, recipient, rewardForBuyer);\r\n            }\r\n        } else if (applyTaxList[recipient] == true) {\r\n            if (useFeedPrice) {\r\n                //check max sell token\r\n                require(finalAmount <= getMaxSellable(), \"Final amount over max sellable amount\");\r\n                int256 deviant = getDeviant();\r\n                // if [to] effect (example: [to] is LP Pool) => [from] sell token\r\n                (uint256 pct, uint256 base) = getTaxPercent(deviant);\r\n                (uint256 pctReward, uint256 baseReward) = getRewardPercent(\r\n                    deviant\r\n                );\r\n                uint256 tax = (amount * pct) / (base * 100);\r\n                uint256 taxToReward = (amount * pctReward) / (baseReward * 100);\r\n                require(\r\n                    balanceOf(sender) >= (amount + tax),\r\n                    \"Out of token becase tax apply\"\r\n                );\r\n                // require(finalAmount > tax, \"tax need smaller than amount\");\r\n                require(tax > taxToReward, \"tax need bigger than taxToReward\");\r\n                finalAmount = finalAmount - tax;\r\n                _transfer(sender, rewardWallet, taxToReward);\r\n                _transfer(sender, devWallet, tax - taxToReward);\r\n            }\r\n        } else {\r\n            // do nothings\r\n        }\r\n        //validate state\r\n        if (ignoreTaxList[from] != true && ignoreTaxList[recipient] != true) {\r\n            requireActiveState();\r\n        }\r\n        //end\r\n        return super.transferFrom(sender, recipient, amount);\r\n    }\r\n\r\n    function changeInitialTimestamp(uint256 _initialTimestamp)\r\n        public\r\n        onlyOwner\r\n        returns (bool)\r\n    {\r\n        initialTime = _initialTimestamp;\r\n        return true;\r\n    }\r\n\r\n    function changeInitialPeggedPrice(uint256 _initialPrice)\r\n        public\r\n        onlyOwner\r\n        returns (bool)\r\n    {\r\n        initialPrice = _initialPrice;\r\n        return true;\r\n    }\r\n\r\n    function setUseFeedPrice(bool _useFeedPrice) public onlyOwner {\r\n        useFeedPrice = _useFeedPrice;\r\n    }\r\n\r\n    function setPairForPrice(address _pairFeedPrice, bool _isToken0)\r\n        public\r\n        onlyOwner\r\n    {\r\n        pairFeedPrice = _pairFeedPrice;\r\n        isToken0 = _isToken0;\r\n    }\r\n\r\n    //apply tax list\r\n    function addToApplyTaxList(address _address) public onlyOwner {\r\n        applyTaxList[_address] = true;\r\n    }\r\n\r\n    function removeApplyTaxList(address _address) public onlyOwner {\r\n        applyTaxList[_address] = false;\r\n    }\r\n\r\n    function isApplyTaxList(address _address) public view returns (bool) {\r\n        return applyTaxList[_address];\r\n    }\r\n\r\n    //ignore tax list\r\n    function addToIgnoreTaxList(address _address) public onlyOwner {\r\n        ignoreTaxList[_address] = true;\r\n    }\r\n\r\n    function removeIgnoreTaxList(address _address) public onlyOwner {\r\n        ignoreTaxList[_address] = false;\r\n    }\r\n\r\n    function isIgnoreTaxList(address _address) public view returns (bool) {\r\n        return ignoreTaxList[_address];\r\n    }\r\n\r\n    // calculate price based on pair reserves\r\n    // numberToken0 x price0 = numberToken1 x price1\r\n    function getTokenPrice(\r\n        address _pairAddress,\r\n        bool _isToken0,\r\n        uint256 amount\r\n    ) public view returns (uint256) {\r\n        if (_isToken0) {\r\n            return getToken0Price(_pairAddress, amount);\r\n        } else {\r\n            return getToken1Price(_pairAddress, amount);\r\n        }\r\n    }\r\n\r\n    function getTokenPrice() public view returns (uint256) {\r\n        if (isToken0) {\r\n            return getToken0Price(pairFeedPrice, 1);\r\n        } else {\r\n            return getToken1Price(pairFeedPrice, 1);\r\n        }\r\n    }\r\n\r\n    function getMaxSellable() public view returns (uint256) {\r\n        if (isToken0) {\r\n            return getMaxSellable0(pairFeedPrice);\r\n        } else {\r\n            return getMaxSellable1(pairFeedPrice);\r\n        }\r\n    }\r\n\r\n    function getMaxSellable0(address pairAddress)\r\n        internal\r\n        view\r\n        returns (uint256)\r\n    {\r\n        IUniswapV2Pair pair = IUniswapV2Pair(pairAddress);\r\n        (uint256 Res0, , ) = pair.getReserves();\r\n        return Res0 * 10 / 100;\r\n    }\r\n\r\n    function getMaxSellable1(address pairAddress)\r\n        internal\r\n        view\r\n        returns (uint256)\r\n    {\r\n        IUniswapV2Pair pair = IUniswapV2Pair(pairAddress);\r\n        (, uint256 Res1, ) = pair.getReserves();\r\n        return Res1 * 10 / 100;\r\n    }\r\n\r\n    function getToken1Price(address pairAddress, uint256 amount)\r\n        internal\r\n        view\r\n        returns (uint256)\r\n    {\r\n        IUniswapV2Pair pair = IUniswapV2Pair(pairAddress);\r\n        ERC20 token1 = ERC20(pair.token1());\r\n        (uint256 Res0, uint256 Res1, ) = pair.getReserves();\r\n        // decimals\r\n        uint256 res0 = Res0 * (10**token1.decimals());\r\n        return ((amount * res0) / Res1);\r\n        // result = (price_1 /price_0) *  (10 ** token0.decimals())\r\n    }\r\n\r\n    /**\r\n    return price of token 0 wall calculate by price of token 1 and GWEN of token 1\r\n     */\r\n    function getToken0Price(address pairAddress, uint256 amount)\r\n        internal\r\n        view\r\n        returns (uint256)\r\n    {\r\n        IUniswapV2Pair pair = IUniswapV2Pair(pairAddress);\r\n        ERC20 token0 = ERC20(pair.token0());\r\n        (uint256 Res0, uint256 Res1, ) = pair.getReserves();\r\n        //(Res0 / token0.decimals()) * price0 = (Res1 / token1.decimals()) * price1\r\n        return (amount * Res1 * (10**token0.decimals())) / Res0;\r\n        // result = (price_0 /price_1) *  (10 ** token1.decimals())\r\n    }\r\n\r\n    uint256 SECOND_PER_DAY = 86400; //24 * 60 * 60;\r\n    uint256 private A = 0;\r\n    uint256 private perA  = 1;\r\n    uint256 private B  = 0;\r\n    uint256 private perB  = 1;\r\n\r\n    function setRate(uint256 _A, uint256 _perA, uint256 _B, uint256 _perB)\r\n        public\r\n        onlyOwner\r\n    {\r\n        //change initial price and time\r\n        initialPrice = getPeggedPrice();\r\n        initialTime = block.timestamp;\r\n        //change rate\r\n        A = _A;\r\n        perA  = _perA;\r\n        B = _B;\r\n        perB = _perB;\r\n    }\r\n\r\n    /**\r\n     pegged price increase by day: 0.0002X+0.01 (x is number of day from initialDay)\r\n     ==> pegged_price_n = initial_price + n * (0.01) + (n*(n+1)/2 * 0.0002)\r\n\r\n     increase per day:  X * A / perA + B / perB\r\n     */\r\n    //return the price of token * 10 ** 18\r\n    function getPeggedPrice() public view returns (uint256) {\r\n        uint256 currentTime = block.timestamp;\r\n        if (currentTime <= initialTime) {\r\n            return initialPrice;\r\n        }\r\n        uint256 daysFromBegin = ceil(\r\n            (currentTime - initialTime) / SECOND_PER_DAY,\r\n            1\r\n        );\r\n        uint256 peggedPrice = uint256(\r\n            initialPrice +\r\n                ((10**decimals()) * daysFromBegin * B) /\r\n                perB +\r\n                ((10**decimals()) * daysFromBegin * (daysFromBegin + 1) * A) /\r\n                (perA * 2)\r\n        );\r\n        return (peggedPrice);\r\n    }\r\n\r\n    /**\r\n    return deviant of price - beetween current price and pegged price\r\n     */\r\n    function getDeviant() public view returns (int256) {\r\n        // calculate with the same measurement\r\n        int256 peggedPrice = int256(getPeggedPrice());\r\n        int256 currentPrice = int256(getTokenPrice(pairFeedPrice, isToken0, 1));\r\n        return ((currentPrice - peggedPrice) * 100) / peggedPrice;\r\n    }\r\n\r\n    uint256 DEVIDE_STEP = 5;\r\n\r\n    function getTaxPercent() public view returns (uint256, uint256){\r\n        int256 deviant = getDeviant();\r\n        return getTaxPercent(deviant);\r\n    }\r\n\r\n    function getTaxPercent(int256 deviant)\r\n        public\r\n        view\r\n        returns (uint256, uint256)\r\n    {\r\n        // 0.93674 ^ -5 = 138645146889 / 10 ** 11\r\n        //tax : 0.93674^{x}+3\r\n\r\n        if (deviant < 0) {\r\n            uint256 uDeviant = uint256(-deviant);\r\n            uint256 step = uDeviant / DEVIDE_STEP;\r\n            uint256 resident = uDeviant - step * DEVIDE_STEP;\r\n            uint256 j = 0;\r\n            uint256 percent = 10**18;\r\n            // return 9 ** uDeviant;\r\n            for (j = 0; j < step; j += 1) {\r\n                //for loop example\r\n                percent = (percent * 138645146889) / 10**11;\r\n            }\r\n            percent = (percent * (100000**resident)) / (93674**resident);\r\n            return (percent / (10**14) + 3 * 10000, 10**4);\r\n        } else {\r\n            //business\r\n            uint256 uDeviant = uint256(deviant);\r\n            uint256 step = uDeviant / DEVIDE_STEP;\r\n            uint256 resident = uDeviant - step * DEVIDE_STEP;\r\n            uint256 j = 0;\r\n            uint256 percent = 10**18;\r\n            // return 9 ** uDeviant;\r\n            for (j = 0; j < step; j += 1) {\r\n                //for loop example\r\n                percent = (percent * 93674**5) / (100000**5);\r\n            }\r\n            percent = (percent * (93674**resident)) / (100000**resident);\r\n            return (percent / (10**14) + 3 * 10000, 10**4);\r\n        }\r\n    }\r\n\r\n    function getRewardPercent() public view returns (uint256, uint256){\r\n        int256 deviant = getDeviant();\r\n        return getRewardPercent(deviant);\r\n    }\r\n\r\n    function getRewardPercent(int256 deviant)\r\n        public\r\n        view\r\n        returns (uint256, uint256)\r\n    {\r\n        //1.0654279291277341544231240477738 = 1/0.93859 ~ 1.0654\r\n        // 0.93859 ^ -10 = 1.8846936700630545738235994788055 ~ 188469367 / 10**8\r\n        // 0.93859 ^ -5 = 137284145846 / 10 ** 11\r\n        // 0.93859 ** x = (1/(0.93859))^ (-x) = (1 + 0.0654279291277341544231240477738) ^ -x ~ = 1 + (-x) *  0.0654279291277341544231240477738\r\n        //reward : 0.93859 ^ -x + 0.2\r\n\r\n        if (deviant < 0) {\r\n            uint256 uDeviant = uint256(-deviant);\r\n            uint256 step = uDeviant / DEVIDE_STEP;\r\n            uint256 resident = uDeviant - step * DEVIDE_STEP;\r\n            uint256 j = 0;\r\n            uint256 percent = 10**18;\r\n            // return 9 ** uDeviant;\r\n            for (j = 0; j < step; j += 1) {\r\n                //for loop example\r\n                percent = (percent * 137284145846) / 10**11;\r\n            }\r\n            percent = (percent * (100000**resident)) / (93859**resident);\r\n            return (percent / (10**14) + 2000, 10**4);\r\n        } else {\r\n            //business\r\n            uint256 uDeviant = uint256(deviant);\r\n            uint256 step = uDeviant / DEVIDE_STEP;\r\n            uint256 resident = uDeviant - step * DEVIDE_STEP;\r\n            uint256 j = 0;\r\n            uint256 percent = 10**18;\r\n            // return 9 ** uDeviant;\r\n            for (j = 0; j < step; j += 1) {\r\n                //for loop example\r\n                percent = (percent * 93859**5) / (100000**5);\r\n            }\r\n            percent = (percent * (93859**resident)) / (100000**resident);\r\n            return (percent / (10**14) + 2 * 10**3, 10**4);\r\n        }\r\n    }\r\n\r\n    function getBuyerRewardPercent() public view returns (uint256, uint256){\r\n        int256 deviant = getDeviant();\r\n        return getBuyerRewardPercent(deviant);\r\n    }\r\n\r\n\r\n    function getBuyerRewardPercent(int256 deviant)\r\n        public\r\n        view\r\n        returns (uint256, uint256)\r\n    {\r\n        // 0.947 ^ -5 = 1.31295579684  / 10 ** 11\r\n        //reward : 0.947^{x}+0.05\r\n\r\n        if (deviant < 0) {\r\n            uint256 uDeviant = uint256(-deviant);\r\n            uint256 step = uDeviant / DEVIDE_STEP;\r\n            uint256 resident = uDeviant - step * DEVIDE_STEP;\r\n            uint256 j = 0;\r\n            uint256 percent = 10**18;\r\n            // return 9 ** uDeviant;\r\n            for (j = 0; j < step; j += 1) {\r\n                //for loop example\r\n                percent = (percent * 131295579684) / 10**11;\r\n            }\r\n            percent = (percent * (1000**resident)) / (947**resident);\r\n            return (percent / (10**14) + 500, 10**4);\r\n        } else {\r\n            //business\r\n            uint256 uDeviant = uint256(deviant);\r\n            uint256 step = uDeviant / DEVIDE_STEP;\r\n            uint256 resident = uDeviant - step * DEVIDE_STEP;\r\n            uint256 j = 0;\r\n            uint256 percent = 10**18;\r\n            // return 9 ** uDeviant;\r\n            for (j = 0; j < step; j += 1) {\r\n                //for loop example\r\n                percent = (percent * 947**5) / (1000**5);\r\n            }\r\n            percent = (percent * (947**resident)) / (1000**resident);\r\n            return (percent / (10**14) + 500, 10**4);\r\n        }\r\n    }\r\n\r\n    // internal function\r\n    function ceil(uint256 a, uint256 m) internal pure returns (uint256) {\r\n        return ((a + m - 1) / m) * m;\r\n    }\r\n}\r\n",
  "sourcePath": "D:/Work/upwork/pegged-contract/contracts/FleepToken.sol",
  "compiler": {
    "name": "solc",
    "version": "0.8.4+commit.c7e474f2.Emscripten.clang"
  },
  "schemaVersion": "3.2.3",
  "updatedAt": "2022-01-17T14:10:35.139Z",
  "networkType": "ethereum",
  "devdoc": {
    "kind": "dev",
    "methods": {
      "allowance(address,address)": {
        "details": "See {IERC20-allowance}."
      },
      "approve(address,uint256)": {
        "details": "See {IERC20-approve}. Requirements: - `spender` cannot be the zero address."
      },
      "balanceOf(address)": {
        "details": "See {IERC20-balanceOf}."
      },
      "decimals()": {
        "details": "Returns the number of decimals used to get its user representation. For example, if `decimals` equals `2`, a balance of `505` tokens should be displayed to a user as `5.05` (`505 / 10 ** 2`). Tokens usually opt for a value of 18, imitating the relationship between Ether and Wei. This is the value {ERC20} uses, unless this function is overridden; NOTE: This information is only used for _display_ purposes: it in no way affects any of the arithmetic of the contract, including {IERC20-balanceOf} and {IERC20-transfer}."
      },
      "decreaseAllowance(address,uint256)": {
        "details": "Atomically decreases the allowance granted to `spender` by the caller. This is an alternative to {approve} that can be used as a mitigation for problems described in {IERC20-approve}. Emits an {Approval} event indicating the updated allowance. Requirements: - `spender` cannot be the zero address. - `spender` must have allowance for the caller of at least `subtractedValue`."
      },
      "increaseAllowance(address,uint256)": {
        "details": "Atomically increases the allowance granted to `spender` by the caller. This is an alternative to {approve} that can be used as a mitigation for problems described in {IERC20-approve}. Emits an {Approval} event indicating the updated allowance. Requirements: - `spender` cannot be the zero address."
      },
      "name()": {
        "details": "Returns the name of the token."
      },
      "symbol()": {
        "details": "Returns the symbol of the token, usually a shorter version of the name."
      },
      "totalSupply()": {
        "details": "See {IERC20-totalSupply}."
      },
      "transfer(address,uint256)": {
        "details": "See {IERC20-transfer}. Requirements: - `recipient` cannot be the zero address. - the caller must have a balance of at least `amount`."
      },
      "transferFrom(address,address,uint256)": {
        "details": "See {IERC20-transferFrom}. Emits an {Approval} event indicating the updated allowance. This is not required by the EIP. See the note at the beginning of {ERC20}. Requirements: - `sender` and `recipient` cannot be the zero address. - `sender` must have a balance of at least `amount`. - the caller must have allowance for ``sender``'s tokens of at least `amount`."
      },
      "transferOwnership(address)": {
        "details": "Allows the current owner to transfer control of the contract to a newOwner.",
        "params": {
          "newOwner": "The address to transfer ownership to."
        }
      }
    },
    "version": 1
  },
  "userdoc": {
    "kind": "user",
    "methods": {
      "getDeviant()": {
        "notice": "return deviant of price - beetween current price and pegged price"
      },
      "getPeggedPrice()": {
        "notice": "pegged price increase by day: 0.0002X+0.01 (x is number of day from initialDay) ==> pegged_price_n = initial_price + n * (0.01) + (n*(n+1)/2 * 0.0002) increase per day:  X * A / perA + B / perB"
      }
    },
    "version": 1
  }
}