{
  "contractName": "FleepToken",
  "abi": [
    {
      "inputs": [
        {
          "internalType": "address",
          "name": "_devWallet",
          "type": "address"
        },
        {
          "internalType": "address",
          "name": "_rewardWallet",
          "type": "address"
        },
        {
          "internalType": "uint256",
          "name": "_initialTime",
          "type": "uint256"
        },
        {
          "internalType": "uint256",
          "name": "_initialPrice",
          "type": "uint256"
        }
      ],
      "stateMutability": "payable",
      "type": "constructor",
      "payable": true
    },
    {
      "anonymous": false,
      "inputs": [
        {
          "indexed": true,
          "internalType": "address",
          "name": "owner",
          "type": "address"
        },
        {
          "indexed": true,
          "internalType": "address",
          "name": "spender",
          "type": "address"
        },
        {
          "indexed": false,
          "internalType": "uint256",
          "name": "value",
          "type": "uint256"
        }
      ],
      "name": "Approval",
      "type": "event"
    },
    {
      "anonymous": false,
      "inputs": [
        {
          "indexed": true,
          "internalType": "address",
          "name": "previousOwner",
          "type": "address"
        },
        {
          "indexed": true,
          "internalType": "address",
          "name": "newOwner",
          "type": "address"
        }
      ],
      "name": "OwnershipTransferred",
      "type": "event"
    },
    {
      "anonymous": false,
      "inputs": [
        {
          "indexed": true,
          "internalType": "address",
          "name": "from",
          "type": "address"
        },
        {
          "indexed": true,
          "internalType": "address",
          "name": "to",
          "type": "address"
        },
        {
          "indexed": false,
          "internalType": "uint256",
          "name": "value",
          "type": "uint256"
        }
      ],
      "name": "Transfer",
      "type": "event"
    },
    {
      "inputs": [
        {
          "internalType": "address",
          "name": "owner",
          "type": "address"
        },
        {
          "internalType": "address",
          "name": "spender",
          "type": "address"
        }
      ],
      "name": "allowance",
      "outputs": [
        {
          "internalType": "uint256",
          "name": "",
          "type": "uint256"
        }
      ],
      "stateMutability": "view",
      "type": "function",
      "constant": true
    },
    {
      "inputs": [
        {
          "internalType": "address",
          "name": "spender",
          "type": "address"
        },
        {
          "internalType": "uint256",
          "name": "amount",
          "type": "uint256"
        }
      ],
      "name": "approve",
      "outputs": [
        {
          "internalType": "bool",
          "name": "",
          "type": "bool"
        }
      ],
      "stateMutability": "nonpayable",
      "type": "function"
    },
    {
      "inputs": [
        {
          "internalType": "address",
          "name": "account",
          "type": "address"
        }
      ],
      "name": "balanceOf",
      "outputs": [
        {
          "internalType": "uint256",
          "name": "",
          "type": "uint256"
        }
      ],
      "stateMutability": "view",
      "type": "function",
      "constant": true
    },
    {
      "inputs": [],
      "name": "decimals",
      "outputs": [
        {
          "internalType": "uint8",
          "name": "",
          "type": "uint8"
        }
      ],
      "stateMutability": "view",
      "type": "function",
      "constant": true
    },
    {
      "inputs": [
        {
          "internalType": "address",
          "name": "spender",
          "type": "address"
        },
        {
          "internalType": "uint256",
          "name": "subtractedValue",
          "type": "uint256"
        }
      ],
      "name": "decreaseAllowance",
      "outputs": [
        {
          "internalType": "bool",
          "name": "",
          "type": "bool"
        }
      ],
      "stateMutability": "nonpayable",
      "type": "function"
    },
    {
      "inputs": [],
      "name": "devWallet",
      "outputs": [
        {
          "internalType": "address",
          "name": "",
          "type": "address"
        }
      ],
      "stateMutability": "view",
      "type": "function",
      "constant": true
    },
    {
      "inputs": [
        {
          "internalType": "address",
          "name": "spender",
          "type": "address"
        },
        {
          "internalType": "uint256",
          "name": "addedValue",
          "type": "uint256"
        }
      ],
      "name": "increaseAllowance",
      "outputs": [
        {
          "internalType": "bool",
          "name": "",
          "type": "bool"
        }
      ],
      "stateMutability": "nonpayable",
      "type": "function"
    },
    {
      "inputs": [],
      "name": "isToken0",
      "outputs": [
        {
          "internalType": "bool",
          "name": "",
          "type": "bool"
        }
      ],
      "stateMutability": "view",
      "type": "function",
      "constant": true
    },
    {
      "inputs": [],
      "name": "name",
      "outputs": [
        {
          "internalType": "string",
          "name": "",
          "type": "string"
        }
      ],
      "stateMutability": "view",
      "type": "function",
      "constant": true
    },
    {
      "inputs": [],
      "name": "owner",
      "outputs": [
        {
          "internalType": "address",
          "name": "",
          "type": "address"
        }
      ],
      "stateMutability": "view",
      "type": "function",
      "constant": true
    },
    {
      "inputs": [],
      "name": "pairFeedPrice",
      "outputs": [
        {
          "internalType": "address",
          "name": "",
          "type": "address"
        }
      ],
      "stateMutability": "view",
      "type": "function",
      "constant": true
    },
    {
      "inputs": [],
      "name": "rewardWallet",
      "outputs": [
        {
          "internalType": "address",
          "name": "",
          "type": "address"
        }
      ],
      "stateMutability": "view",
      "type": "function",
      "constant": true
    },
    {
      "inputs": [],
      "name": "symbol",
      "outputs": [
        {
          "internalType": "string",
          "name": "",
          "type": "string"
        }
      ],
      "stateMutability": "view",
      "type": "function",
      "constant": true
    },
    {
      "inputs": [],
      "name": "totalSupply",
      "outputs": [
        {
          "internalType": "uint256",
          "name": "",
          "type": "uint256"
        }
      ],
      "stateMutability": "view",
      "type": "function",
      "constant": true
    },
    {
      "inputs": [],
      "name": "useFeedPrice",
      "outputs": [
        {
          "internalType": "bool",
          "name": "",
          "type": "bool"
        }
      ],
      "stateMutability": "view",
      "type": "function",
      "constant": true
    },
    {
      "inputs": [
        {
          "internalType": "address",
          "name": "newOwner",
          "type": "address"
        }
      ],
      "name": "transferOwnership",
      "outputs": [],
      "stateMutability": "nonpayable",
      "type": "function"
    },
    {
      "inputs": [
        {
          "internalType": "address",
          "name": "recipient",
          "type": "address"
        },
        {
          "internalType": "uint256",
          "name": "amount",
          "type": "uint256"
        }
      ],
      "name": "transfer",
      "outputs": [
        {
          "internalType": "bool",
          "name": "",
          "type": "bool"
        }
      ],
      "stateMutability": "nonpayable",
      "type": "function"
    },
    {
      "inputs": [
        {
          "internalType": "address",
          "name": "sender",
          "type": "address"
        },
        {
          "internalType": "address",
          "name": "recipient",
          "type": "address"
        },
        {
          "internalType": "uint256",
          "name": "amount",
          "type": "uint256"
        }
      ],
      "name": "transferFrom",
      "outputs": [
        {
          "internalType": "bool",
          "name": "",
          "type": "bool"
        }
      ],
      "stateMutability": "nonpayable",
      "type": "function"
    },
    {
      "inputs": [
        {
          "internalType": "uint256",
          "name": "_initialTimestamp",
          "type": "uint256"
        }
      ],
      "name": "changeInitialTimestamp",
      "outputs": [
        {
          "internalType": "bool",
          "name": "",
          "type": "bool"
        }
      ],
      "stateMutability": "nonpayable",
      "type": "function"
    },
    {
      "inputs": [
        {
          "internalType": "uint256",
          "name": "_initialPrice",
          "type": "uint256"
        }
      ],
      "name": "changeInitialPeggedPrice",
      "outputs": [
        {
          "internalType": "bool",
          "name": "",
          "type": "bool"
        }
      ],
      "stateMutability": "nonpayable",
      "type": "function"
    },
    {
      "inputs": [
        {
          "internalType": "bool",
          "name": "_useFeedPrice",
          "type": "bool"
        }
      ],
      "name": "setUseFeedPrice",
      "outputs": [],
      "stateMutability": "nonpayable",
      "type": "function"
    },
    {
      "inputs": [
        {
          "internalType": "address",
          "name": "_pairFeedPrice",
          "type": "address"
        },
        {
          "internalType": "bool",
          "name": "_isToken0",
          "type": "bool"
        }
      ],
      "name": "setPairForPrice",
      "outputs": [],
      "stateMutability": "nonpayable",
      "type": "function"
    },
    {
      "inputs": [
        {
          "internalType": "address",
          "name": "_address",
          "type": "address"
        }
      ],
      "name": "addToApplyTaxList",
      "outputs": [],
      "stateMutability": "nonpayable",
      "type": "function"
    },
    {
      "inputs": [
        {
          "internalType": "address",
          "name": "_address",
          "type": "address"
        }
      ],
      "name": "removeApplyTaxList",
      "outputs": [],
      "stateMutability": "nonpayable",
      "type": "function"
    },
    {
      "inputs": [
        {
          "internalType": "address",
          "name": "_address",
          "type": "address"
        }
      ],
      "name": "isApplyTaxList",
      "outputs": [
        {
          "internalType": "bool",
          "name": "",
          "type": "bool"
        }
      ],
      "stateMutability": "view",
      "type": "function",
      "constant": true
    },
    {
      "inputs": [
        {
          "internalType": "address",
          "name": "_address",
          "type": "address"
        }
      ],
      "name": "addToIgnoreTaxList",
      "outputs": [],
      "stateMutability": "nonpayable",
      "type": "function"
    },
    {
      "inputs": [
        {
          "internalType": "address",
          "name": "_address",
          "type": "address"
        }
      ],
      "name": "removeIgnoreTaxList",
      "outputs": [],
      "stateMutability": "nonpayable",
      "type": "function"
    },
    {
      "inputs": [
        {
          "internalType": "address",
          "name": "_address",
          "type": "address"
        }
      ],
      "name": "isIgnoreTaxList",
      "outputs": [
        {
          "internalType": "bool",
          "name": "",
          "type": "bool"
        }
      ],
      "stateMutability": "view",
      "type": "function",
      "constant": true
    },
    {
      "inputs": [],
      "name": "getTokenPrice",
      "outputs": [
        {
          "internalType": "uint256",
          "name": "",
          "type": "uint256"
        }
      ],
      "stateMutability": "view",
      "type": "function",
      "constant": true
    },
    {
      "inputs": [
        {
          "internalType": "address",
          "name": "_pairAddress",
          "type": "address"
        },
        {
          "internalType": "bool",
          "name": "_isToken0",
          "type": "bool"
        },
        {
          "internalType": "uint256",
          "name": "amount",
          "type": "uint256"
        }
      ],
      "name": "getTokenPrice",
      "outputs": [
        {
          "internalType": "uint256",
          "name": "",
          "type": "uint256"
        }
      ],
      "stateMutability": "view",
      "type": "function",
      "constant": true
    },
    {
      "inputs": [],
      "name": "getMaxSellable",
      "outputs": [
        {
          "internalType": "uint256",
          "name": "",
          "type": "uint256"
        }
      ],
      "stateMutability": "view",
      "type": "function",
      "constant": true
    },
    {
      "inputs": [
        {
          "internalType": "uint256",
          "name": "_A",
          "type": "uint256"
        },
        {
          "internalType": "uint256",
          "name": "_perA",
          "type": "uint256"
        },
        {
          "internalType": "uint256",
          "name": "_B",
          "type": "uint256"
        },
        {
          "internalType": "uint256",
          "name": "_perB",
          "type": "uint256"
        }
      ],
      "name": "setRate",
      "outputs": [],
      "stateMutability": "nonpayable",
      "type": "function"
    },
    {
      "inputs": [],
      "name": "getPeggedPrice",
      "outputs": [
        {
          "internalType": "uint256",
          "name": "",
          "type": "uint256"
        }
      ],
      "stateMutability": "view",
      "type": "function",
      "constant": true
    },
    {
      "inputs": [],
      "name": "getDeviant",
      "outputs": [
        {
          "internalType": "int256",
          "name": "",
          "type": "int256"
        }
      ],
      "stateMutability": "view",
      "type": "function",
      "constant": true
    },
    {
      "inputs": [],
      "name": "getTaxPercent",
      "outputs": [
        {
          "internalType": "uint256",
          "name": "",
          "type": "uint256"
        },
        {
          "internalType": "uint256",
          "name": "",
          "type": "uint256"
        }
      ],
      "stateMutability": "view",
      "type": "function",
      "constant": true
    },
    {
      "inputs": [
        {
          "internalType": "int256",
          "name": "deviant",
          "type": "int256"
        }
      ],
      "name": "getTaxPercent",
      "outputs": [
        {
          "internalType": "uint256",
          "name": "",
          "type": "uint256"
        },
        {
          "internalType": "uint256",
          "name": "",
          "type": "uint256"
        }
      ],
      "stateMutability": "view",
      "type": "function",
      "constant": true
    },
    {
      "inputs": [],
      "name": "getRewardPercent",
      "outputs": [
        {
          "internalType": "uint256",
          "name": "",
          "type": "uint256"
        },
        {
          "internalType": "uint256",
          "name": "",
          "type": "uint256"
        }
      ],
      "stateMutability": "view",
      "type": "function",
      "constant": true
    },
    {
      "inputs": [
        {
          "internalType": "int256",
          "name": "deviant",
          "type": "int256"
        }
      ],
      "name": "getRewardPercent",
      "outputs": [
        {
          "internalType": "uint256",
          "name": "",
          "type": "uint256"
        },
        {
          "internalType": "uint256",
          "name": "",
          "type": "uint256"
        }
      ],
      "stateMutability": "view",
      "type": "function",
      "constant": true
    },
    {
      "inputs": [],
      "name": "getBuyerRewardPercent",
      "outputs": [
        {
          "internalType": "uint256",
          "name": "",
          "type": "uint256"
        },
        {
          "internalType": "uint256",
          "name": "",
          "type": "uint256"
        }
      ],
      "stateMutability": "view",
      "type": "function",
      "constant": true
    },
    {
      "inputs": [
        {
          "internalType": "int256",
          "name": "deviant",
          "type": "int256"
        }
      ],
      "name": "getBuyerRewardPercent",
      "outputs": [
        {
          "internalType": "uint256",
          "name": "",
          "type": "uint256"
        },
        {
          "internalType": "uint256",
          "name": "",
          "type": "uint256"
        }
      ],
      "stateMutability": "view",
      "type": "function",
      "constant": true
    }
  ],
  "bytecode": "0x608060405233600560006101000a81548173ffffffffffffffffffffffffffffffffffffffff021916908373ffffffffffffffffffffffffffffffffffffffff1602179055506000600a60006101000a81548160ff02191690831515021790555062015180600d556000600e556001600f55600060105560016011556005601255604051620051a6380380620051a68339818101604052810190620000a591906200069b565b6040518060400160405280600b81526020017f466c65657020546f6b656e0000000000000000000000000000000000000000008152506040518060400160405280600581526020017f464c454550000000000000000000000000000000000000000000000000000000815250816003908051906020019062000129929190620005bd565b50806004908051906020019062000142929190620005bd565b50505083600660006101000a81548173ffffffffffffffffffffffffffffffffffffffff021916908373ffffffffffffffffffffffffffffffffffffffff16021790555082600760006101000a81548173ffffffffffffffffffffffffffffffffffffffff021916908373ffffffffffffffffffffffffffffffffffffffff1602179055506200020633620001dc6200043160201b60201c565b600a620001ea919062000847565b620927c0620001fa919062000984565b6200043a60201b60201c565b62000267600660009054906101000a900473ffffffffffffffffffffffffffffffffffffffff166200023d6200043160201b60201c565b600a6200024b919062000847565b62030d406200025b919062000984565b6200043a60201b60201c565b620002c8600760009054906101000a900473ffffffffffffffffffffffffffffffffffffffff166200029e6200043160201b60201c565b600a620002ac919062000847565b62030d40620002bc919062000984565b6200043a60201b60201c565b6000600a60016101000a81548173ffffffffffffffffffffffffffffffffffffffff021916908373ffffffffffffffffffffffffffffffffffffffff1602179055506000600a60156101000a81548160ff02191690831515021790555081600881905550806009819055506001600c6000600660009054906101000a900473ffffffffffffffffffffffffffffffffffffffff1673ffffffffffffffffffffffffffffffffffffffff1673ffffffffffffffffffffffffffffffffffffffff16815260200190815260200160002060006101000a81548160ff0219169083151502179055506001600c6000600760009054906101000a900473ffffffffffffffffffffffffffffffffffffffff1673ffffffffffffffffffffffffffffffffffffffff1673ffffffffffffffffffffffffffffffffffffffff16815260200190815260200160002060006101000a81548160ff0219169083151502179055505050505062000b2e565b60006012905090565b600073ffffffffffffffffffffffffffffffffffffffff168273ffffffffffffffffffffffffffffffffffffffff161415620004ad576040517f08c379a0000000000000000000000000000000000000000000000000000000008152600401620004a4906200073f565b60405180910390fd5b620004c160008383620005b360201b60201c565b8060026000828254620004d591906200078f565b92505081905550806000808473ffffffffffffffffffffffffffffffffffffffff1673ffffffffffffffffffffffffffffffffffffffff16815260200190815260200160002060008282546200052c91906200078f565b925050819055508173ffffffffffffffffffffffffffffffffffffffff16600073ffffffffffffffffffffffffffffffffffffffff167fddf252ad1be2c89b69c2b068fc378daa952ba7f163c4a11628f55a4df523b3ef8360405162000593919062000761565b60405180910390a3620005af60008383620005b860201b60201c565b5050565b505050565b505050565b828054620005cb9062000a30565b90600052602060002090601f016020900481019282620005ef57600085556200063b565b82601f106200060a57805160ff19168380011785556200063b565b828001600101855582156200063b579182015b828111156200063a5782518255916020019190600101906200061d565b5b5090506200064a91906200064e565b5090565b5b80821115620006695760008160009055506001016200064f565b5090565b6000815190506200067e8162000afa565b92915050565b600081519050620006958162000b14565b92915050565b60008060008060808587031215620006b257600080fd5b6000620006c2878288016200066d565b9450506020620006d5878288016200066d565b9350506040620006e88782880162000684565b9250506060620006fb8782880162000684565b91505092959194509250565b600062000716601f836200077e565b9150620007238262000ad1565b602082019050919050565b620007398162000a19565b82525050565b600060208201905081810360008301526200075a8162000707565b9050919050565b60006020820190506200077860008301846200072e565b92915050565b600082825260208201905092915050565b60006200079c8262000a19565b9150620007a98362000a19565b9250827fffffffffffffffffffffffffffffffffffffffffffffffffffffffffffffffff03821115620007e157620007e062000a66565b5b828201905092915050565b6000808291508390505b60018511156200083e5780860481111562000816576200081562000a66565b5b6001851615620008265780820291505b8081029050620008368562000ac4565b9450620007f6565b94509492505050565b6000620008548262000a19565b9150620008618362000a23565b9250620008907fffffffffffffffffffffffffffffffffffffffffffffffffffffffffffffffff848462000898565b905092915050565b600082620008aa57600190506200097d565b81620008ba57600090506200097d565b8160018114620008d35760028114620008de5762000914565b60019150506200097d565b60ff841115620008f357620008f262000a66565b5b8360020a9150848211156200090d576200090c62000a66565b5b506200097d565b5060208310610133831016604e8410600b84101617156200094e5782820a90508381111562000948576200094762000a66565b5b6200097d565b6200095d8484846001620007ec565b9250905081840481111562000977576200097662000a66565b5b81810290505b9392505050565b6000620009918262000a19565b91506200099e8362000a19565b9250817fffffffffffffffffffffffffffffffffffffffffffffffffffffffffffffffff0483118215151615620009da57620009d962000a66565b5b828202905092915050565b6000620009f282620009f9565b9050919050565b600073ffffffffffffffffffffffffffffffffffffffff82169050919050565b6000819050919050565b600060ff82169050919050565b6000600282049050600182168062000a4957607f821691505b6020821081141562000a605762000a5f62000a95565b5b50919050565b7f4e487b7100000000000000000000000000000000000000000000000000000000600052601160045260246000fd5b7f4e487b7100000000000000000000000000000000000000000000000000000000600052602260045260246000fd5b60008160011c9050919050565b7f45524332303a206d696e7420746f20746865207a65726f206164647265737300600082015250565b62000b0581620009e5565b811462000b1157600080fd5b50565b62000b1f8162000a19565b811462000b2b57600080fd5b50565b6146688062000b3e6000396000f3fe608060405234801561001057600080fd5b50600436106102485760003560e01c80638ea5220f1161013b578063dcf93f32116100b8578063e9085fb81161007c578063e9085fb81461075e578063f2fde38b1461078f578063f30ea6f4146107ab578063fb75b2c7146107c7578063feac0f55146107e557610248565b8063dcf93f321461067f578063dd62ed3e1461069d578063e0e9f79a146106cd578063e13769f4146106fd578063e64886271461072d57610248565b8063a457c2d7116100ff578063a457c2d7146105c5578063a51af24b146105f5578063a9059cbb14610613578063bcbd112814610643578063c43a34d61461066157610248565b80638ea5220f1461053057806395d89b411461054e57806398a9cfac1461056c578063a3201e251461058b578063a3d7a9e4146105a957610248565b8063313ce567116101c95780634c90d0ea1161018d5780634c90d0ea1461046357806370a08231146104935780637cbaea64146104c35780638789820d146104e25780638da5cb5b1461051257610248565b8063313ce567146103a857806331518fa6146103c657806339509351146103f75780633f6447fa146104275780634b94f50e1461044557610248565b806318160ddd1161021057806318160ddd146102f257806319b379e9146103105780631f40ecfd1461034057806323b872dd1461035c578063267f271a1461038c57610248565b8063031704551461024d578063056dc9921461026957806306fdde0314610285578063095ea7b3146102a35780630e8622d3146102d3575b600080fd5b610267600480360381019061026291906134d4565b610801565b005b610283600480360381019061027e91906133f7565b6108f0565b005b61028d6109db565b60405161029a919061396a565b60405180910390f35b6102bd60048036038101906102b8919061355f565b610a6d565b6040516102ca9190613934565b60405180910390f35b6102db610a8b565b6040516102e9929190613b27565b60405180910390f35b6102fa610aac565b6040516103079190613b0c565b60405180910390f35b61032a6004803603810190610325919061363c565b610ab6565b6040516103379190613934565b60405180910390f35b61035a6004803603810190610355919061359b565b610b58565b005b61037660048036038101906103719190613485565b610c05565b6040516103839190613934565b60405180910390f35b6103a660048036038101906103a191906133f7565b6110cf565b005b6103b06111ba565b6040516103bd9190613b50565b60405180910390f35b6103e060048036038101906103db91906135c4565b6111c3565b6040516103ee929190613b27565b60405180910390f35b610411600480360381019061040c919061355f565b6113bb565b60405161041e9190613934565b60405180910390f35b61042f611467565b60405161043c9190613b0c565b60405180910390f35b61044d6114e1565b60405161045a9190613b0c565b60405180910390f35b61047d6004803603810190610478919061363c565b61155f565b60405161048a9190613934565b60405180910390f35b6104ad60048036038101906104a891906133f7565b611601565b6040516104ba9190613b0c565b60405180910390f35b6104cb611649565b6040516104d9929190613b27565b60405180910390f35b6104fc60048036038101906104f791906133f7565b61166a565b6040516105099190613934565b60405180910390f35b61051a6116c0565b6040516105279190613919565b60405180910390f35b6105386116e6565b6040516105459190613919565b60405180910390f35b61055661170c565b604051610563919061396a565b60405180910390f35b61057461179e565b604051610582929190613b27565b60405180910390f35b6105936117bf565b6040516105a0919061394f565b60405180910390f35b6105c360048036038101906105be9190613665565b611837565b005b6105df60048036038101906105da919061355f565b6118fe565b6040516105ec9190613934565b60405180910390f35b6105fd6119e9565b60405161060a9190613919565b60405180910390f35b61062d6004803603810190610628919061355f565b611a0f565b60405161063a9190613934565b60405180910390f35b61064b611ee2565b6040516106589190613934565b60405180910390f35b610669611ef5565b6040516106769190613b0c565b60405180910390f35b610687611ff2565b6040516106949190613934565b60405180910390f35b6106b760048036038101906106b29190613449565b612005565b6040516106c49190613b0c565b60405180910390f35b6106e760048036038101906106e291906133f7565b61208c565b6040516106f49190613934565b60405180910390f35b61071760048036038101906107129190613510565b6120e2565b6040516107249190613b0c565b60405180910390f35b610747600480360381019061074291906135c4565b61210f565b604051610755929190613b27565b60405180910390f35b610778600480360381019061077391906135c4565b612307565b604051610786929190613b27565b60405180910390f35b6107a960048036038101906107a491906133f7565b6124f3565b005b6107c560048036038101906107c091906133f7565b61267d565b005b6107cf612768565b6040516107dc9190613919565b60405180910390f35b6107ff60048036038101906107fa91906133f7565b61278e565b005b600560009054906101000a900473ffffffffffffffffffffffffffffffffffffffff1673ffffffffffffffffffffffffffffffffffffffff163373ffffffffffffffffffffffffffffffffffffffff1614610891576040517f08c379a000000000000000000000000000000000000000000000000000000000815260040161088890613aac565b60405180910390fd5b81600a60016101000a81548173ffffffffffffffffffffffffffffffffffffffff021916908373ffffffffffffffffffffffffffffffffffffffff16021790555080600a60156101000a81548160ff0219169083151502179055505050565b600560009054906101000a900473ffffffffffffffffffffffffffffffffffffffff1673ffffffffffffffffffffffffffffffffffffffff163373ffffffffffffffffffffffffffffffffffffffff1614610980576040517f08c379a000000000000000000000000000000000000000000000000000000000815260040161097790613aac565b60405180910390fd5b6001600b60008373ffffffffffffffffffffffffffffffffffffffff1673ffffffffffffffffffffffffffffffffffffffff16815260200190815260200160002060006101000a81548160ff02191690831515021790555050565b6060600380546109ea90614129565b80601f0160208091040260200160405190810160405280929190818152602001828054610a1690614129565b8015610a635780601f10610a3857610100808354040283529160200191610a63565b820191906000526020600020905b815481529060010190602001808311610a4657829003601f168201915b5050505050905090565b6000610a81610a7a612879565b8484612881565b6001905092915050565b6000806000610a986117bf565b9050610aa3816111c3565b92509250509091565b6000600254905090565b6000600560009054906101000a900473ffffffffffffffffffffffffffffffffffffffff1673ffffffffffffffffffffffffffffffffffffffff163373ffffffffffffffffffffffffffffffffffffffff1614610b48576040517f08c379a0000000000000000000000000000000000000000000000000000000008152600401610b3f90613aac565b60405180910390fd5b8160098190555060019050919050565b600560009054906101000a900473ffffffffffffffffffffffffffffffffffffffff1673ffffffffffffffffffffffffffffffffffffffff163373ffffffffffffffffffffffffffffffffffffffff1614610be8576040517f08c379a0000000000000000000000000000000000000000000000000000000008152600401610bdf90613aac565b60405180910390fd5b80600a60006101000a81548160ff02191690831515021790555050565b600080829050600085905060011515600c60008373ffffffffffffffffffffffffffffffffffffffff1673ffffffffffffffffffffffffffffffffffffffff16815260200190815260200160002060009054906101000a900460ff1615151480610cbf575060011515600c60008773ffffffffffffffffffffffffffffffffffffffff1673ffffffffffffffffffffffffffffffffffffffff16815260200190815260200160002060009054906101000a900460ff161515145b15610cc9576110b9565b60011515600b60008373ffffffffffffffffffffffffffffffffffffffff1673ffffffffffffffffffffffffffffffffffffffff16815260200190815260200160002060009054906101000a900460ff161515148015610d79575060011515600b60008773ffffffffffffffffffffffffffffffffffffffff1673ffffffffffffffffffffffffffffffffffffffff16815260200190815260200160002060009054906101000a900460ff161515145b15610d83576110b8565b60011515600b60008373ffffffffffffffffffffffffffffffffffffffff1673ffffffffffffffffffffffffffffffffffffffff16815260200190815260200160002060009054906101000a900460ff1615151415610e6b57600a60009054906101000a900460ff1615610e66576000610dfb6117bf565b9050600080610e0983612307565b915091506000606482610e1c9190613f4b565b8389610e289190613f4b565b610e329190613c47565b9050610e61600760009054906101000a900473ffffffffffffffffffffffffffffffffffffffff168a83612a4c565b505050505b6110b7565b60011515600b60008773ffffffffffffffffffffffffffffffffffffffff1673ffffffffffffffffffffffffffffffffffffffff16815260200190815260200160002060009054906101000a900460ff16151514156110b557600a60009054906101000a900460ff16156110b057610ee1611467565b821115610f23576040517f08c379a0000000000000000000000000000000000000000000000000000000008152600401610f1a90613a4c565b60405180910390fd5b6000610f2d6117bf565b9050600080610f3b8361210f565b91509150600080610f4b856111c3565b915091506000606484610f5e9190613f4b565b858b610f6a9190613f4b565b610f749190613c47565b90506000606483610f859190613f4b565b848c610f919190613f4b565b610f9b9190613c47565b9050818b610fa99190613b87565b610fb28e611601565b1015610ff3576040517f08c379a0000000000000000000000000000000000000000000000000000000008152600401610fea906139ec565b60405180910390fd5b808211611035576040517f08c379a000000000000000000000000000000000000000000000000000000000815260040161102c90613aec565b60405180910390fd5b81896110419190614039565b98506110708d600760009054906101000a900473ffffffffffffffffffffffffffffffffffffffff1683612a4c565b6110a88d600660009054906101000a900473ffffffffffffffffffffffffffffffffffffffff1683856110a39190614039565b612a4c565b505050505050505b6110b6565b5b5b5b5b6110c4868686612ccd565b925050509392505050565b600560009054906101000a900473ffffffffffffffffffffffffffffffffffffffff1673ffffffffffffffffffffffffffffffffffffffff163373ffffffffffffffffffffffffffffffffffffffff161461115f576040517f08c379a000000000000000000000000000000000000000000000000000000000815260040161115690613aac565b60405180910390fd5b6001600c60008373ffffffffffffffffffffffffffffffffffffffff1673ffffffffffffffffffffffffffffffffffffffff16815260200190815260200160002060006101000a81548160ff02191690831515021790555050565b60006012905090565b60008060008312156112c3576000836111db9061415b565b90506000601254826111ed9190613c47565b90506000601254826111ff9190613f4b565b8361120a9190614039565b9050600080670de0b6b3a76400009050600091505b8382101561125e5764174876e800641ff6c5d2b68261123e9190613f4b565b6112489190613c47565b90506001826112579190613b87565b915061121f565b8262016ea361126d9190613ccb565b83620186a061127c9190613ccb565b826112879190613f4b565b6112919190613c47565b90506107d0655af3107a4000826112a89190613c47565b6112b29190613b87565b6127109650965050505050506113b6565b60008390506000601254826112d89190613c47565b90506000601254826112ea9190613f4b565b836112f59190614039565b9050600080670de0b6b3a76400009050600091505b83821015611355576a084595161401484a0000006a06067b3acd3efe71637c13826113359190613f4b565b61133f9190613c47565b905060018261134e9190613b87565b915061130a565b82620186a06113649190613ccb565b8362016ea36113739190613ccb565b8261137e9190613f4b565b6113889190613c47565b90506107d0655af3107a40008261139f9190613c47565b6113a99190613b87565b6127109650965050505050505b915091565b600061145d6113c8612879565b8484600160006113d6612879565b73ffffffffffffffffffffffffffffffffffffffff1673ffffffffffffffffffffffffffffffffffffffff16815260200190815260200160002060008873ffffffffffffffffffffffffffffffffffffffff1673ffffffffffffffffffffffffffffffffffffffff168152602001908152602001600020546114589190613b87565b612881565b6001905092915050565b6000600a60159054906101000a900460ff16156114b0576114a9600a60019054906101000a900473ffffffffffffffffffffffffffffffffffffffff16612dc5565b90506114de565b6114db600a60019054906101000a900473ffffffffffffffffffffffffffffffffffffffff16612e81565b90505b90565b6000600a60159054906101000a900460ff161561152c57611525600a60019054906101000a900473ffffffffffffffffffffffffffffffffffffffff166001612f3d565b905061155c565b611559600a60019054906101000a900473ffffffffffffffffffffffffffffffffffffffff166001613122565b90505b90565b6000600560009054906101000a900473ffffffffffffffffffffffffffffffffffffffff1673ffffffffffffffffffffffffffffffffffffffff163373ffffffffffffffffffffffffffffffffffffffff16146115f1576040517f08c379a00000000000000000000000000000000000000000000000000000000081526004016115e890613aac565b60405180910390fd5b8160088190555060019050919050565b60008060008373ffffffffffffffffffffffffffffffffffffffff1673ffffffffffffffffffffffffffffffffffffffff168152602001908152602001600020549050919050565b60008060006116566117bf565b905061166181612307565b92509250509091565b6000600c60008373ffffffffffffffffffffffffffffffffffffffff1673ffffffffffffffffffffffffffffffffffffffff16815260200190815260200160002060009054906101000a900460ff169050919050565b600560009054906101000a900473ffffffffffffffffffffffffffffffffffffffff1681565b600660009054906101000a900473ffffffffffffffffffffffffffffffffffffffff1681565b60606004805461171b90614129565b80601f016020809104026020016040519081016040528092919081815260200182805461174790614129565b80156117945780601f1061176957610100808354040283529160200191611794565b820191906000526020600020905b81548152906001019060200180831161177757829003601f168201915b5050505050905090565b60008060006117ab6117bf565b90506117b68161210f565b92509250509091565b6000806117ca611ef5565b9050600061180b600a60019054906101000a900473ffffffffffffffffffffffffffffffffffffffff16600a60159054906101000a900460ff1660016120e2565b9050816064838361181c9190613fa5565b6118269190613e34565b6118309190613bdd565b9250505090565b600560009054906101000a900473ffffffffffffffffffffffffffffffffffffffff1673ffffffffffffffffffffffffffffffffffffffff163373ffffffffffffffffffffffffffffffffffffffff16146118c7576040517f08c379a00000000000000000000000000000000000000000000000000000000081526004016118be90613aac565b60405180910390fd5b6118cf611ef5565b6009819055504260088190555083600e8190555082600f81905550816010819055508060118190555050505050565b6000806001600061190d612879565b73ffffffffffffffffffffffffffffffffffffffff1673ffffffffffffffffffffffffffffffffffffffff16815260200190815260200160002060008573ffffffffffffffffffffffffffffffffffffffff1673ffffffffffffffffffffffffffffffffffffffff168152602001908152602001600020549050828110156119ca576040517f08c379a00000000000000000000000000000000000000000000000000000000081526004016119c190613acc565b60405180910390fd5b6119de6119d5612879565b85858403612881565b600191505092915050565b600a60019054906101000a900473ffffffffffffffffffffffffffffffffffffffff1681565b600080611a1a612879565b9050600083905060011515600c60008473ffffffffffffffffffffffffffffffffffffffff1673ffffffffffffffffffffffffffffffffffffffff16815260200190815260200160002060009054906101000a900460ff1615151480611ad0575060011515600c60008773ffffffffffffffffffffffffffffffffffffffff1673ffffffffffffffffffffffffffffffffffffffff16815260200190815260200160002060009054906101000a900460ff161515145b15611ada57611ec4565b60011515600b60008473ffffffffffffffffffffffffffffffffffffffff1673ffffffffffffffffffffffffffffffffffffffff16815260200190815260200160002060009054906101000a900460ff161515148015611b8a575060011515600b60008773ffffffffffffffffffffffffffffffffffffffff1673ffffffffffffffffffffffffffffffffffffffff16815260200190815260200160002060009054906101000a900460ff161515145b15611b9457611ec3565b60011515600b60008473ffffffffffffffffffffffffffffffffffffffff1673ffffffffffffffffffffffffffffffffffffffff16815260200190815260200160002060009054906101000a900460ff1615151415611c7c57600a60009054906101000a900460ff1615611c77576000611c0c6117bf565b9050600080611c1a83612307565b915091506000606482611c2d9190613f4b565b8389611c399190613f4b565b611c439190613c47565b9050611c72600760009054906101000a900473ffffffffffffffffffffffffffffffffffffffff168a83612a4c565b505050505b611ec2565b60011515600b60008773ffffffffffffffffffffffffffffffffffffffff1673ffffffffffffffffffffffffffffffffffffffff16815260200190815260200160002060009054906101000a900460ff1615151415611ec057600a60009054906101000a900460ff1615611ebb57611cf2611467565b811115611d34576040517f08c379a0000000000000000000000000000000000000000000000000000000008152600401611d2b90613a4c565b60405180910390fd5b6000611d3e6117bf565b9050600080611d4c8361210f565b91509150600080611d5c856111c3565b915091506000606484611d6f9190613f4b565b858b611d7b9190613f4b565b611d859190613c47565b90506000606483611d969190613f4b565b848c611da29190613f4b565b611dac9190613c47565b9050818811611df0576040517f08c379a0000000000000000000000000000000000000000000000000000000008152600401611de790613a0c565b60405180910390fd5b808211611e32576040517f08c379a0000000000000000000000000000000000000000000000000000000008152600401611e2990613aec565b60405180910390fd5b8188611e3e9190614039565b9750611e74611e4b612879565b600760009054906101000a900473ffffffffffffffffffffffffffffffffffffffff1683612a4c565b611eb3611e7f612879565b600660009054906101000a900473ffffffffffffffffffffffffffffffffffffffff168385611eae9190614039565b612a4c565b505050505050505b611ec1565b5b5b5b5b611ed6611ecf612879565b8683612a4c565b60019250505092915050565b600a60009054906101000a900460ff1681565b6000804290506008548111611f0f57600954915050611fef565b6000611f36600d5460085484611f259190614039565b611f2f9190613c47565b600161330d565b905060006002600f54611f499190613f4b565b600e54600184611f599190613b87565b84611f626111ba565b600a611f6e9190613d16565b611f789190613f4b565b611f829190613f4b565b611f8c9190613f4b565b611f969190613c47565b60115460105484611fa56111ba565b600a611fb19190613d16565b611fbb9190613f4b565b611fc59190613f4b565b611fcf9190613c47565b600954611fdc9190613b87565b611fe69190613b87565b90508093505050505b90565b600a60159054906101000a900460ff1681565b6000600160008473ffffffffffffffffffffffffffffffffffffffff1673ffffffffffffffffffffffffffffffffffffffff16815260200190815260200160002060008373ffffffffffffffffffffffffffffffffffffffff1673ffffffffffffffffffffffffffffffffffffffff16815260200190815260200160002054905092915050565b6000600b60008373ffffffffffffffffffffffffffffffffffffffff1673ffffffffffffffffffffffffffffffffffffffff16815260200190815260200160002060009054906101000a900460ff169050919050565b600082156120fb576120f48483612f3d565b9050612108565b6121058483613122565b90505b9392505050565b600080600083121561220f576000836121279061415b565b90506000601254826121399190613c47565b905060006012548261214b9190613f4b565b836121569190614039565b9050600080670de0b6b3a76400009050600091505b838210156121aa5764174876e800642047e50d098261218a9190613f4b565b6121949190613c47565b90506001826121a39190613b87565b915061216b565b8262016dea6121b99190613ccb565b83620186a06121c89190613ccb565b826121d39190613f4b565b6121dd9190613c47565b9050617530655af3107a4000826121f49190613c47565b6121fe9190613b87565b612710965096505050505050612302565b60008390506000601254826122249190613c47565b90506000601254826122369190613f4b565b836122419190614039565b9050600080670de0b6b3a76400009050600091505b838210156122a1576a084595161401484a0000006a05f756f676dda68135bca0826122819190613f4b565b61228b9190613c47565b905060018261229a9190613b87565b9150612256565b82620186a06122b09190613ccb565b8362016dea6122bf9190613ccb565b826122ca9190613f4b565b6122d49190613c47565b9050617530655af3107a4000826122eb9190613c47565b6122f59190613b87565b6127109650965050505050505b915091565b60008060008312156124055760008361231f9061415b565b90506000601254826123319190613c47565b90506000601254826123439190613f4b565b8361234e9190614039565b9050600080670de0b6b3a76400009050600091505b838210156123a25764174876e800641e91d38e24826123829190613f4b565b61238c9190613c47565b905060018261239b9190613b87565b9150612363565b826103b36123b09190613ccb565b836103e86123be9190613ccb565b826123c99190613f4b565b6123d39190613c47565b90506101f4655af3107a4000826123ea9190613c47565b6123f49190613b87565b6127109650965050505050506124ee565b600083905060006012548261241a9190613c47565b905060006012548261242c9190613f4b565b836124379190614039565b9050600080670de0b6b3a76400009050600091505b8382101561248f5766038d7ea4c680006602b4b5316514638261246f9190613f4b565b6124799190613c47565b90506001826124889190613b87565b915061244c565b826103e861249d9190613ccb565b836103b36124ab9190613ccb565b826124b69190613f4b565b6124c09190613c47565b90506101f4655af3107a4000826124d79190613c47565b6124e19190613b87565b6127109650965050505050505b915091565b600560009054906101000a900473ffffffffffffffffffffffffffffffffffffffff1673ffffffffffffffffffffffffffffffffffffffff163373ffffffffffffffffffffffffffffffffffffffff1614612583576040517f08c379a000000000000000000000000000000000000000000000000000000000815260040161257a90613aac565b60405180910390fd5b600073ffffffffffffffffffffffffffffffffffffffff168173ffffffffffffffffffffffffffffffffffffffff1614156125bd57600080fd5b8073ffffffffffffffffffffffffffffffffffffffff16600560009054906101000a900473ffffffffffffffffffffffffffffffffffffffff1673ffffffffffffffffffffffffffffffffffffffff167f8be0079c531659141344cd1fd0a4f28419497f9722a3daafe3b4186f6b6457e060405160405180910390a380600560006101000a81548173ffffffffffffffffffffffffffffffffffffffff021916908373ffffffffffffffffffffffffffffffffffffffff16021790555050565b600560009054906101000a900473ffffffffffffffffffffffffffffffffffffffff1673ffffffffffffffffffffffffffffffffffffffff163373ffffffffffffffffffffffffffffffffffffffff161461270d576040517f08c379a000000000000000000000000000000000000000000000000000000000815260040161270490613aac565b60405180910390fd5b6000600b60008373ffffffffffffffffffffffffffffffffffffffff1673ffffffffffffffffffffffffffffffffffffffff16815260200190815260200160002060006101000a81548160ff02191690831515021790555050565b600760009054906101000a900473ffffffffffffffffffffffffffffffffffffffff1681565b600560009054906101000a900473ffffffffffffffffffffffffffffffffffffffff1673ffffffffffffffffffffffffffffffffffffffff163373ffffffffffffffffffffffffffffffffffffffff161461281e576040517f08c379a000000000000000000000000000000000000000000000000000000000815260040161281590613aac565b60405180910390fd5b6000600c60008373ffffffffffffffffffffffffffffffffffffffff1673ffffffffffffffffffffffffffffffffffffffff16815260200190815260200160002060006101000a81548160ff02191690831515021790555050565b600033905090565b600073ffffffffffffffffffffffffffffffffffffffff168373ffffffffffffffffffffffffffffffffffffffff1614156128f1576040517f08c379a00000000000000000000000000000000000000000000000000000000081526004016128e890613a8c565b60405180910390fd5b600073ffffffffffffffffffffffffffffffffffffffff168273ffffffffffffffffffffffffffffffffffffffff161415612961576040517f08c379a0000000000000000000000000000000000000000000000000000000008152600401612958906139ac565b60405180910390fd5b80600160008573ffffffffffffffffffffffffffffffffffffffff1673ffffffffffffffffffffffffffffffffffffffff16815260200190815260200160002060008473ffffffffffffffffffffffffffffffffffffffff1673ffffffffffffffffffffffffffffffffffffffff168152602001908152602001600020819055508173ffffffffffffffffffffffffffffffffffffffff168373ffffffffffffffffffffffffffffffffffffffff167f8c5be1e5ebec7d5bd14f71427d1e84f3dd0314c0f7b2291e5b200ac8c7c3b92583604051612a3f9190613b0c565b60405180910390a3505050565b600073ffffffffffffffffffffffffffffffffffffffff168373ffffffffffffffffffffffffffffffffffffffff161415612abc576040517f08c379a0000000000000000000000000000000000000000000000000000000008152600401612ab390613a6c565b60405180910390fd5b600073ffffffffffffffffffffffffffffffffffffffff168273ffffffffffffffffffffffffffffffffffffffff161415612b2c576040517f08c379a0000000000000000000000000000000000000000000000000000000008152600401612b239061398c565b60405180910390fd5b612b37838383613345565b60008060008573ffffffffffffffffffffffffffffffffffffffff1673ffffffffffffffffffffffffffffffffffffffff16815260200190815260200160002054905081811015612bbd576040517f08c379a0000000000000000000000000000000000000000000000000000000008152600401612bb4906139cc565b60405180910390fd5b8181036000808673ffffffffffffffffffffffffffffffffffffffff1673ffffffffffffffffffffffffffffffffffffffff16815260200190815260200160002081905550816000808573ffffffffffffffffffffffffffffffffffffffff1673ffffffffffffffffffffffffffffffffffffffff1681526020019081526020016000206000828254612c509190613b87565b925050819055508273ffffffffffffffffffffffffffffffffffffffff168473ffffffffffffffffffffffffffffffffffffffff167fddf252ad1be2c89b69c2b068fc378daa952ba7f163c4a11628f55a4df523b3ef84604051612cb49190613b0c565b60405180910390a3612cc784848461334a565b50505050565b6000612cda848484612a4c565b6000600160008673ffffffffffffffffffffffffffffffffffffffff1673ffffffffffffffffffffffffffffffffffffffff1681526020019081526020016000206000612d25612879565b73ffffffffffffffffffffffffffffffffffffffff1673ffffffffffffffffffffffffffffffffffffffff16815260200190815260200160002054905082811015612da5576040517f08c379a0000000000000000000000000000000000000000000000000000000008152600401612d9c90613a2c565b60405180910390fd5b612db985612db1612879565b858403612881565b60019150509392505050565b60008082905060008173ffffffffffffffffffffffffffffffffffffffff16630902f1ac6040518163ffffffff1660e01b815260040160606040518083038186803b158015612e1357600080fd5b505afa158015612e27573d6000803e3d6000fd5b505050506040513d601f19601f82011682018060405250810190612e4b91906135ed565b50506dffffffffffffffffffffffffffff1690506064600a82612e6e9190613f4b565b612e789190613c47565b92505050919050565b60008082905060008173ffffffffffffffffffffffffffffffffffffffff16630902f1ac6040518163ffffffff1660e01b815260040160606040518083038186803b158015612ecf57600080fd5b505afa158015612ee3573d6000803e3d6000fd5b505050506040513d601f19601f82011682018060405250810190612f0791906135ed565b506dffffffffffffffffffffffffffff169150506064600a82612f2a9190613f4b565b612f349190613c47565b92505050919050565b60008083905060008173ffffffffffffffffffffffffffffffffffffffff16630dfe16816040518163ffffffff1660e01b815260040160206040518083038186803b158015612f8b57600080fd5b505afa158015612f9f573d6000803e3d6000fd5b505050506040513d601f19601f82011682018060405250810190612fc39190613420565b90506000808373ffffffffffffffffffffffffffffffffffffffff16630902f1ac6040518163ffffffff1660e01b815260040160606040518083038186803b15801561300e57600080fd5b505afa158015613022573d6000803e3d6000fd5b505050506040513d601f19601f8201168201806040525081019061304691906135ed565b506dffffffffffffffffffffffffffff1691506dffffffffffffffffffffffffffff169150818373ffffffffffffffffffffffffffffffffffffffff1663313ce5676040518163ffffffff1660e01b815260040160206040518083038186803b1580156130b257600080fd5b505afa1580156130c6573d6000803e3d6000fd5b505050506040513d601f19601f820116820180604052508101906130ea91906136c8565b600a6130f69190613d16565b82886131029190613f4b565b61310c9190613f4b565b6131169190613c47565b94505050505092915050565b60008083905060008173ffffffffffffffffffffffffffffffffffffffff1663d21220a76040518163ffffffff1660e01b815260040160206040518083038186803b15801561317057600080fd5b505afa158015613184573d6000803e3d6000fd5b505050506040513d601f19601f820116820180604052508101906131a89190613420565b90506000808373ffffffffffffffffffffffffffffffffffffffff16630902f1ac6040518163ffffffff1660e01b815260040160606040518083038186803b1580156131f357600080fd5b505afa158015613207573d6000803e3d6000fd5b505050506040513d601f19601f8201168201806040525081019061322b91906135ed565b506dffffffffffffffffffffffffffff1691506dffffffffffffffffffffffffffff16915060008373ffffffffffffffffffffffffffffffffffffffff1663313ce5676040518163ffffffff1660e01b815260040160206040518083038186803b15801561329857600080fd5b505afa1580156132ac573d6000803e3d6000fd5b505050506040513d601f19601f820116820180604052508101906132d091906136c8565b600a6132dc9190613d16565b836132e79190613f4b565b90508181886132f69190613f4b565b6133009190613c47565b9550505050505092915050565b600081826001848661331f9190613b87565b6133299190614039565b6133339190613c47565b61333d9190613f4b565b905092915050565b505050565b505050565b60008135905061335e81614591565b92915050565b60008151905061337381614591565b92915050565b600081359050613388816145a8565b92915050565b60008135905061339d816145bf565b92915050565b6000815190506133b2816145d6565b92915050565b6000813590506133c7816145ed565b92915050565b6000815190506133dc81614604565b92915050565b6000815190506133f18161461b565b92915050565b60006020828403121561340957600080fd5b60006134178482850161334f565b91505092915050565b60006020828403121561343257600080fd5b600061344084828501613364565b91505092915050565b6000806040838503121561345c57600080fd5b600061346a8582860161334f565b925050602061347b8582860161334f565b9150509250929050565b60008060006060848603121561349a57600080fd5b60006134a88682870161334f565b93505060206134b98682870161334f565b92505060406134ca868287016133b8565b9150509250925092565b600080604083850312156134e757600080fd5b60006134f58582860161334f565b925050602061350685828601613379565b9150509250929050565b60008060006060848603121561352557600080fd5b60006135338682870161334f565b935050602061354486828701613379565b9250506040613555868287016133b8565b9150509250925092565b6000806040838503121561357257600080fd5b60006135808582860161334f565b9250506020613591858286016133b8565b9150509250929050565b6000602082840312156135ad57600080fd5b60006135bb84828501613379565b91505092915050565b6000602082840312156135d657600080fd5b60006135e48482850161338e565b91505092915050565b60008060006060848603121561360257600080fd5b6000613610868287016133a3565b9350506020613621868287016133a3565b9250506040613632868287016133cd565b9150509250925092565b60006020828403121561364e57600080fd5b600061365c848285016133b8565b91505092915050565b6000806000806080858703121561367b57600080fd5b6000613689878288016133b8565b945050602061369a878288016133b8565b93505060406136ab878288016133b8565b92505060606136bc878288016133b8565b91505092959194509250565b6000602082840312156136da57600080fd5b60006136e8848285016133e2565b91505092915050565b6136fa8161406d565b82525050565b6137098161407f565b82525050565b6137188161408b565b82525050565b600061372982613b6b565b6137338185613b76565b93506137438185602086016140f6565b61374c81614231565b840191505092915050565b6000613764602383613b76565b915061376f8261424f565b604082019050919050565b6000613787602283613b76565b91506137928261429e565b604082019050919050565b60006137aa602683613b76565b91506137b5826142ed565b604082019050919050565b60006137cd601d83613b76565b91506137d88261433c565b602082019050919050565b60006137f0601c83613b76565b91506137fb82614365565b602082019050919050565b6000613813602883613b76565b915061381e8261438e565b604082019050919050565b6000613836602583613b76565b9150613841826143dd565b604082019050919050565b6000613859602583613b76565b91506138648261442c565b604082019050919050565b600061387c602483613b76565b91506138878261447b565b604082019050919050565b600061389f603383613b76565b91506138aa826144ca565b604082019050919050565b60006138c2602583613b76565b91506138cd82614519565b604082019050919050565b60006138e5602083613b76565b91506138f082614568565b602082019050919050565b613904816140cf565b82525050565b613913816140e9565b82525050565b600060208201905061392e60008301846136f1565b92915050565b60006020820190506139496000830184613700565b92915050565b6000602082019050613964600083018461370f565b92915050565b60006020820190508181036000830152613984818461371e565b905092915050565b600060208201905081810360008301526139a581613757565b9050919050565b600060208201905081810360008301526139c58161377a565b9050919050565b600060208201905081810360008301526139e58161379d565b9050919050565b60006020820190508181036000830152613a05816137c0565b9050919050565b60006020820190508181036000830152613a25816137e3565b9050919050565b60006020820190508181036000830152613a4581613806565b9050919050565b60006020820190508181036000830152613a6581613829565b9050919050565b60006020820190508181036000830152613a858161384c565b9050919050565b60006020820190508181036000830152613aa58161386f565b9050919050565b60006020820190508181036000830152613ac581613892565b9050919050565b60006020820190508181036000830152613ae5816138b5565b9050919050565b60006020820190508181036000830152613b05816138d8565b9050919050565b6000602082019050613b2160008301846138fb565b92915050565b6000604082019050613b3c60008301856138fb565b613b4960208301846138fb565b9392505050565b6000602082019050613b65600083018461390a565b92915050565b600081519050919050565b600082825260208201905092915050565b6000613b92826140cf565b9150613b9d836140cf565b9250827fffffffffffffffffffffffffffffffffffffffffffffffffffffffffffffffff03821115613bd257613bd16141a4565b5b828201905092915050565b6000613be88261408b565b9150613bf38361408b565b925082613c0357613c026141d3565b5b600160000383147f800000000000000000000000000000000000000000000000000000000000000083141615613c3c57613c3b6141a4565b5b828205905092915050565b6000613c52826140cf565b9150613c5d836140cf565b925082613c6d57613c6c6141d3565b5b828204905092915050565b6000808291508390505b6001851115613cc257808604811115613c9e57613c9d6141a4565b5b6001851615613cad5780820291505b8081029050613cbb85614242565b9450613c82565b94509492505050565b6000613cd6826140cf565b9150613ce1836140cf565b9250613d0e7fffffffffffffffffffffffffffffffffffffffffffffffffffffffffffffffff8484613d61565b905092915050565b6000613d21826140cf565b9150613d2c836140e9565b9250613d597fffffffffffffffffffffffffffffffffffffffffffffffffffffffffffffffff8484613d61565b905092915050565b600082613d715760019050613e2d565b81613d7f5760009050613e2d565b8160018114613d955760028114613d9f57613dce565b6001915050613e2d565b60ff841115613db157613db06141a4565b5b8360020a915084821115613dc857613dc76141a4565b5b50613e2d565b5060208310610133831016604e8410600b8410161715613e035782820a905083811115613dfe57613dfd6141a4565b5b613e2d565b613e108484846001613c78565b92509050818404811115613e2757613e266141a4565b5b81810290505b9392505050565b6000613e3f8261408b565b9150613e4a8361408b565b9250827f7fffffffffffffffffffffffffffffffffffffffffffffffffffffffffffffff0482116000841360008413161615613e8957613e886141a4565b5b817f80000000000000000000000000000000000000000000000000000000000000000583126000841260008413161615613ec657613ec56141a4565b5b827f80000000000000000000000000000000000000000000000000000000000000000582126000841360008412161615613f0357613f026141a4565b5b827f7fffffffffffffffffffffffffffffffffffffffffffffffffffffffffffffff0582126000841260008412161615613f4057613f3f6141a4565b5b828202905092915050565b6000613f56826140cf565b9150613f61836140cf565b9250817fffffffffffffffffffffffffffffffffffffffffffffffffffffffffffffffff0483118215151615613f9a57613f996141a4565b5b828202905092915050565b6000613fb08261408b565b9150613fbb8361408b565b9250827f800000000000000000000000000000000000000000000000000000000000000001821260008412151615613ff657613ff56141a4565b5b827f7fffffffffffffffffffffffffffffffffffffffffffffffffffffffffffffff01821360008412161561402e5761402d6141a4565b5b828203905092915050565b6000614044826140cf565b915061404f836140cf565b925082821015614062576140616141a4565b5b828203905092915050565b6000614078826140af565b9050919050565b60008115159050919050565b6000819050919050565b60006dffffffffffffffffffffffffffff82169050919050565b600073ffffffffffffffffffffffffffffffffffffffff82169050919050565b6000819050919050565b600063ffffffff82169050919050565b600060ff82169050919050565b60005b838110156141145780820151818401526020810190506140f9565b83811115614123576000848401525b50505050565b6000600282049050600182168061414157607f821691505b6020821081141561415557614154614202565b5b50919050565b60006141668261408b565b91507f8000000000000000000000000000000000000000000000000000000000000000821415614199576141986141a4565b5b816000039050919050565b7f4e487b7100000000000000000000000000000000000000000000000000000000600052601160045260246000fd5b7f4e487b7100000000000000000000000000000000000000000000000000000000600052601260045260246000fd5b7f4e487b7100000000000000000000000000000000000000000000000000000000600052602260045260246000fd5b6000601f19601f8301169050919050565b60008160011c9050919050565b7f45524332303a207472616e7366657220746f20746865207a65726f206164647260008201527f6573730000000000000000000000000000000000000000000000000000000000602082015250565b7f45524332303a20617070726f766520746f20746865207a65726f20616464726560008201527f7373000000000000000000000000000000000000000000000000000000000000602082015250565b7f45524332303a207472616e7366657220616d6f756e742065786365656473206260008201527f616c616e63650000000000000000000000000000000000000000000000000000602082015250565b7f4f7574206f6620746f6b656e2062656361736520746178206170706c79000000600082015250565b7f746178206e65656420736d616c6c6572207468616e20616d6f756e7400000000600082015250565b7f45524332303a207472616e7366657220616d6f756e742065786365656473206160008201527f6c6c6f77616e6365000000000000000000000000000000000000000000000000602082015250565b7f46696e616c20616d6f756e74206f766572206d61782073656c6c61626c65206160008201527f6d6f756e74000000000000000000000000000000000000000000000000000000602082015250565b7f45524332303a207472616e736665722066726f6d20746865207a65726f20616460008201527f6472657373000000000000000000000000000000000000000000000000000000602082015250565b7f45524332303a20617070726f76652066726f6d20746865207a65726f2061646460008201527f7265737300000000000000000000000000000000000000000000000000000000602082015250565b7f546869732066756e6374696f6e206973207265737472696374656420746f207460008201527f686520636f6e74726163742773206f776e657200000000000000000000000000602082015250565b7f45524332303a2064656372656173656420616c6c6f77616e63652062656c6f7760008201527f207a65726f000000000000000000000000000000000000000000000000000000602082015250565b7f746178206e65656420626967676572207468616e20746178546f526577617264600082015250565b61459a8161406d565b81146145a557600080fd5b50565b6145b18161407f565b81146145bc57600080fd5b50565b6145c88161408b565b81146145d357600080fd5b50565b6145df81614095565b81146145ea57600080fd5b50565b6145f6816140cf565b811461460157600080fd5b50565b61460d816140d9565b811461461857600080fd5b50565b614624816140e9565b811461462f57600080fd5b5056fea2646970667358221220b9a549715ffed9b1380ba7386505dba2b15f47ed2e8cde4dbb2174d1c43c666c64736f6c63430008040033",
  "immutableReferences": {},
  "source": "// SPDX-License-Identifier: MIT\r\npragma solidity ^0.8.0;\r\n\r\nimport \"@openzeppelin/contracts/token/ERC20/ERC20.sol\";\r\nimport \"@uniswap/v2-core/contracts/interfaces/IUniswapV2Pair.sol\";\r\n\r\n// import {IERC20 as UNIERC20} from \"@uniswap/v2-core/contracts/interfaces/IERC20.sol\";\r\n\r\ncontract FleepToken is ERC20 {\r\n    address public owner = msg.sender;\r\n    address public devWallet;\r\n    address public rewardWallet;\r\n    uint256 initialTime;\r\n    uint256 initialPrice; // 1.5$ * 10 ** 18\r\n    //price feed uniswap\r\n    //if useFeedPrice == false, don't apply tax for token\r\n    bool public useFeedPrice = false;\r\n    address public pairFeedPrice;\r\n    bool public isToken0;\r\n    // tax control list\r\n    mapping(address => bool) applyTaxList;\r\n    mapping(address => bool) ignoreTaxList;\r\n\r\n    //define event\r\n    event OwnershipTransferred(address indexed previousOwner, address indexed newOwner);\r\n    // modifier control\r\n    modifier onlyOwner() {\r\n        require(\r\n            msg.sender == owner,\r\n            \"This function is restricted to the contract's owner\"\r\n        );\r\n        _;\r\n    }\r\n\r\n    /**\r\n     * @dev Allows the current owner to transfer control of the contract to a newOwner.\r\n     * @param newOwner The address to transfer ownership to.\r\n     */\r\n    function transferOwnership(address newOwner) public onlyOwner {\r\n        require(newOwner != address(0));\r\n        emit OwnershipTransferred(owner, newOwner);\r\n        owner = newOwner;\r\n    }\r\n\r\n    constructor(\r\n        address _devWallet,\r\n        address _rewardWallet,\r\n        // bool _isToken0,\r\n        uint256 _initialTime,\r\n        uint256 _initialPrice\r\n    ) payable ERC20(\"Fleep Token\", \"FLEEP\") {\r\n        //initital total supply is 1000.000 tokens\r\n        devWallet = _devWallet;\r\n        rewardWallet = _rewardWallet;\r\n        _mint(msg.sender, 600000 * 10**decimals());\r\n        _mint(devWallet, 200000 * 10**decimals());\r\n        _mint(rewardWallet, 200000 * 10**decimals());\r\n        //-- data feed\r\n        pairFeedPrice = address(0);\r\n        isToken0 = false;\r\n        //-- end datafeed\r\n        initialTime = _initialTime;\r\n        // explore\r\n        initialPrice = _initialPrice;\r\n        ignoreTaxList[devWallet] = true;\r\n        ignoreTaxList[rewardWallet] = true;\r\n    }\r\n\r\n    // modify transfer function to check tax effect\r\n    function transfer(address recipient, uint256 amount)\r\n        public\r\n        virtual\r\n        override\r\n        returns (bool)\r\n    {\r\n        //tax here\r\n        address from = _msgSender();\r\n        uint256 finalAmount = amount;\r\n        if (\r\n            ignoreTaxList[from] == true || ignoreTaxList[recipient] == true\r\n        ) {} else if (\r\n            applyTaxList[from] == true && applyTaxList[recipient] == true\r\n        ) {\r\n            // not apply tax\r\n            // do nothings\r\n        } else if (applyTaxList[from] == true) {\r\n            if (useFeedPrice) {\r\n                int256 deviant = getDeviant();\r\n                // if from Effect => user buy token from LP\r\n                // [to] buy token, so [to] will receive reward\r\n                (uint256 pct, uint256 base) = getBuyerRewardPercent(deviant);\r\n                uint256 rewardForBuyer = (amount * pct) / (base * 100);\r\n                // finalAmount = finalAmount - rewardForBuyer;\r\n                _transfer(rewardWallet, recipient, rewardForBuyer);\r\n            }\r\n        } else if (applyTaxList[recipient] == true) {\r\n            if (useFeedPrice) {\r\n                //check max sell token\r\n                require(finalAmount <= getMaxSellable(), \"Final amount over max sellable amount\");\r\n                int256 deviant = getDeviant();\r\n                // if [to] effect (example: [to] is LP Pool) => [from] sell token\r\n                (uint256 pct, uint256 base) = getTaxPercent(deviant);\r\n                (uint256 pctReward, uint256 baseReward) = getRewardPercent(\r\n                    deviant\r\n                );\r\n                uint256 tax = (amount * pct) / (base * 100);\r\n                uint256 taxToReward = (amount * pctReward) / (baseReward * 100);\r\n                require(finalAmount > tax, \"tax need smaller than amount\");\r\n                require(tax > taxToReward, \"tax need bigger than taxToReward\");\r\n                finalAmount = finalAmount - tax;\r\n                _transfer(_msgSender(), rewardWallet, taxToReward);\r\n                _transfer(_msgSender(), devWallet, tax - taxToReward);\r\n            }\r\n        } else {\r\n            // do nothings\r\n        }\r\n        //end\r\n        _transfer(_msgSender(), recipient, finalAmount);\r\n        return true;\r\n    }\r\n\r\n    function transferFrom(\r\n        address sender,\r\n        address recipient,\r\n        uint256 amount\r\n    ) public override returns (bool) {\r\n        uint256 finalAmount = amount;\r\n        address from = sender;\r\n        if (\r\n            ignoreTaxList[from] == true || ignoreTaxList[recipient] == true\r\n        ) {} else if (\r\n            applyTaxList[from] == true && applyTaxList[recipient] == true\r\n        ) {\r\n            // not apply tax\r\n            // do nothings\r\n        } else if (applyTaxList[from] == true) {\r\n            if (useFeedPrice) {\r\n                int256 deviant = getDeviant();\r\n                // if from Effect => user buy token from LP\r\n                // [to] buy token, so [to] will receive reward\r\n                (uint256 pct, uint256 base) = getBuyerRewardPercent(deviant);\r\n                uint256 rewardForBuyer = (amount * pct) / (base * 100);\r\n                // finalAmount = finalAmount - rewardForBuyer;\r\n                _transfer(rewardWallet, recipient, rewardForBuyer);\r\n            }\r\n        } else if (applyTaxList[recipient] == true) {\r\n            if (useFeedPrice) {\r\n                //check max sell token\r\n                require(finalAmount <= getMaxSellable(), \"Final amount over max sellable amount\");\r\n                int256 deviant = getDeviant();\r\n                // if [to] effect (example: [to] is LP Pool) => [from] sell token\r\n                (uint256 pct, uint256 base) = getTaxPercent(deviant);\r\n                (uint256 pctReward, uint256 baseReward) = getRewardPercent(\r\n                    deviant\r\n                );\r\n                uint256 tax = (amount * pct) / (base * 100);\r\n                uint256 taxToReward = (amount * pctReward) / (baseReward * 100);\r\n                require(\r\n                    balanceOf(sender) >= (amount + tax),\r\n                    \"Out of token becase tax apply\"\r\n                );\r\n                // require(finalAmount > tax, \"tax need smaller than amount\");\r\n                require(tax > taxToReward, \"tax need bigger than taxToReward\");\r\n                finalAmount = finalAmount - tax;\r\n                _transfer(sender, rewardWallet, taxToReward);\r\n                _transfer(sender, devWallet, tax - taxToReward);\r\n            }\r\n        } else {\r\n            // do nothings\r\n        }\r\n        return super.transferFrom(sender, recipient, amount);\r\n    }\r\n\r\n    function changeInitialTimestamp(uint256 _initialTimestamp)\r\n        public\r\n        onlyOwner\r\n        returns (bool)\r\n    {\r\n        initialTime = _initialTimestamp;\r\n        return true;\r\n    }\r\n\r\n    function changeInitialPeggedPrice(uint256 _initialPrice)\r\n        public\r\n        onlyOwner\r\n        returns (bool)\r\n    {\r\n        initialPrice = _initialPrice;\r\n        return true;\r\n    }\r\n\r\n    function setUseFeedPrice(bool _useFeedPrice) public onlyOwner {\r\n        useFeedPrice = _useFeedPrice;\r\n    }\r\n\r\n    function setPairForPrice(address _pairFeedPrice, bool _isToken0)\r\n        public\r\n        onlyOwner\r\n    {\r\n        pairFeedPrice = _pairFeedPrice;\r\n        isToken0 = _isToken0;\r\n    }\r\n\r\n    //apply tax list\r\n    function addToApplyTaxList(address _address) public onlyOwner {\r\n        applyTaxList[_address] = true;\r\n    }\r\n\r\n    function removeApplyTaxList(address _address) public onlyOwner {\r\n        applyTaxList[_address] = false;\r\n    }\r\n\r\n    function isApplyTaxList(address _address) public view returns (bool) {\r\n        return applyTaxList[_address];\r\n    }\r\n\r\n    //ignore tax list\r\n    function addToIgnoreTaxList(address _address) public onlyOwner {\r\n        ignoreTaxList[_address] = true;\r\n    }\r\n\r\n    function removeIgnoreTaxList(address _address) public onlyOwner {\r\n        ignoreTaxList[_address] = false;\r\n    }\r\n\r\n    function isIgnoreTaxList(address _address) public view returns (bool) {\r\n        return ignoreTaxList[_address];\r\n    }\r\n\r\n    // calculate price based on pair reserves\r\n    // numberToken0 x price0 = numberToken1 x price1\r\n    function getTokenPrice(\r\n        address _pairAddress,\r\n        bool _isToken0,\r\n        uint256 amount\r\n    ) public view returns (uint256) {\r\n        if (_isToken0) {\r\n            return getToken0Price(_pairAddress, amount);\r\n        } else {\r\n            return getToken1Price(_pairAddress, amount);\r\n        }\r\n    }\r\n\r\n    function getTokenPrice() public view returns (uint256) {\r\n        if (isToken0) {\r\n            return getToken0Price(pairFeedPrice, 1);\r\n        } else {\r\n            return getToken1Price(pairFeedPrice, 1);\r\n        }\r\n    }\r\n\r\n    function getMaxSellable() public view returns (uint256) {\r\n        if (isToken0) {\r\n            return getMaxSellable0(pairFeedPrice);\r\n        } else {\r\n            return getMaxSellable1(pairFeedPrice);\r\n        }\r\n    }\r\n\r\n    function getMaxSellable0(address pairAddress)\r\n        internal\r\n        view\r\n        returns (uint256)\r\n    {\r\n        IUniswapV2Pair pair = IUniswapV2Pair(pairAddress);\r\n        (uint256 Res0, , ) = pair.getReserves();\r\n        return Res0 * 10 / 100;\r\n    }\r\n\r\n    function getMaxSellable1(address pairAddress)\r\n        internal\r\n        view\r\n        returns (uint256)\r\n    {\r\n        IUniswapV2Pair pair = IUniswapV2Pair(pairAddress);\r\n        (, uint256 Res1, ) = pair.getReserves();\r\n        return Res1 * 10 / 100;\r\n    }\r\n\r\n    function getToken1Price(address pairAddress, uint256 amount)\r\n        internal\r\n        view\r\n        returns (uint256)\r\n    {\r\n        IUniswapV2Pair pair = IUniswapV2Pair(pairAddress);\r\n        ERC20 token1 = ERC20(pair.token1());\r\n        (uint256 Res0, uint256 Res1, ) = pair.getReserves();\r\n        // decimals\r\n        uint256 res0 = Res0 * (10**token1.decimals());\r\n        return ((amount * res0) / Res1);\r\n        // result = (price_1 /price_0) *  (10 ** token0.decimals())\r\n    }\r\n\r\n    /**\r\n    return price of token 0 wall calculate by price of token 1 and GWEN of token 1\r\n     */\r\n    function getToken0Price(address pairAddress, uint256 amount)\r\n        internal\r\n        view\r\n        returns (uint256)\r\n    {\r\n        IUniswapV2Pair pair = IUniswapV2Pair(pairAddress);\r\n        ERC20 token0 = ERC20(pair.token0());\r\n        (uint256 Res0, uint256 Res1, ) = pair.getReserves();\r\n        //(Res0 / token0.decimals()) * price0 = (Res1 / token1.decimals()) * price1\r\n        return (amount * Res1 * (10**token0.decimals())) / Res0;\r\n        // result = (price_0 /price_1) *  (10 ** token1.decimals())\r\n    }\r\n\r\n    uint256 SECOND_PER_DAY = 86400; //24 * 60 * 60;\r\n    uint256 private A = 0;\r\n    uint256 private perA  = 1;\r\n    uint256 private B  = 0;\r\n    uint256 private perB  = 1;\r\n\r\n    function setRate(uint256 _A, uint256 _perA, uint256 _B, uint256 _perB)\r\n        public\r\n        onlyOwner\r\n    {\r\n        //change initial price and time\r\n        initialPrice = getPeggedPrice();\r\n        initialTime = block.timestamp;\r\n        //change rate\r\n        A = _A;\r\n        perA  = _perA;\r\n        B = _B;\r\n        perB = _perB;\r\n    }\r\n\r\n    /**\r\n     pegged price increase by day: 0.0002X+0.01 (x is number of day from initialDay)\r\n     ==> pegged_price_n = initial_price + n * (0.01) + (n*(n+1)/2 * 0.0002)\r\n\r\n     increase per day:  X * A / perA + B / perB\r\n     */\r\n    //return the price of token * 10 ** 18\r\n    function getPeggedPrice() public view returns (uint256) {\r\n        uint256 currentTime = block.timestamp;\r\n        if (currentTime <= initialTime) {\r\n            return initialPrice;\r\n        }\r\n        uint256 daysFromBegin = ceil(\r\n            (currentTime - initialTime) / SECOND_PER_DAY,\r\n            1\r\n        );\r\n        uint256 peggedPrice = uint256(\r\n            initialPrice +\r\n                ((10**decimals()) * daysFromBegin * B) /\r\n                perB +\r\n                ((10**decimals()) * daysFromBegin * (daysFromBegin + 1) * A) /\r\n                (perA * 2)\r\n        );\r\n        return (peggedPrice);\r\n    }\r\n\r\n    /**\r\n    return deviant of price - beetween current price and pegged price\r\n     */\r\n    function getDeviant() public view returns (int256) {\r\n        // calculate with the same measurement\r\n        int256 peggedPrice = int256(getPeggedPrice());\r\n        int256 currentPrice = int256(getTokenPrice(pairFeedPrice, isToken0, 1));\r\n        return ((currentPrice - peggedPrice) * 100) / peggedPrice;\r\n    }\r\n\r\n    uint256 DEVIDE_STEP = 5;\r\n\r\n    function getTaxPercent() public view returns (uint256, uint256){\r\n        int256 deviant = getDeviant();\r\n        return getTaxPercent(deviant);\r\n    }\r\n\r\n    function getTaxPercent(int256 deviant)\r\n        public\r\n        view\r\n        returns (uint256, uint256)\r\n    {\r\n        // 0.93674 ^ -5 = 138645146889 / 10 ** 11\r\n        //tax : 0.93674^{x}+3\r\n\r\n        if (deviant < 0) {\r\n            uint256 uDeviant = uint256(-deviant);\r\n            uint256 step = uDeviant / DEVIDE_STEP;\r\n            uint256 resident = uDeviant - step * DEVIDE_STEP;\r\n            uint256 j = 0;\r\n            uint256 percent = 10**18;\r\n            // return 9 ** uDeviant;\r\n            for (j = 0; j < step; j += 1) {\r\n                //for loop example\r\n                percent = (percent * 138645146889) / 10**11;\r\n            }\r\n            percent = (percent * (100000**resident)) / (93674**resident);\r\n            return (percent / (10**14) + 3 * 10000, 10**4);\r\n        } else {\r\n            //business\r\n            uint256 uDeviant = uint256(deviant);\r\n            uint256 step = uDeviant / DEVIDE_STEP;\r\n            uint256 resident = uDeviant - step * DEVIDE_STEP;\r\n            uint256 j = 0;\r\n            uint256 percent = 10**18;\r\n            // return 9 ** uDeviant;\r\n            for (j = 0; j < step; j += 1) {\r\n                //for loop example\r\n                percent = (percent * 93674**5) / (100000**5);\r\n            }\r\n            percent = (percent * (93674**resident)) / (100000**resident);\r\n            return (percent / (10**14) + 3 * 10000, 10**4);\r\n        }\r\n    }\r\n\r\n    function getRewardPercent() public view returns (uint256, uint256){\r\n        int256 deviant = getDeviant();\r\n        return getRewardPercent(deviant);\r\n    }\r\n\r\n    function getRewardPercent(int256 deviant)\r\n        public\r\n        view\r\n        returns (uint256, uint256)\r\n    {\r\n        //1.0654279291277341544231240477738 = 1/0.93859 ~ 1.0654\r\n        // 0.93859 ^ -10 = 1.8846936700630545738235994788055 ~ 188469367 / 10**8\r\n        // 0.93859 ^ -5 = 137284145846 / 10 ** 11\r\n        // 0.93859 ** x = (1/(0.93859))^ (-x) = (1 + 0.0654279291277341544231240477738) ^ -x ~ = 1 + (-x) *  0.0654279291277341544231240477738\r\n        //reward : 0.93859 ^ -x + 0.2\r\n\r\n        if (deviant < 0) {\r\n            uint256 uDeviant = uint256(-deviant);\r\n            uint256 step = uDeviant / DEVIDE_STEP;\r\n            uint256 resident = uDeviant - step * DEVIDE_STEP;\r\n            uint256 j = 0;\r\n            uint256 percent = 10**18;\r\n            // return 9 ** uDeviant;\r\n            for (j = 0; j < step; j += 1) {\r\n                //for loop example\r\n                percent = (percent * 137284145846) / 10**11;\r\n            }\r\n            percent = (percent * (100000**resident)) / (93859**resident);\r\n            return (percent / (10**14) + 2000, 10**4);\r\n        } else {\r\n            //business\r\n            uint256 uDeviant = uint256(deviant);\r\n            uint256 step = uDeviant / DEVIDE_STEP;\r\n            uint256 resident = uDeviant - step * DEVIDE_STEP;\r\n            uint256 j = 0;\r\n            uint256 percent = 10**18;\r\n            // return 9 ** uDeviant;\r\n            for (j = 0; j < step; j += 1) {\r\n                //for loop example\r\n                percent = (percent * 93859**5) / (100000**5);\r\n            }\r\n            percent = (percent * (93859**resident)) / (100000**resident);\r\n            return (percent / (10**14) + 2 * 10**3, 10**4);\r\n        }\r\n    }\r\n\r\n    function getBuyerRewardPercent() public view returns (uint256, uint256){\r\n        int256 deviant = getDeviant();\r\n        return getBuyerRewardPercent(deviant);\r\n    }\r\n\r\n\r\n    function getBuyerRewardPercent(int256 deviant)\r\n        public\r\n        view\r\n        returns (uint256, uint256)\r\n    {\r\n        // 0.947 ^ -5 = 1.31295579684  / 10 ** 11\r\n        //reward : 0.947^{x}+0.05\r\n\r\n        if (deviant < 0) {\r\n            uint256 uDeviant = uint256(-deviant);\r\n            uint256 step = uDeviant / DEVIDE_STEP;\r\n            uint256 resident = uDeviant - step * DEVIDE_STEP;\r\n            uint256 j = 0;\r\n            uint256 percent = 10**18;\r\n            // return 9 ** uDeviant;\r\n            for (j = 0; j < step; j += 1) {\r\n                //for loop example\r\n                percent = (percent * 131295579684) / 10**11;\r\n            }\r\n            percent = (percent * (1000**resident)) / (947**resident);\r\n            return (percent / (10**14) + 500, 10**4);\r\n        } else {\r\n            //business\r\n            uint256 uDeviant = uint256(deviant);\r\n            uint256 step = uDeviant / DEVIDE_STEP;\r\n            uint256 resident = uDeviant - step * DEVIDE_STEP;\r\n            uint256 j = 0;\r\n            uint256 percent = 10**18;\r\n            // return 9 ** uDeviant;\r\n            for (j = 0; j < step; j += 1) {\r\n                //for loop example\r\n                percent = (percent * 947**5) / (1000**5);\r\n            }\r\n            percent = (percent * (947**resident)) / (1000**resident);\r\n            return (percent / (10**14) + 500, 10**4);\r\n        }\r\n    }\r\n\r\n    // internal function\r\n    function ceil(uint256 a, uint256 m) internal pure returns (uint256) {\r\n        return ((a + m - 1) / m) * m;\r\n    }\r\n}\r\n",
  "sourcePath": "D:/Work/upwork/pegged-contract/contracts/FleepToken.sol",
  "compiler": {
    "name": "solc",
    "version": "0.8.4+commit.c7e474f2.Emscripten.clang"
  },
  "schemaVersion": "3.2.3",
  "updatedAt": "2022-01-13T12:18:10.411Z",
  "networkType": "ethereum",
  "devdoc": {
    "kind": "dev",
    "methods": {
      "allowance(address,address)": {
        "details": "See {IERC20-allowance}."
      },
      "approve(address,uint256)": {
        "details": "See {IERC20-approve}. Requirements: - `spender` cannot be the zero address."
      },
      "balanceOf(address)": {
        "details": "See {IERC20-balanceOf}."
      },
      "decimals()": {
        "details": "Returns the number of decimals used to get its user representation. For example, if `decimals` equals `2`, a balance of `505` tokens should be displayed to a user as `5.05` (`505 / 10 ** 2`). Tokens usually opt for a value of 18, imitating the relationship between Ether and Wei. This is the value {ERC20} uses, unless this function is overridden; NOTE: This information is only used for _display_ purposes: it in no way affects any of the arithmetic of the contract, including {IERC20-balanceOf} and {IERC20-transfer}."
      },
      "decreaseAllowance(address,uint256)": {
        "details": "Atomically decreases the allowance granted to `spender` by the caller. This is an alternative to {approve} that can be used as a mitigation for problems described in {IERC20-approve}. Emits an {Approval} event indicating the updated allowance. Requirements: - `spender` cannot be the zero address. - `spender` must have allowance for the caller of at least `subtractedValue`."
      },
      "increaseAllowance(address,uint256)": {
        "details": "Atomically increases the allowance granted to `spender` by the caller. This is an alternative to {approve} that can be used as a mitigation for problems described in {IERC20-approve}. Emits an {Approval} event indicating the updated allowance. Requirements: - `spender` cannot be the zero address."
      },
      "name()": {
        "details": "Returns the name of the token."
      },
      "symbol()": {
        "details": "Returns the symbol of the token, usually a shorter version of the name."
      },
      "totalSupply()": {
        "details": "See {IERC20-totalSupply}."
      },
      "transfer(address,uint256)": {
        "details": "See {IERC20-transfer}. Requirements: - `recipient` cannot be the zero address. - the caller must have a balance of at least `amount`."
      },
      "transferFrom(address,address,uint256)": {
        "details": "See {IERC20-transferFrom}. Emits an {Approval} event indicating the updated allowance. This is not required by the EIP. See the note at the beginning of {ERC20}. Requirements: - `sender` and `recipient` cannot be the zero address. - `sender` must have a balance of at least `amount`. - the caller must have allowance for ``sender``'s tokens of at least `amount`."
      },
      "transferOwnership(address)": {
        "details": "Allows the current owner to transfer control of the contract to a newOwner.",
        "params": {
          "newOwner": "The address to transfer ownership to."
        }
      }
    },
    "version": 1
  },
  "userdoc": {
    "kind": "user",
    "methods": {
      "getDeviant()": {
        "notice": "return deviant of price - beetween current price and pegged price"
      },
      "getPeggedPrice()": {
        "notice": "pegged price increase by day: 0.0002X+0.01 (x is number of day from initialDay) ==> pegged_price_n = initial_price + n * (0.01) + (n*(n+1)/2 * 0.0002) increase per day:  X * A / perA + B / perB"
      }
    },
    "version": 1
  }
}