{
  "contractName": "LPContract",
  "abi": [
    {
      "inputs": [
        {
          "internalType": "contract PeggedToken",
          "name": "_token",
          "type": "address"
        }
      ],
      "stateMutability": "nonpayable",
      "type": "constructor"
    },
    {
      "anonymous": false,
      "inputs": [
        {
          "indexed": true,
          "internalType": "address",
          "name": "user",
          "type": "address"
        },
        {
          "indexed": false,
          "internalType": "uint256",
          "name": "etherAmount",
          "type": "uint256"
        },
        {
          "indexed": false,
          "internalType": "uint256",
          "name": "timeStart",
          "type": "uint256"
        }
      ],
      "name": "Deposit",
      "type": "event"
    },
    {
      "anonymous": false,
      "inputs": [
        {
          "indexed": true,
          "internalType": "address",
          "name": "user",
          "type": "address"
        },
        {
          "indexed": false,
          "internalType": "uint256",
          "name": "userBalance",
          "type": "uint256"
        },
        {
          "indexed": false,
          "internalType": "uint256",
          "name": "amount",
          "type": "uint256"
        }
      ],
      "name": "Withdraw",
      "type": "event"
    },
    {
      "inputs": [
        {
          "internalType": "address",
          "name": "",
          "type": "address"
        }
      ],
      "name": "usersBalance",
      "outputs": [
        {
          "internalType": "uint256",
          "name": "",
          "type": "uint256"
        }
      ],
      "stateMutability": "view",
      "type": "function"
    },
    {
      "inputs": [],
      "name": "deposit",
      "outputs": [],
      "stateMutability": "payable",
      "type": "function"
    },
    {
      "inputs": [
        {
          "internalType": "uint256",
          "name": "amount",
          "type": "uint256"
        }
      ],
      "name": "withdraw",
      "outputs": [],
      "stateMutability": "nonpayable",
      "type": "function"
    }
  ],
  "bytecode": "0x608060405234801561001057600080fd5b506040516108ba3803806108ba8339818101604052810190610032919061008d565b806000806101000a81548173ffffffffffffffffffffffffffffffffffffffff021916908373ffffffffffffffffffffffffffffffffffffffff16021790555050610111565b600081519050610087816100fa565b92915050565b60006020828403121561009f57600080fd5b60006100ad84828501610078565b91505092915050565b60006100c1826100da565b9050919050565b60006100d3826100b6565b9050919050565b600073ffffffffffffffffffffffffffffffffffffffff82169050919050565b610103816100c8565b811461010e57600080fd5b50565b61079a806101206000396000f3fe6080604052600436106100345760003560e01c80632e1a7d4d146100395780635832433514610062578063d0e30db01461009f575b600080fd5b34801561004557600080fd5b50610060600480360381019061005b9190610490565b6100a9565b005b34801561006e57600080fd5b506100896004803603810190610084919061043e565b610247565b604051610096919061057a565b60405180910390f35b6100a761025f565b005b6000600160003373ffffffffffffffffffffffffffffffffffffffff1673ffffffffffffffffffffffffffffffffffffffff16815260200190815260200160002054905060008054906101000a900473ffffffffffffffffffffffffffffffffffffffff1673ffffffffffffffffffffffffffffffffffffffff166323b872dd3330856040518463ffffffff1660e01b815260040161014a939291906104fa565b602060405180830381600087803b15801561016457600080fd5b505af1158015610178573d6000803e3d6000fd5b505050506040513d601f19601f8201168201806040525081019061019c9190610467565b5081600160003373ffffffffffffffffffffffffffffffffffffffff1673ffffffffffffffffffffffffffffffffffffffff16815260200190815260200160002060008282546101ec9190610625565b925050819055503373ffffffffffffffffffffffffffffffffffffffff167ff279e6a1f5e320cca91135676d9cb6e44ca8a08c0b88342bcdb1144f6511b568828460405161023b929190610595565b60405180910390a25050565b60016020528060005260406000206000915090505481565b662386f26fc100003410156102a9576040517f08c379a00000000000000000000000000000000000000000000000000000000081526004016102a09061055a565b60405180910390fd5b60008054906101000a900473ffffffffffffffffffffffffffffffffffffffff1673ffffffffffffffffffffffffffffffffffffffff1663a9059cbb33346040518363ffffffff1660e01b8152600401610304929190610531565b602060405180830381600087803b15801561031e57600080fd5b505af1158015610332573d6000803e3d6000fd5b505050506040513d601f19601f820116820180604052508101906103569190610467565b5034600160003373ffffffffffffffffffffffffffffffffffffffff1673ffffffffffffffffffffffffffffffffffffffff16815260200190815260200160002060008282546103a691906105cf565b925050819055503373ffffffffffffffffffffffffffffffffffffffff167f90890809c654f11d6e72a28fa60149770a0d11ec6c92319d6ceb2bb0a4ea1a1534426040516103f5929190610595565b60405180910390a2565b60008135905061040e8161071f565b92915050565b60008151905061042381610736565b92915050565b6000813590506104388161074d565b92915050565b60006020828403121561045057600080fd5b600061045e848285016103ff565b91505092915050565b60006020828403121561047957600080fd5b600061048784828501610414565b91505092915050565b6000602082840312156104a257600080fd5b60006104b084828501610429565b91505092915050565b6104c281610659565b82525050565b60006104d56022836105be565b91506104e0826106d0565b604082019050919050565b6104f481610697565b82525050565b600060608201905061050f60008301866104b9565b61051c60208301856104b9565b61052960408301846104eb565b949350505050565b600060408201905061054660008301856104b9565b61055360208301846104eb565b9392505050565b60006020820190508181036000830152610573816104c8565b9050919050565b600060208201905061058f60008301846104eb565b92915050565b60006040820190506105aa60008301856104eb565b6105b760208301846104eb565b9392505050565b600082825260208201905092915050565b60006105da82610697565b91506105e583610697565b9250827fffffffffffffffffffffffffffffffffffffffffffffffffffffffffffffffff0382111561061a576106196106a1565b5b828201905092915050565b600061063082610697565b915061063b83610697565b92508282101561064e5761064d6106a1565b5b828203905092915050565b600061066482610677565b9050919050565b60008115159050919050565b600073ffffffffffffffffffffffffffffffffffffffff82169050919050565b6000819050919050565b7f4e487b7100000000000000000000000000000000000000000000000000000000600052601160045260246000fd5b7f4572726f722c206465706f736974206d757374206265203e3d20302e3031204560008201527f5448000000000000000000000000000000000000000000000000000000000000602082015250565b61072881610659565b811461073357600080fd5b50565b61073f8161066b565b811461074a57600080fd5b50565b61075681610697565b811461076157600080fd5b5056fea2646970667358221220e546ee84e69ebb5bde6caabe8329688a4fad4f1caec685135f7fca92e2f61ec164736f6c63430008040033",
  "immutableReferences": {},
  "source": "// SPDX-License-Identifier: MIT\r\npragma solidity ^0.8.0;\r\n\r\nimport \"./PeggedToken.sol\";\r\n\r\ncontract LPContract {\r\n\r\n  //assign Token contract to variable\r\n  PeggedToken private token;\r\n\r\n  //add mappings\r\n\r\n  mapping(address => uint) public usersBalance;\r\n\r\n  //add events\r\n  event Deposit(address indexed user, uint etherAmount, uint timeStart);\r\n  event Withdraw(address indexed user, uint userBalance,  uint amount);\r\n\r\n  //pass as constructor argument deployed Token contract\r\n  constructor(PeggedToken _token) {\r\n    //assign token deployed contract to variable\r\n    token = _token;\r\n  }\r\n\r\n  function deposit() payable public {\r\n    require(msg.value >= 1e16,'Error, deposit must be >= 0.01 ETH');\r\n    token.transfer(msg.sender, msg.value);\r\n    usersBalance[msg.sender] +=msg.value;\r\n    //emit Deposit event\r\n    emit Deposit(msg.sender,msg.value,block.timestamp);\r\n  }\r\n\r\n  function withdraw(uint256 amount) public {\r\n    uint userBalance = usersBalance[msg.sender];\r\n    //send eth to user\r\n    token.transferFrom(msg.sender, address(this) ,amount );\r\n    //send interest in tokens to user\r\n    usersBalance[msg.sender] -= amount;\r\n    //emit event\r\n    emit Withdraw(msg.sender,userBalance,amount);\r\n  }\r\n\r\n}",
  "sourcePath": "D:/Work/upwork/pegged-contract/contracts/LPContract.sol",
  "compiler": {
    "name": "solc",
    "version": "0.8.4+commit.c7e474f2.Emscripten.clang"
  },
  "schemaVersion": "3.2.3",
  "updatedAt": "2021-12-27T13:09:04.241Z",
  "devdoc": {
    "kind": "dev",
    "methods": {},
    "version": 1
  },
  "userdoc": {
    "kind": "user",
    "methods": {},
    "version": 1
  }
}