{
  "contractName": "PeggedToken",
  "abi": [
    {
      "inputs": [
        {
          "internalType": "address",
          "name": "_devWallet",
          "type": "address"
        },
        {
          "internalType": "address",
          "name": "_rewardWallet",
          "type": "address"
        },
        {
          "internalType": "uint256",
          "name": "_initialTime",
          "type": "uint256"
        },
        {
          "internalType": "uint256",
          "name": "_initialPrice",
          "type": "uint256"
        }
      ],
      "stateMutability": "payable",
      "type": "constructor",
      "payable": true
    },
    {
      "anonymous": false,
      "inputs": [
        {
          "indexed": true,
          "internalType": "address",
          "name": "owner",
          "type": "address"
        },
        {
          "indexed": true,
          "internalType": "address",
          "name": "spender",
          "type": "address"
        },
        {
          "indexed": false,
          "internalType": "uint256",
          "name": "value",
          "type": "uint256"
        }
      ],
      "name": "Approval",
      "type": "event"
    },
    {
      "anonymous": false,
      "inputs": [
        {
          "indexed": true,
          "internalType": "address",
          "name": "from",
          "type": "address"
        },
        {
          "indexed": true,
          "internalType": "address",
          "name": "to",
          "type": "address"
        },
        {
          "indexed": false,
          "internalType": "uint256",
          "name": "value",
          "type": "uint256"
        }
      ],
      "name": "Transfer",
      "type": "event"
    },
    {
      "inputs": [
        {
          "internalType": "address",
          "name": "owner",
          "type": "address"
        },
        {
          "internalType": "address",
          "name": "spender",
          "type": "address"
        }
      ],
      "name": "allowance",
      "outputs": [
        {
          "internalType": "uint256",
          "name": "",
          "type": "uint256"
        }
      ],
      "stateMutability": "view",
      "type": "function",
      "constant": true
    },
    {
      "inputs": [
        {
          "internalType": "address",
          "name": "spender",
          "type": "address"
        },
        {
          "internalType": "uint256",
          "name": "amount",
          "type": "uint256"
        }
      ],
      "name": "approve",
      "outputs": [
        {
          "internalType": "bool",
          "name": "",
          "type": "bool"
        }
      ],
      "stateMutability": "nonpayable",
      "type": "function"
    },
    {
      "inputs": [
        {
          "internalType": "address",
          "name": "account",
          "type": "address"
        }
      ],
      "name": "balanceOf",
      "outputs": [
        {
          "internalType": "uint256",
          "name": "",
          "type": "uint256"
        }
      ],
      "stateMutability": "view",
      "type": "function",
      "constant": true
    },
    {
      "inputs": [],
      "name": "decimals",
      "outputs": [
        {
          "internalType": "uint8",
          "name": "",
          "type": "uint8"
        }
      ],
      "stateMutability": "view",
      "type": "function",
      "constant": true
    },
    {
      "inputs": [
        {
          "internalType": "address",
          "name": "spender",
          "type": "address"
        },
        {
          "internalType": "uint256",
          "name": "subtractedValue",
          "type": "uint256"
        }
      ],
      "name": "decreaseAllowance",
      "outputs": [
        {
          "internalType": "bool",
          "name": "",
          "type": "bool"
        }
      ],
      "stateMutability": "nonpayable",
      "type": "function"
    },
    {
      "inputs": [],
      "name": "devWallet",
      "outputs": [
        {
          "internalType": "address",
          "name": "",
          "type": "address"
        }
      ],
      "stateMutability": "view",
      "type": "function",
      "constant": true
    },
    {
      "inputs": [
        {
          "internalType": "address",
          "name": "spender",
          "type": "address"
        },
        {
          "internalType": "uint256",
          "name": "addedValue",
          "type": "uint256"
        }
      ],
      "name": "increaseAllowance",
      "outputs": [
        {
          "internalType": "bool",
          "name": "",
          "type": "bool"
        }
      ],
      "stateMutability": "nonpayable",
      "type": "function"
    },
    {
      "inputs": [],
      "name": "name",
      "outputs": [
        {
          "internalType": "string",
          "name": "",
          "type": "string"
        }
      ],
      "stateMutability": "view",
      "type": "function",
      "constant": true
    },
    {
      "inputs": [],
      "name": "owner",
      "outputs": [
        {
          "internalType": "address",
          "name": "",
          "type": "address"
        }
      ],
      "stateMutability": "view",
      "type": "function",
      "constant": true
    },
    {
      "inputs": [],
      "name": "rewardWallet",
      "outputs": [
        {
          "internalType": "address",
          "name": "",
          "type": "address"
        }
      ],
      "stateMutability": "view",
      "type": "function",
      "constant": true
    },
    {
      "inputs": [],
      "name": "symbol",
      "outputs": [
        {
          "internalType": "string",
          "name": "",
          "type": "string"
        }
      ],
      "stateMutability": "view",
      "type": "function",
      "constant": true
    },
    {
      "inputs": [],
      "name": "totalSupply",
      "outputs": [
        {
          "internalType": "uint256",
          "name": "",
          "type": "uint256"
        }
      ],
      "stateMutability": "view",
      "type": "function",
      "constant": true
    },
    {
      "inputs": [
        {
          "internalType": "address",
          "name": "recipient",
          "type": "address"
        },
        {
          "internalType": "uint256",
          "name": "amount",
          "type": "uint256"
        }
      ],
      "name": "transfer",
      "outputs": [
        {
          "internalType": "bool",
          "name": "",
          "type": "bool"
        }
      ],
      "stateMutability": "nonpayable",
      "type": "function"
    },
    {
      "inputs": [
        {
          "internalType": "address",
          "name": "sender",
          "type": "address"
        },
        {
          "internalType": "address",
          "name": "recipient",
          "type": "address"
        },
        {
          "internalType": "uint256",
          "name": "amount",
          "type": "uint256"
        }
      ],
      "name": "transferFrom",
      "outputs": [
        {
          "internalType": "bool",
          "name": "",
          "type": "bool"
        }
      ],
      "stateMutability": "nonpayable",
      "type": "function"
    },
    {
      "inputs": [
        {
          "internalType": "address",
          "name": "receiver",
          "type": "address"
        },
        {
          "internalType": "uint256",
          "name": "amount",
          "type": "uint256"
        }
      ],
      "name": "deposit",
      "outputs": [
        {
          "internalType": "bool",
          "name": "",
          "type": "bool"
        }
      ],
      "stateMutability": "nonpayable",
      "type": "function"
    },
    {
      "inputs": [
        {
          "internalType": "uint256",
          "name": "amount",
          "type": "uint256"
        }
      ],
      "name": "withdraw",
      "outputs": [
        {
          "internalType": "bool",
          "name": "",
          "type": "bool"
        }
      ],
      "stateMutability": "nonpayable",
      "type": "function"
    },
    {
      "inputs": [
        {
          "internalType": "address",
          "name": "receiver",
          "type": "address"
        },
        {
          "internalType": "uint256",
          "name": "amount",
          "type": "uint256"
        }
      ],
      "name": "depositWithReward",
      "outputs": [
        {
          "internalType": "bool",
          "name": "",
          "type": "bool"
        }
      ],
      "stateMutability": "nonpayable",
      "type": "function"
    },
    {
      "inputs": [
        {
          "internalType": "uint256",
          "name": "amount",
          "type": "uint256"
        }
      ],
      "name": "withdrawWithTax",
      "outputs": [
        {
          "internalType": "bool",
          "name": "",
          "type": "bool"
        }
      ],
      "stateMutability": "nonpayable",
      "type": "function"
    },
    {
      "inputs": [
        {
          "internalType": "address",
          "name": "priceFeedAddress",
          "type": "address"
        }
      ],
      "name": "changePriceFeedAddress",
      "outputs": [
        {
          "internalType": "bool",
          "name": "",
          "type": "bool"
        }
      ],
      "stateMutability": "nonpayable",
      "type": "function"
    },
    {
      "inputs": [
        {
          "internalType": "uint256",
          "name": "_initialTimestamp",
          "type": "uint256"
        }
      ],
      "name": "changeInitialTimestamp",
      "outputs": [
        {
          "internalType": "bool",
          "name": "",
          "type": "bool"
        }
      ],
      "stateMutability": "nonpayable",
      "type": "function"
    },
    {
      "inputs": [
        {
          "internalType": "uint256",
          "name": "_initialPrice",
          "type": "uint256"
        }
      ],
      "name": "changeInitialPeggedPrice",
      "outputs": [
        {
          "internalType": "bool",
          "name": "",
          "type": "bool"
        }
      ],
      "stateMutability": "nonpayable",
      "type": "function"
    },
    {
      "inputs": [],
      "name": "getLatestPrice",
      "outputs": [
        {
          "internalType": "int256",
          "name": "",
          "type": "int256"
        }
      ],
      "stateMutability": "view",
      "type": "function",
      "constant": true
    },
    {
      "inputs": [],
      "name": "getPeggedPrice",
      "outputs": [
        {
          "internalType": "uint256",
          "name": "",
          "type": "uint256"
        }
      ],
      "stateMutability": "view",
      "type": "function",
      "constant": true
    },
    {
      "inputs": [],
      "name": "getDeviant",
      "outputs": [
        {
          "internalType": "int256",
          "name": "",
          "type": "int256"
        }
      ],
      "stateMutability": "view",
      "type": "function",
      "constant": true
    },
    {
      "inputs": [
        {
          "internalType": "int256",
          "name": "deviant",
          "type": "int256"
        }
      ],
      "name": "getTaxPercent",
      "outputs": [
        {
          "internalType": "uint256",
          "name": "",
          "type": "uint256"
        },
        {
          "internalType": "uint256",
          "name": "",
          "type": "uint256"
        }
      ],
      "stateMutability": "view",
      "type": "function",
      "constant": true
    },
    {
      "inputs": [
        {
          "internalType": "int256",
          "name": "deviant",
          "type": "int256"
        }
      ],
      "name": "getRewardPercent",
      "outputs": [
        {
          "internalType": "uint256",
          "name": "",
          "type": "uint256"
        },
        {
          "internalType": "uint256",
          "name": "",
          "type": "uint256"
        }
      ],
      "stateMutability": "view",
      "type": "function",
      "constant": true
    },
    {
      "inputs": [
        {
          "internalType": "int256",
          "name": "deviant",
          "type": "int256"
        }
      ],
      "name": "getBuyerRewardPercent",
      "outputs": [
        {
          "internalType": "uint256",
          "name": "",
          "type": "uint256"
        },
        {
          "internalType": "uint256",
          "name": "",
          "type": "uint256"
        }
      ],
      "stateMutability": "view",
      "type": "function",
      "constant": true
    }
  ],
  "bytecode": "0x608060405233600560006101000a81548173ffffffffffffffffffffffffffffffffffffffff021916908373ffffffffffffffffffffffffffffffffffffffff160217905550670de0b6b3a7640000600b5562015180600c556005600d5560405162002c0a38038062002c0a833981810160405281019062000082919062000487565b6040518060400160405280600c81526020017f50656767656420546f6b656e00000000000000000000000000000000000000008152506040518060400160405280600481526020017f5045474400000000000000000000000000000000000000000000000000000000815250816003908051906020019062000106929190620003a9565b5080600490805190602001906200011f929190620003a9565b5050506200013733620c35006200022660201b60201c565b83600660006101000a81548173ffffffffffffffffffffffffffffffffffffffff021916908373ffffffffffffffffffffffffffffffffffffffff16021790555082600760006101000a81548173ffffffffffffffffffffffffffffffffffffffff021916908373ffffffffffffffffffffffffffffffffffffffff16021790555073777a68032a88e5a84678a77af2cd65a7b3c0775a600860006101000a81548173ffffffffffffffffffffffffffffffffffffffff021916908373ffffffffffffffffffffffffffffffffffffffff1602179055508160098190555080600a819055505050505062000707565b600073ffffffffffffffffffffffffffffffffffffffff168273ffffffffffffffffffffffffffffffffffffffff16141562000299576040517f08c379a000000000000000000000000000000000000000000000000000000000815260040162000290906200052b565b60405180910390fd5b620002ad600083836200039f60201b60201c565b8060026000828254620002c191906200057b565b92505081905550806000808473ffffffffffffffffffffffffffffffffffffffff1673ffffffffffffffffffffffffffffffffffffffff16815260200190815260200160002060008282546200031891906200057b565b925050819055508173ffffffffffffffffffffffffffffffffffffffff16600073ffffffffffffffffffffffffffffffffffffffff167fddf252ad1be2c89b69c2b068fc378daa952ba7f163c4a11628f55a4df523b3ef836040516200037f91906200054d565b60405180910390a36200039b60008383620003a460201b60201c565b5050565b505050565b505050565b828054620003b79062000616565b90600052602060002090601f016020900481019282620003db576000855562000427565b82601f10620003f657805160ff191683800117855562000427565b8280016001018555821562000427579182015b828111156200042657825182559160200191906001019062000409565b5b5090506200043691906200043a565b5090565b5b80821115620004555760008160009055506001016200043b565b5090565b6000815190506200046a81620006d3565b92915050565b6000815190506200048181620006ed565b92915050565b600080600080608085870312156200049e57600080fd5b6000620004ae8782880162000459565b9450506020620004c18782880162000459565b9350506040620004d48782880162000470565b9250506060620004e78782880162000470565b91505092959194509250565b600062000502601f836200056a565b91506200050f82620006aa565b602082019050919050565b62000525816200060c565b82525050565b600060208201905081810360008301526200054681620004f3565b9050919050565b60006020820190506200056460008301846200051a565b92915050565b600082825260208201905092915050565b600062000588826200060c565b915062000595836200060c565b9250827fffffffffffffffffffffffffffffffffffffffffffffffffffffffffffffffff03821115620005cd57620005cc6200064c565b5b828201905092915050565b6000620005e582620005ec565b9050919050565b600073ffffffffffffffffffffffffffffffffffffffff82169050919050565b6000819050919050565b600060028204905060018216806200062f57607f821691505b602082108114156200064657620006456200067b565b5b50919050565b7f4e487b7100000000000000000000000000000000000000000000000000000000600052601160045260246000fd5b7f4e487b7100000000000000000000000000000000000000000000000000000000600052602260045260246000fd5b7f45524332303a206d696e7420746f20746865207a65726f206164647265737300600082015250565b620006de81620005d8565b8114620006ea57600080fd5b50565b620006f8816200060c565b81146200070457600080fd5b50565b6124f380620007176000396000f3fe608060405234801561001057600080fd5b50600436106101a95760003560e01c80638e15f473116100f9578063c43a34d611610097578063e7e6a2eb11610071578063e7e6a2eb1461055e578063e9085fb81461058e578063f3d60eb6146105bf578063fb75b2c7146105ef576101a9565b8063c43a34d6146104df578063dd62ed3e146104fd578063e64886271461052d576101a9565b8063a3201e25116100d3578063a3201e2514610431578063a457c2d71461044f578063a9059cbb1461047f578063b768e63a146104af576101a9565b80638e15f473146103d75780638ea5220f146103f557806395d89b4114610413576101a9565b8063313ce5671161016657806347e7ef241161014057806347e7ef24146103295780634c90d0ea1461035957806370a08231146103895780638da5cb5b146103b9576101a9565b8063313ce567146102aa57806331518fa6146102c857806339509351146102f9576101a9565b806306fdde03146101ae578063095ea7b3146101cc57806318160ddd146101fc57806319b379e91461021a57806323b872dd1461024a5780632e1a7d4d1461027a575b600080fd5b6101b661060d565b6040516101c39190611a52565b60405180910390f35b6101e660048036038101906101e19190611783565b61069f565b6040516101f39190611a1c565b60405180910390f35b6102046106bd565b6040516102119190611b54565b60405180910390f35b610234600480360381019061022f91906117e8565b6106c7565b6040516102419190611a1c565b60405180910390f35b610264600480360381019061025f9190611734565b6106d9565b6040516102719190611a1c565b60405180910390f35b610294600480360381019061028f91906117e8565b6107d1565b6040516102a19190611a1c565b60405180910390f35b6102b2610806565b6040516102bf9190611b98565b60405180910390f35b6102e260048036038101906102dd91906117bf565b61080f565b6040516102f0929190611b6f565b60405180910390f35b610313600480360381019061030e9190611783565b61091e565b6040516103209190611a1c565b60405180910390f35b610343600480360381019061033e9190611783565b6109ca565b6040516103509190611a1c565b60405180910390f35b610373600480360381019061036e91906117e8565b6109de565b6040516103809190611a1c565b60405180910390f35b6103a3600480360381019061039e91906116cf565b6109f0565b6040516103b09190611b54565b60405180910390f35b6103c1610a38565b6040516103ce9190611a01565b60405180910390f35b6103df610a5e565b6040516103ec9190611a37565b60405180910390f35b6103fd610b0e565b60405161040a9190611a01565b60405180910390f35b61041b610b34565b6040516104289190611a52565b60405180910390f35b610439610bc6565b6040516104469190611a37565b60405180910390f35b61046960048036038101906104649190611783565b610c09565b6040516104769190611a1c565b60405180910390f35b61049960048036038101906104949190611783565b610cf4565b6040516104a69190611a1c565b60405180910390f35b6104c960048036038101906104c49190611783565b610d12565b6040516104d69190611a1c565b60405180910390f35b6104e7610dbd565b6040516104f49190611b54565b60405180910390f35b610517600480360381019061051291906116f8565b610e71565b6040516105249190611b54565b60405180910390f35b610547600480360381019061054291906117bf565b610ef8565b604051610555929190611b6f565b60405180910390f35b610578600480360381019061057391906116cf565b611007565b6040516105859190611a1c565b60405180910390f35b6105a860048036038101906105a391906117bf565b611053565b6040516105b6929190611b6f565b60405180910390f35b6105d960048036038101906105d491906117e8565b611160565b6040516105e69190611a1c565b60405180910390f35b6105f7611195565b6040516106049190611a01565b60405180910390f35b60606003805461061c90612112565b80601f016020809104026020016040519081016040528092919081815260200182805461064890612112565b80156106955780601f1061066a57610100808354040283529160200191610695565b820191906000526020600020905b81548152906001019060200180831161067857829003601f168201915b5050505050905090565b60006106b36106ac6111bb565b84846111c3565b6001905092915050565b6000600254905090565b600081600a8190555060019050919050565b60006106e684848461138e565b6000600160008673ffffffffffffffffffffffffffffffffffffffff1673ffffffffffffffffffffffffffffffffffffffff16815260200190815260200160002060006107316111bb565b73ffffffffffffffffffffffffffffffffffffffff1673ffffffffffffffffffffffffffffffffffffffff168152602001908152602001600020549050828110156107b1576040517f08c379a00000000000000000000000000000000000000000000000000000000081526004016107a890611ad4565b60405180910390fd5b6107c5856107bd6111bb565b8584036111c3565b60019150509392505050565b60006107ff600660009054906101000a900473ffffffffffffffffffffffffffffffffffffffff1683610cf4565b9050919050565b60006012905090565b600080600083121561090f5760008361082790612144565b90506000600d54826108399190611c8f565b90506000600d548261084b9190611f48565b836108569190612036565b9050600080670de0b6b3a76400009050600091505b838210156108aa5764174876e800641ff6c5d2b68261088a9190611f48565b6108949190611c8f565b90506001826108a39190611bcf565b915061086b565b8262016ea36108b99190611d13565b83620186a06108c89190611d13565b826108d39190611f48565b6108dd9190611c8f565b90506107d0655af3107a4000826108f49190611c8f565b6108fe9190611bcf565b612710965096505050505050610919565b6000612710915091505b915091565b60006109c061092b6111bb565b8484600160006109396111bb565b73ffffffffffffffffffffffffffffffffffffffff1673ffffffffffffffffffffffffffffffffffffffff16815260200190815260200160002060008873ffffffffffffffffffffffffffffffffffffffff1673ffffffffffffffffffffffffffffffffffffffff168152602001908152602001600020546109bb9190611bcf565b6111c3565b6001905092915050565b60006109d68383610cf4565b905092915050565b60008160098190555060019050919050565b60008060008373ffffffffffffffffffffffffffffffffffffffff1673ffffffffffffffffffffffffffffffffffffffff168152602001908152602001600020549050919050565b600560009054906101000a900473ffffffffffffffffffffffffffffffffffffffff1681565b600080600860009054906101000a900473ffffffffffffffffffffffffffffffffffffffff1673ffffffffffffffffffffffffffffffffffffffff1663feaf968c6040518163ffffffff1660e01b815260040160a06040518083038186803b158015610ac957600080fd5b505afa158015610add573d6000803e3d6000fd5b505050506040513d601f19601f82011682018060405250810190610b019190611811565b5050509150508091505090565b600660009054906101000a900473ffffffffffffffffffffffffffffffffffffffff1681565b606060048054610b4390612112565b80601f0160208091040260200160405190810160405280929190818152602001828054610b6f90612112565b8015610bbc5780601f10610b9157610100808354040283529160200191610bbc565b820191906000526020600020905b815481529060010190602001808311610b9f57829003601f168201915b5050505050905090565b600080610bd1610dbd565b90506000610bdd610a5e565b90508160648383610bee9190611fa2565b610bf89190611e31565b610c029190611c25565b9250505090565b60008060016000610c186111bb565b73ffffffffffffffffffffffffffffffffffffffff1673ffffffffffffffffffffffffffffffffffffffff16815260200190815260200160002060008573ffffffffffffffffffffffffffffffffffffffff1673ffffffffffffffffffffffffffffffffffffffff16815260200190815260200160002054905082811015610cd5576040517f08c379a0000000000000000000000000000000000000000000000000000000008152600401610ccc90611b34565b60405180910390fd5b610ce9610ce06111bb565b858584036111c3565b600191505092915050565b6000610d08610d016111bb565b848461138e565b6001905092915050565b6000806000610d407fffffffffffffffffffffffffffffffffffffffffffffffffffffffffffffffe261080f565b9150915060011515610d528686610cf4565b151514610d5e57600080fd5b60011515610da5600760009054906101000a900473ffffffffffffffffffffffffffffffffffffffff1687848689610d969190611f48565b610da09190611c8f565b6106d9565b151514610db157600080fd5b60019250505092915050565b6000804290506009548111610dd757600a54915050610e6e565b6000610dfe600c5460095484610ded9190612036565b610df79190611c8f565b600161160f565b90506000612710600183610e129190611bcf565b83600b54610e209190611f48565b610e2a9190611f48565b610e349190611c8f565b606483600b54610e449190611f48565b610e4e9190611c8f565b600a54610e5b9190611bcf565b610e659190611bcf565b90508093505050505b90565b6000600160008473ffffffffffffffffffffffffffffffffffffffff1673ffffffffffffffffffffffffffffffffffffffff16815260200190815260200160002060008373ffffffffffffffffffffffffffffffffffffffff1673ffffffffffffffffffffffffffffffffffffffff16815260200190815260200160002054905092915050565b6000806000831215610ff857600083610f1090612144565b90506000600d5482610f229190611c8f565b90506000600d5482610f349190611f48565b83610f3f9190612036565b9050600080670de0b6b3a76400009050600091505b83821015610f935764174876e800642047e50d0982610f739190611f48565b610f7d9190611c8f565b9050600182610f8c9190611bcf565b9150610f54565b8262016dea610fa29190611d13565b83620186a0610fb19190611d13565b82610fbc9190611f48565b610fc69190611c8f565b9050617530655af3107a400082610fdd9190611c8f565b610fe79190611bcf565b612710965096505050505050611002565b6000612710915091505b915091565b600081600860006101000a81548173ffffffffffffffffffffffffffffffffffffffff021916908373ffffffffffffffffffffffffffffffffffffffff16021790555060019050919050565b60008060008312156111515760008361106b90612144565b90506000600d548261107d9190611c8f565b90506000600d548261108f9190611f48565b8361109a9190612036565b9050600080670de0b6b3a76400009050600091505b838210156110ee5764174876e800641e91d38e24826110ce9190611f48565b6110d89190611c8f565b90506001826110e79190611bcf565b91506110af565b826103b36110fc9190611d13565b836103e861110a9190611d13565b826111159190611f48565b61111f9190611c8f565b90506101f4655af3107a4000826111369190611c8f565b6111409190611bcf565b61271096509650505050505061115b565b6000612710915091505b915091565b600061118e600660009054906101000a900473ffffffffffffffffffffffffffffffffffffffff1683610cf4565b9050919050565b600760009054906101000a900473ffffffffffffffffffffffffffffffffffffffff1681565b600033905090565b600073ffffffffffffffffffffffffffffffffffffffff168373ffffffffffffffffffffffffffffffffffffffff161415611233576040517f08c379a000000000000000000000000000000000000000000000000000000000815260040161122a90611b14565b60405180910390fd5b600073ffffffffffffffffffffffffffffffffffffffff168273ffffffffffffffffffffffffffffffffffffffff1614156112a3576040517f08c379a000000000000000000000000000000000000000000000000000000000815260040161129a90611a94565b60405180910390fd5b80600160008573ffffffffffffffffffffffffffffffffffffffff1673ffffffffffffffffffffffffffffffffffffffff16815260200190815260200160002060008473ffffffffffffffffffffffffffffffffffffffff1673ffffffffffffffffffffffffffffffffffffffff168152602001908152602001600020819055508173ffffffffffffffffffffffffffffffffffffffff168373ffffffffffffffffffffffffffffffffffffffff167f8c5be1e5ebec7d5bd14f71427d1e84f3dd0314c0f7b2291e5b200ac8c7c3b925836040516113819190611b54565b60405180910390a3505050565b600073ffffffffffffffffffffffffffffffffffffffff168373ffffffffffffffffffffffffffffffffffffffff1614156113fe576040517f08c379a00000000000000000000000000000000000000000000000000000000081526004016113f590611af4565b60405180910390fd5b600073ffffffffffffffffffffffffffffffffffffffff168273ffffffffffffffffffffffffffffffffffffffff16141561146e576040517f08c379a000000000000000000000000000000000000000000000000000000000815260040161146590611a74565b60405180910390fd5b611479838383611647565b60008060008573ffffffffffffffffffffffffffffffffffffffff1673ffffffffffffffffffffffffffffffffffffffff168152602001908152602001600020549050818110156114ff576040517f08c379a00000000000000000000000000000000000000000000000000000000081526004016114f690611ab4565b60405180910390fd5b8181036000808673ffffffffffffffffffffffffffffffffffffffff1673ffffffffffffffffffffffffffffffffffffffff16815260200190815260200160002081905550816000808573ffffffffffffffffffffffffffffffffffffffff1673ffffffffffffffffffffffffffffffffffffffff16815260200190815260200160002060008282546115929190611bcf565b925050819055508273ffffffffffffffffffffffffffffffffffffffff168473ffffffffffffffffffffffffffffffffffffffff167fddf252ad1be2c89b69c2b068fc378daa952ba7f163c4a11628f55a4df523b3ef846040516115f69190611b54565b60405180910390a361160984848461164c565b50505050565b60008182600184866116219190611bcf565b61162b9190612036565b6116359190611c8f565b61163f9190611f48565b905092915050565b505050565b505050565b60008135905061166081612461565b92915050565b60008135905061167581612478565b92915050565b60008151905061168a81612478565b92915050565b60008135905061169f8161248f565b92915050565b6000815190506116b48161248f565b92915050565b6000815190506116c9816124a6565b92915050565b6000602082840312156116e157600080fd5b60006116ef84828501611651565b91505092915050565b6000806040838503121561170b57600080fd5b600061171985828601611651565b925050602061172a85828601611651565b9150509250929050565b60008060006060848603121561174957600080fd5b600061175786828701611651565b935050602061176886828701611651565b925050604061177986828701611690565b9150509250925092565b6000806040838503121561179657600080fd5b60006117a485828601611651565b92505060206117b585828601611690565b9150509250929050565b6000602082840312156117d157600080fd5b60006117df84828501611666565b91505092915050565b6000602082840312156117fa57600080fd5b600061180884828501611690565b91505092915050565b600080600080600060a0868803121561182957600080fd5b6000611837888289016116ba565b95505060206118488882890161167b565b9450506040611859888289016116a5565b935050606061186a888289016116a5565b925050608061187b888289016116ba565b9150509295509295909350565b6118918161206a565b82525050565b6118a08161207c565b82525050565b6118af81612088565b82525050565b60006118c082611bb3565b6118ca8185611bbe565b93506118da8185602086016120df565b6118e38161221a565b840191505092915050565b60006118fb602383611bbe565b915061190682612238565b604082019050919050565b600061191e602283611bbe565b915061192982612287565b604082019050919050565b6000611941602683611bbe565b915061194c826122d6565b604082019050919050565b6000611964602883611bbe565b915061196f82612325565b604082019050919050565b6000611987602583611bbe565b915061199282612374565b604082019050919050565b60006119aa602483611bbe565b91506119b5826123c3565b604082019050919050565b60006119cd602583611bbe565b91506119d882612412565b604082019050919050565b6119ec816120b2565b82525050565b6119fb816120bc565b82525050565b6000602082019050611a166000830184611888565b92915050565b6000602082019050611a316000830184611897565b92915050565b6000602082019050611a4c60008301846118a6565b92915050565b60006020820190508181036000830152611a6c81846118b5565b905092915050565b60006020820190508181036000830152611a8d816118ee565b9050919050565b60006020820190508181036000830152611aad81611911565b9050919050565b60006020820190508181036000830152611acd81611934565b9050919050565b60006020820190508181036000830152611aed81611957565b9050919050565b60006020820190508181036000830152611b0d8161197a565b9050919050565b60006020820190508181036000830152611b2d8161199d565b9050919050565b60006020820190508181036000830152611b4d816119c0565b9050919050565b6000602082019050611b6960008301846119e3565b92915050565b6000604082019050611b8460008301856119e3565b611b9160208301846119e3565b9392505050565b6000602082019050611bad60008301846119f2565b92915050565b600081519050919050565b600082825260208201905092915050565b6000611bda826120b2565b9150611be5836120b2565b9250827fffffffffffffffffffffffffffffffffffffffffffffffffffffffffffffffff03821115611c1a57611c1961218d565b5b828201905092915050565b6000611c3082612088565b9150611c3b83612088565b925082611c4b57611c4a6121bc565b5b600160000383147f800000000000000000000000000000000000000000000000000000000000000083141615611c8457611c8361218d565b5b828205905092915050565b6000611c9a826120b2565b9150611ca5836120b2565b925082611cb557611cb46121bc565b5b828204905092915050565b6000808291508390505b6001851115611d0a57808604811115611ce657611ce561218d565b5b6001851615611cf55780820291505b8081029050611d038561222b565b9450611cca565b94509492505050565b6000611d1e826120b2565b9150611d29836120b2565b9250611d567fffffffffffffffffffffffffffffffffffffffffffffffffffffffffffffffff8484611d5e565b905092915050565b600082611d6e5760019050611e2a565b81611d7c5760009050611e2a565b8160018114611d925760028114611d9c57611dcb565b6001915050611e2a565b60ff841115611dae57611dad61218d565b5b8360020a915084821115611dc557611dc461218d565b5b50611e2a565b5060208310610133831016604e8410600b8410161715611e005782820a905083811115611dfb57611dfa61218d565b5b611e2a565b611e0d8484846001611cc0565b92509050818404811115611e2457611e2361218d565b5b81810290505b9392505050565b6000611e3c82612088565b9150611e4783612088565b9250827f7fffffffffffffffffffffffffffffffffffffffffffffffffffffffffffffff0482116000841360008413161615611e8657611e8561218d565b5b817f80000000000000000000000000000000000000000000000000000000000000000583126000841260008413161615611ec357611ec261218d565b5b827f80000000000000000000000000000000000000000000000000000000000000000582126000841360008412161615611f0057611eff61218d565b5b827f7fffffffffffffffffffffffffffffffffffffffffffffffffffffffffffffff0582126000841260008412161615611f3d57611f3c61218d565b5b828202905092915050565b6000611f53826120b2565b9150611f5e836120b2565b9250817fffffffffffffffffffffffffffffffffffffffffffffffffffffffffffffffff0483118215151615611f9757611f9661218d565b5b828202905092915050565b6000611fad82612088565b9150611fb883612088565b9250827f800000000000000000000000000000000000000000000000000000000000000001821260008412151615611ff357611ff261218d565b5b827f7fffffffffffffffffffffffffffffffffffffffffffffffffffffffffffffff01821360008412161561202b5761202a61218d565b5b828203905092915050565b6000612041826120b2565b915061204c836120b2565b92508282101561205f5761205e61218d565b5b828203905092915050565b600061207582612092565b9050919050565b60008115159050919050565b6000819050919050565b600073ffffffffffffffffffffffffffffffffffffffff82169050919050565b6000819050919050565b600060ff82169050919050565b600069ffffffffffffffffffff82169050919050565b60005b838110156120fd5780820151818401526020810190506120e2565b8381111561210c576000848401525b50505050565b6000600282049050600182168061212a57607f821691505b6020821081141561213e5761213d6121eb565b5b50919050565b600061214f82612088565b91507f80000000000000000000000000000000000000000000000000000000000000008214156121825761218161218d565b5b816000039050919050565b7f4e487b7100000000000000000000000000000000000000000000000000000000600052601160045260246000fd5b7f4e487b7100000000000000000000000000000000000000000000000000000000600052601260045260246000fd5b7f4e487b7100000000000000000000000000000000000000000000000000000000600052602260045260246000fd5b6000601f19601f8301169050919050565b60008160011c9050919050565b7f45524332303a207472616e7366657220746f20746865207a65726f206164647260008201527f6573730000000000000000000000000000000000000000000000000000000000602082015250565b7f45524332303a20617070726f766520746f20746865207a65726f20616464726560008201527f7373000000000000000000000000000000000000000000000000000000000000602082015250565b7f45524332303a207472616e7366657220616d6f756e742065786365656473206260008201527f616c616e63650000000000000000000000000000000000000000000000000000602082015250565b7f45524332303a207472616e7366657220616d6f756e742065786365656473206160008201527f6c6c6f77616e6365000000000000000000000000000000000000000000000000602082015250565b7f45524332303a207472616e736665722066726f6d20746865207a65726f20616460008201527f6472657373000000000000000000000000000000000000000000000000000000602082015250565b7f45524332303a20617070726f76652066726f6d20746865207a65726f2061646460008201527f7265737300000000000000000000000000000000000000000000000000000000602082015250565b7f45524332303a2064656372656173656420616c6c6f77616e63652062656c6f7760008201527f207a65726f000000000000000000000000000000000000000000000000000000602082015250565b61246a8161206a565b811461247557600080fd5b50565b61248181612088565b811461248c57600080fd5b50565b612498816120b2565b81146124a357600080fd5b50565b6124af816120c9565b81146124ba57600080fd5b5056fea264697066735822122083db558b55d3cbc7b9a48c44450f1a2f06c0d44fe010f77226a99e60108bd36c64736f6c63430008040033",
  "immutableReferences": {},
  "source": "// SPDX-License-Identifier: MIT\r\npragma solidity ^0.8.0;\r\n\r\nimport \"@chainlink/contracts/src/v0.8/interfaces/AggregatorV3Interface.sol\";\r\nimport \"@openzeppelin/contracts/token/ERC20/ERC20.sol\";\r\n\r\ncontract PeggedToken is ERC20 {\r\n    address public owner = msg.sender;\r\n    address public devWallet;\r\n    address public rewardWallet;\r\n\r\n    modifier restricted() {\r\n        require(\r\n            msg.sender == owner,\r\n            \"This function is restricted to the contract's owner\"\r\n        );\r\n        _;\r\n    }\r\n\r\n    constructor(\r\n        address _devWallet,\r\n        address _rewardWallet,\r\n        uint256 _initialTime,\r\n        uint256 _initialPrice\r\n    ) payable ERC20(\"Pegged Token\", \"PEGD\") {\r\n        //initital total supply is 800.000 tokens\r\n        _mint(msg.sender, 800000);\r\n        devWallet = _devWallet;\r\n        rewardWallet = _rewardWallet;\r\n\r\n        //data feed\r\n        priceFeed = AggregatorV3Interface(\r\n            0x777A68032a88E5A84678A77Af2CD65A7b3c0775a\r\n        );\r\n        //assign token deployed contract to variable\r\n        initialTime = _initialTime;\r\n        initialPrice = _initialPrice;\r\n    }\r\n\r\n    function deposit(address receiver, uint256 amount) public returns (bool) {\r\n        // require(msg.value >= 1e16,'Error, deposit must be >= 0.01 ETH');\r\n        return transfer(receiver, amount);\r\n    }\r\n\r\n    function withdraw(uint256 amount) public returns (bool) {\r\n        //account withdraw will back to dev wallet\r\n        //TODO transfer to reward wallet with formula\r\n        return transfer(devWallet, amount);\r\n    }\r\n\r\n    function depositWithReward(address receiver, uint256 amount) public\r\n        returns (bool)\r\n    {\r\n        (uint256 pct, uint256 base) = getRewardPercent(-30);\r\n        require(transfer(receiver, amount) == true);\r\n        //bonus from rewardWallet\r\n        require(transferFrom(rewardWallet, receiver, amount * pct / base) == true);\r\n        return true;\r\n    }\r\n\r\n    function withdrawWithTax(uint256 amount) public returns (bool) {\r\n        //account withdraw will back to dev wallet\r\n        return transfer(devWallet, amount);\r\n    }\r\n\r\n    // function getPeggedPrice() public view returns (uint256){\r\n    //   return brainContract.getPeggedPrice();\r\n    // }\r\n\r\n    //tax, reward calculate function\r\n    //Price Feed\r\n    AggregatorV3Interface internal priceFeed;\r\n\r\n    uint256 initialTime;\r\n    uint256 initialPrice; // 2$\r\n    uint256 perPrice = 1 * 10**18;\r\n\r\n    //add mappings\r\n\r\n    //add events\r\n\r\n    //pass as constructor argument deployed Token contract\r\n    /**\r\n     * Network: Kovan\r\n     * Aggregator: DAI/USD\r\n     * Address: 0x9326BFA02ADD2366b30bacB125260Af641031331\r\n     */\r\n    // constructor(uint256 _initialTime, uint256 _initialPrice) {\r\n    //     //price feed initialPrice\r\n        \r\n    // }\r\n\r\n    function changePriceFeedAddress(address priceFeedAddress)\r\n        public\r\n        returns (bool)\r\n    {\r\n        priceFeed = AggregatorV3Interface(priceFeedAddress);\r\n        return true;\r\n    }\r\n\r\n    function changeInitialTimestamp(uint256 _initialTimestamp)\r\n        public\r\n        returns (bool)\r\n    {\r\n        initialTime = _initialTimestamp;\r\n        return true;\r\n    }\r\n\r\n    function changeInitialPeggedPrice(uint256 _initialPrice)\r\n        public\r\n        returns (bool)\r\n    {\r\n        initialPrice = _initialPrice;\r\n        return true;\r\n    }\r\n\r\n    uint256 SECOND_PER_DAY = 86400; //24 * 60 * 60;\r\n\r\n    /**\r\n     * Returns the latest price\r\n     */\r\n    function getLatestPrice() public view returns (int256) {\r\n        (\r\n            ,\r\n            // uint80 roundID,\r\n            int256 price, // uint256 startedAt, // uint256 timeStamp, // uint80 answeredInRound\r\n            ,\r\n            ,\r\n\r\n        ) = priceFeed.latestRoundData();\r\n        return price;\r\n    }\r\n\r\n    /**\r\n     pegged price increase by day: 0.0002X+0.01 (x is number of day from initialDay)\r\n     ==> pegged_price_n = initial_price + n * (0.01) + (n*(n+1)/2 * 0.0002)\r\n     */\r\n    function getPeggedPrice() public view returns (uint256) {\r\n        uint256 currentTime = block.timestamp;\r\n        if (currentTime <= initialTime) {\r\n            return initialPrice;\r\n        }\r\n        uint256 daysFromBegin = ceil((currentTime - initialTime) / SECOND_PER_DAY,1);\r\n        uint256 peggedPrice = uint256(\r\n            initialPrice +\r\n                (perPrice * daysFromBegin) /\r\n                100 +\r\n                (perPrice * daysFromBegin * (daysFromBegin + 1)) /\r\n                10000\r\n        );\r\n        return (peggedPrice);\r\n    }\r\n\r\n    /**\r\n    return deviant of price - beetween current price and pegged price\r\n     */\r\n    function getDeviant() public view returns (int256) {\r\n        //   return getTimestamp();\r\n        int256 peggedPrice = int256(getPeggedPrice());\r\n        int256 currentPrice = int256(getLatestPrice());\r\n        return ((currentPrice - peggedPrice) * 100) / peggedPrice;\r\n    }\r\n\r\n    uint256 DEVIDE_STEP = 5;\r\n\r\n    function getTaxPercent(int256 deviant)\r\n        public\r\n        view\r\n        returns (uint256, uint256)\r\n    {\r\n        // 0.93859 ^ -5 = 138645146889 / 10 ** 11\r\n        //tax : 0.93674^{x}+3\r\n\r\n        if (deviant < 0) {\r\n            uint256 uDeviant = uint256(-deviant);\r\n            uint256 step = uDeviant / DEVIDE_STEP;\r\n            uint256 resident = uDeviant - step * DEVIDE_STEP;\r\n            uint256 j = 0;\r\n            uint256 percent = 10**18;\r\n            // return 9 ** uDeviant;\r\n            for (j = 0; j < step; j += 1) {\r\n                //for loop example\r\n                percent = (percent * 138645146889) / 10**11;\r\n            }\r\n            percent = (percent * (100000**resident)) / (93674**resident);\r\n            return (percent / (10**14) + 3 * 10000, 10**4);\r\n        } else {\r\n            return (0, 10**4);\r\n        }\r\n    }\r\n\r\n    function getRewardPercent(int256 deviant)\r\n        public\r\n        view\r\n        returns (uint256, uint256)\r\n    {\r\n        //1.0654279291277341544231240477738 = 1/0.93859 ~ 1.0654\r\n        // 0.93859 ^ -10 = 1.8846936700630545738235994788055 ~ 188469367 / 10**8\r\n        // 0.93859 ^ -5 = 137284145846 / 10 ** 11\r\n        // 0.93859 ** x = (1/(0.93859))^ (-x) = (1 + 0.0654279291277341544231240477738) ^ -x ~ = 1 + (-x) *  0.0654279291277341544231240477738\r\n        //reward : 0.93859 ^ -x + 0.2\r\n\r\n        if (deviant < 0) {\r\n            uint256 uDeviant = uint256(-deviant);\r\n            uint256 step = uDeviant / DEVIDE_STEP;\r\n            uint256 resident = uDeviant - step * DEVIDE_STEP;\r\n            uint256 j = 0;\r\n            uint256 percent = 10**18;\r\n            // return 9 ** uDeviant;\r\n            for (j = 0; j < step; j += 1) {\r\n                //for loop example\r\n                percent = (percent * 137284145846) / 10**11;\r\n            }\r\n            percent = (percent * (100000**resident)) / (93859**resident);\r\n            return (percent / (10**14) + 2000, 10**4);\r\n        } else {\r\n            return (0, 10**4);\r\n        }\r\n    }\r\n\r\n    function getBuyerRewardPercent(int256 deviant)\r\n        public\r\n        view\r\n        returns (uint256, uint256)\r\n    {\r\n        // 0.947 ^ -5 = 1.31295579684  / 10 ** 11\r\n        //reward : 0.947^{x}+0.05\r\n\r\n        if (deviant < 0) {\r\n            uint256 uDeviant = uint256(-deviant);\r\n            uint256 step = uDeviant / DEVIDE_STEP;\r\n            uint256 resident = uDeviant - step * DEVIDE_STEP;\r\n            uint256 j = 0;\r\n            uint256 percent = 10**18;\r\n            // return 9 ** uDeviant;\r\n            for (j = 0; j < step; j += 1) {\r\n                //for loop example\r\n                percent = (percent * 131295579684) / 10**11;\r\n            }\r\n            percent = (percent * (1000**resident)) / (947**resident);\r\n            return (percent / (10**14) + 500, 10**4);\r\n        } else {\r\n            return (0, 10**4);\r\n        }\r\n    }\r\n\r\n    // internal function\r\n    function ceil(uint256 a, uint256 m) internal pure returns (uint256) {\r\n        return ((a + m - 1) / m) * m;\r\n    }\r\n}\r\n",
  "sourcePath": "D:\\Work\\upwork\\pegged-contract\\contracts\\PeggedToken.sol",
  "compiler": {
    "name": "solc",
    "version": "0.8.4+commit.c7e474f2.Emscripten.clang"
  },
  "schemaVersion": "3.2.3",
  "updatedAt": "2021-12-28T15:40:03.277Z",
  "networkType": "ethereum",
  "devdoc": {
    "kind": "dev",
    "methods": {
      "allowance(address,address)": {
        "details": "See {IERC20-allowance}."
      },
      "approve(address,uint256)": {
        "details": "See {IERC20-approve}. Requirements: - `spender` cannot be the zero address."
      },
      "balanceOf(address)": {
        "details": "See {IERC20-balanceOf}."
      },
      "decimals()": {
        "details": "Returns the number of decimals used to get its user representation. For example, if `decimals` equals `2`, a balance of `505` tokens should be displayed to a user as `5.05` (`505 / 10 ** 2`). Tokens usually opt for a value of 18, imitating the relationship between Ether and Wei. This is the value {ERC20} uses, unless this function is overridden; NOTE: This information is only used for _display_ purposes: it in no way affects any of the arithmetic of the contract, including {IERC20-balanceOf} and {IERC20-transfer}."
      },
      "decreaseAllowance(address,uint256)": {
        "details": "Atomically decreases the allowance granted to `spender` by the caller. This is an alternative to {approve} that can be used as a mitigation for problems described in {IERC20-approve}. Emits an {Approval} event indicating the updated allowance. Requirements: - `spender` cannot be the zero address. - `spender` must have allowance for the caller of at least `subtractedValue`."
      },
      "increaseAllowance(address,uint256)": {
        "details": "Atomically increases the allowance granted to `spender` by the caller. This is an alternative to {approve} that can be used as a mitigation for problems described in {IERC20-approve}. Emits an {Approval} event indicating the updated allowance. Requirements: - `spender` cannot be the zero address."
      },
      "name()": {
        "details": "Returns the name of the token."
      },
      "symbol()": {
        "details": "Returns the symbol of the token, usually a shorter version of the name."
      },
      "totalSupply()": {
        "details": "See {IERC20-totalSupply}."
      },
      "transfer(address,uint256)": {
        "details": "See {IERC20-transfer}. Requirements: - `recipient` cannot be the zero address. - the caller must have a balance of at least `amount`."
      },
      "transferFrom(address,address,uint256)": {
        "details": "See {IERC20-transferFrom}. Emits an {Approval} event indicating the updated allowance. This is not required by the EIP. See the note at the beginning of {ERC20}. Requirements: - `sender` and `recipient` cannot be the zero address. - `sender` must have a balance of at least `amount`. - the caller must have allowance for ``sender``'s tokens of at least `amount`."
      }
    },
    "version": 1
  },
  "userdoc": {
    "kind": "user",
    "methods": {
      "changePriceFeedAddress(address)": {
        "notice": "Network: Kovan Aggregator: DAI/USD Address: 0x9326BFA02ADD2366b30bacB125260Af641031331"
      },
      "getDeviant()": {
        "notice": "return deviant of price - beetween current price and pegged price"
      },
      "getLatestPrice()": {
        "notice": "Returns the latest price"
      },
      "getPeggedPrice()": {
        "notice": "pegged price increase by day: 0.0002X+0.01 (x is number of day from initialDay) ==> pegged_price_n = initial_price + n * (0.01) + (n*(n+1)/2 * 0.0002)"
      }
    },
    "version": 1
  }
}