{
  "contractName": "RewardContract",
  "abi": [
    {
      "inputs": [
        {
          "internalType": "contract PeggedToken",
          "name": "_token",
          "type": "address"
        }
      ],
      "stateMutability": "nonpayable",
      "type": "constructor"
    },
    {
      "inputs": [],
      "name": "tax",
      "outputs": [],
      "stateMutability": "nonpayable",
      "type": "function"
    },
    {
      "inputs": [],
      "name": "reward",
      "outputs": [],
      "stateMutability": "nonpayable",
      "type": "function"
    }
  ],
  "bytecode": "0x608060405234801561001057600080fd5b506040516101a03803806101a08339818101604052810190610032919061008d565b806000806101000a81548173ffffffffffffffffffffffffffffffffffffffff021916908373ffffffffffffffffffffffffffffffffffffffff16021790555050610111565b600081519050610087816100fa565b92915050565b60006020828403121561009f57600080fd5b60006100ad84828501610078565b91505092915050565b60006100c1826100da565b9050919050565b60006100d3826100b6565b9050919050565b600073ffffffffffffffffffffffffffffffffffffffff82169050919050565b610103816100c8565b811461010e57600080fd5b50565b60818061011f6000396000f3fe6080604052348015600f57600080fd5b506004361060325760003560e01c8063228cb73314603757806399c8d55614603f575b600080fd5b603d6047565b005b60456049565b005b565b56fea26469706673582212208aa765c5476aff6060f7323fe77a18ab189f8e1c9a28915554ad97934f75b76664736f6c63430008040033",
  "immutableReferences": {},
  "source": "// SPDX-License-Identifier: MIT\r\npragma solidity ^0.8.0;\r\n\r\nimport \"./PeggedToken.sol\";\r\n\r\ncontract RewardContract {\r\n\r\n  //assign Token contract to variable\r\n  PeggedToken private token;\r\n\r\n  //add mappings\r\n  uint totalReward;\r\n\r\n  //add events\r\n\r\n  //pass as constructor argument deployed Token contract\r\n  constructor(PeggedToken _token) {\r\n    //assign token deployed contract to variable\r\n    token = _token;\r\n  }\r\n\r\n  function tax() public {\r\n    \r\n  }\r\n\r\n  function reward() public {\r\n    \r\n  }\r\n\r\n}",
  "sourcePath": "D:/Work/upwork/pegged-contract/contracts/RewardContract.sol",
  "compiler": {
    "name": "solc",
    "version": "0.8.4+commit.c7e474f2.Emscripten.clang"
  },
  "schemaVersion": "3.2.3",
  "updatedAt": "2021-12-28T15:39:58.831Z",
  "devdoc": {
    "kind": "dev",
    "methods": {},
    "version": 1
  },
  "userdoc": {
    "kind": "user",
    "methods": {},
    "version": 1
  }
}